:020000040000FA
:10000000F80B002049060000FD0600001142000028
:100010003142000051420000914200007142000054
:1000200000000000000000000000000019130000A4
:10003000FD06000000000000FD060000FD060000B7
:10004000FD060000FD06000000000000071E000085
:1000500000000000FD06000000000000000000009D
:10006000FD060000FD060000FD060000FD06000084
:10007000FD060000FD060000FD060000FD06000074
:10008000FD060000FD06000000000000000000006A
:10009000FD060000FD06000000000000000000005A
:1000A000FD060000FD060000FD060000FD06000044
:1000B000FD060000FD060000FD060000FD06000034
:1000C000FD060000FD060000FD060000FD06000024
:1000D000FD06000000000000FD060000000000001A
:1000E000FD06000000000000FD060000FD06000007
:1000F00000000000FD06000000000000FD060000FA
:10010000000000000000000000000000FD060000EC
:10011000FD06000000000000FD060000FD060000D6
:1001200000000000FD0600000000000000000000CC
:1001300000000000000000000000000000000000BF
:1001400000000000000000000000000000000000AF
:10015000FD06000000015F5F00000000FE0B0000D4
:10016000A91300008006000000000000000000004D
:10017000000000000000000000000000202100201E
:100180000000000001015F5F030100001F0100008B
:1001900099040000000000000000000001000000C1
:1001A000010000000000000000000000000000004E
:1001B00000000000700000006046000080000000A9
:1001C000000F000001000000E502000001015F5F78
:1001D000040100001F010000E50500000000000010
:1001E000000000000000000001000000000000000E
:1001F0000000000000000000000000006B4600004E
:10020000400000000507000001000000ED040000B0
:1002200038B50025054C29462046D4F80024C4F8EA
:10023000045404F063F8C4F8005438BD200C0020C6
:1002400013B511460022CDE9002242680346302A48
:1002500004683ED194F82C20022A15D0B2B320486D
:100260002468D0F80404013ACDE90040072A33D8C5
:10027000DFE802F0040A0E13181D22276A4618460A
:1002800000F02DF902B010BD184600F016F9F9E79C
:100290006A46184600F014F9F4E76A46184600F07A
:1002A00009F9EFE76A46184600F00DF9EAE76A46F1
:1002B000184600F00BF9E5E76A46184600F009F920
:1002C000E0E76A46184600F007F9DBE700F00AF9B4
:1002D000D8E76FF08000D5E76FF08500D2E700BF68
:1002E000200C00202DE9F04F056804469FB0002D3A
:1002F00040F0AA802946202202A803F0FFFF2946E9
:1003000020220AA803F0FAFF2946042512AF302262
:10031000384603F0F3FF04F11C0353F804192A468E
:10032000013D09B1154601E0002DF6D1042604F186
:100330002C0353F804193246013E09B1164601E078
:10034000002EF6D12DB96FF0830528461FB0BDE809
:10035000F08F30233A460021606804F010F830280E
:10036000F1D1DFF8EC90CDE902704FF001084F4673
:100370000DF1080A04F1140BA845D9F800141BD19B
:100380000DF1280842464FF0000C04F1200303EB66
:1003900086094B4530D1BCF1000F01D0C7F80014DD
:1003A000A3682946C7F804340AAA334602A8FFF70F
:1003B00047FF0027054640E05BF8043BC1F580623B
:1003C000D81C20F00300904204D9FFF729FF6FF0FA
:1003D0008C05BAE709EB01020144C9F80014606812
:1003E0004146019203F0CBFF019ACAF80C0008F1D4
:1003F00001084AF8082FBFE753F804EBC1F5806AFB
:100400000EF1030020F00300504502F1080207D866
:1004100007EB010C42E902CE01444FF0010CB8E7B2
:10042000BCF1000FD1D0C7F80014CEE7394658E927
:100430000223606803F0B8FF0137B74208F10808EB
:10044000F4D1FFF7EDFE80E76FF085057DE700BF93
:10045000200C002008B528220021024803F04EFF9E
:10046000002008BD2810002010B5044C0F222046A3
:10047000034903F01BFF204610BD00BF51100020B0
:10048000E805000008B50121024801F065FF0020E1
:1004900008BD00BF5010002008B5FFF7DBFF40B9D2
:1004A000FFF7E2FFFFF7EEFF18B9BDE8084001F0E3
:1004B000BFBF08BD6FF0850070476FF085007047C3
:1004C0006FF0850070476FF0850070476FF0850012
:1004D00070476FF0850070476FF0850070476FF0D0
:1004E00085007047D1E9000101F082BFF0B50368D3
:1004F0000646B3F57D7FA7B007D040F2F5329342B0
:1005000007D06FF0850027B0F0BD00F0B3FB0020EE
:10051000F9E7002404253C22214607A8CDE902443E
:10052000CDE90444069403F0E9FE3C22214617A8D5
:10053000169403F0E3FE019406F11C0353F804192A
:100540002A46013D09B1154601E0002DF6D10424EB
:1005500006F12C0353F804192246013C09B1144654
:1005600001E0002CF6D16B1E012B36D8012C34D8BB
:100570000423002170680DEB030203F000FF042840
:1005800002D06FF08000BEE7022D24D17569402DA6
:1005900025D806AF2B463A460121706803F0EFFEDE
:1005A0008542EED1CDE9027502A934B1336A402B00
:1005B000E7D816AACDE9042304AC2246019800F03E
:1005C00058FC05462CB1DDE904230021706803F0D6
:1005D000EBFE284697E70021E7E7012093E76FF05D
:1005E000890090E7002070474D62656420544C53A9
:1005F00020332E352E3200000000000000000000E5
:100600002C1A000001000000407C00008010002037
:100610003D000000407C0000200C00200000000095
:10062000407C0000000C002000000000741100203D
:10063000AE050000200C002018010000000C002076
:100640000800000001F02ABA08B572B6224A234B0E
:100650009A60234B83F30988224B83F30A8883F340
:100660000B88214B1AA1D1E90001C3E9000100F078
:1006700065F81E4B1E49A3F10C028A4217D30020D5
:100680001C4B1D49A3F108028A421DD301F0CEFC88
:1006900053F80C0C50F8224053F8080C40F8224054
:1006A000013253F8040C8242F2D30C33E3E7002208
:1006B000F7E753F8084C44F82200013253F8044C91
:1006C000A242F6D30833DDE70022F7E7AFF300805C
:1006D000A5EDF5FEA5EDF5FE0000000000ED00E043
:1006E000F80B002000040020F80B00201406000086
:1006F0002C0600003406000044060000EFF30880DA
:10070000EFF309812DE9F00F6B46724600F0FCF81B
:1007100008B0FFF797FFFEE7064B1A680433072A75
:100720001B6805D1023B032B02D8034AD05C7047FB
:10073000002070473001FF00D61E00005E4A08B559
:10074000136843F002031360FFF7E6FF48B15B4B09
:100750001A6832B90D2119600121A3F5827319605D
:100760001A600022D30003F57F03D3F80013013190
:1007700007D0D3F800130132D3F80433202A0B60DA
:10078000F0D1FFF7C9FF002840F08F80FFF7C4FFCA
:1007900038B14B4B4B4A1A604FF050230122C3F83B
:1007A0005825494B1A680433072A1B6808D1023BB5
:1007B000032B05D8454AD35C13B10022444B1A6081
:1007C000FFF7AAFF50B14FF05023D3F80024D10710
:1007D00042BF0022C3F81421C3F818213A4B3D4A06
:1007E0001B681268072B09D14FF05023D3F800245F
:1007F000D20744BF6FF00102C3F80024FFF78CFF5B
:1008000010B16522344B1A602F4B324A1B681268B4
:10081000072B15D1314B1B68002B11DA4FF05023F9
:100820000322C3F8182501229A60D3F80421002A74
:10083000FBD00022C3F804210122DA60C3F8182596
:10084000214B1A680433072A1B681ED1023B032B75
:1008500002D8234AD35CC3B17E231F4A1360C2F877
:1008600030327F221F4B1A6000231F4A13605360EF
:1008700002F10C1202F5E6421360A2F57E22A2F606
:10088000EC7213609360194A1360194AD2F88C30E5
:1008900043F44063C2F88C30164A174B1168C3F812
:1008A0004415D269C3F84C2508BD29220A4B1A60A9
:1008B00003221A636AE700BFD0ED00E0204A00502F
:1008C000309503504400EFBE3001FF00DA1E0000F7
:1008D0004C2503503401FF000C47005020240350E6
:1008E000D21E000018210050049E0350A012205078
:1008F00000ED00E00080FF00006000507C22014914
:1009000003F0D4BC1412002038B51D46214B224CF4
:100910005B68C3F308032360EFF30383C4E901209A
:10092000636502F00C035206E1602AD50C2B18BF58
:10093000014620221948216103F0B8FC25B120228C
:100940002946174803F0B2FC124B9A6AA265D96A8D
:10095000E165986B206602F400406066586BA06603
:1009600002F08000E0669A62D962D3F8E420226740
:10097000D3F8E810616702F04001A167C3F8E420F2
:1009800038BD0C2B02D1EFF38981D2E7EFF38881D8
:10099000CFE700BF00ED00E0141200202812002075
:1009A00048120020002918BF0421002A18BF022283
:1009B000036807481143186359605A6842F00102FE
:1009C0005A60BFF34F8FBFF36F8F0020704700BF97
:1009D00004AAFF000722024BC3F80423704700BF9C
:1009E00000300050074B186804331B68003818BFEC
:1009F00001200BB140F00200034B1B680BB140F02B
:100A00000400704700310050083100500022074BAD
:100A1000C3F80021D3F80011C3F80421D3F804115E
:100A2000C3F80821D3F80831704700BF00300050E8
:100A30000A4A10B500231724114603F5C07001338C
:100A4000402B42F82040F8D10023172003F5E07234
:100A50000133402B41F82200F8D110BD0030005086
:100A600010B59DF80840800B002C14BF4FF4807423
:100A70000024002A44EA030414BF10230023064A7A
:100A8000890B1C43884200D910BDC3B203F5C07363
:100A900042F823400130F5E70030005010B59DF8D2
:100AA000084000F16040002C14BF4FF48074002413
:100AB000002A44EA030414BF1023002301F160411B
:100AC000064A400B490B1C43884200D910BDC3B2F3
:100AD00003F5E07342F823400130F5E700300050A1
:100AE000C0F30D03C3F58043B3FA83F3C3F11B03D3
:100AF000064AC0F38730DBB240F4807043F4807361
:100B0000C2F80005C2F80435704700BF003000503D
:100B10004303014818447047FF1FF81F002914BF02
:100B20004FF480720022034B00F5007043F8202040
:100B3000704700BF0030005008B5FFF753FF014B6E
:100B4000186008BD441800200422014903F0AEBB20
:100B50004418002008B501F039F968B901F0A2FC89
:100B600058B9074AD36823F008031B041B0C43F051
:100B7000BF6343F40033D36008BD45F22350FBE765
:100B800000ED00E0024B1860024B00201960704736
:100B90004C1800204818002013B5274C42692368E0
:100BA0005A6282699A62C269DA62026A1A63426AA6
:100BB0005A63826A9A63C26ADA63026B1A64426B8E
:100BC0005A60826B9A60C26BDA60026C1A61426C86
:100BD0005A61826C9A61C26CDA61026D1A62826D2E
:100BE0005A65C26D9A65026FDA65026E1A66826E88
:100BF0005A66426F9A66EFF388825A64EFF38982ED
:100C00009A644268DA64EFF394821A65026801A874
:100C10001A67FFF799FF2368019ADA6601221A70B2
:100C2000064B1C6864086400204621462246234681
:100C300003F01CFC02B010BD4C1800204818002026
:100C400000B5A1B001A8FFF759FE029B63B15B0696
:100C50000AD4019B23F00203052B05D1044B1B682A
:100C600013B101A8FFF798FF21B05DF804FB00BFA6
:100C700048180020BFF34F8F0549064BCA6802F49D
:100C8000E0621343CB60BFF34F8F00BFFDE700BFAF
:100C900000ED00E00400FA05F8B543680C2B27D1FD
:100CA0004B68042B24D14FF0FF3304680E68216891
:100CB0003360E9B1A268DAB10623012000F0D5FF64
:100CC000B0B961680B4B1D68A9420CD3A2685F687C
:100CD00001EB020C3D44AC4505D8206803F0E6FA70
:100CE00000203060F8BD0130042803F10803EAD188
:100CF0000220F7E7E01E0000436870B50C2B33D1EB
:100D00004B68042B30D14FF0FF3306680C68306815
:100D1000236058BB7268550903D0012D1DD14FF6D1
:100D2000FF7302F01F02D340DB071AD5B168072911
:100D300017D801238B4013F08B0F12D07DB1012DFA
:100D400016D10E4B03EB8202D2F8003223F0E043BF
:100D500043EA0173C2F800320023236070BD084BE0
:100D6000F0E74FF0FF33F8E70220F7E70320F5E75D
:100D70000023803253F82230FFDE00BF0028845069
:100D80000025845070B54C68034614F01F002CD128
:100D90001A680E681368C3F307239E4225D255686C
:100DA000506096600B7C24F01F0403F00103234382
:100DB0008C7CE40004F018041C434B7C5B0003F0C3
:100DC00006032343D3608B68013B23F01F04CB68E9
:100DD0005B0003F00E03234343F0010313615560EE
:100DE000BFF34F8FBFF36F8F70BD0120FCE7036827
:100DF00000205A68C9B258609960D86018615A607A
:100E0000704770B50546002403681E68C6F30726C0
:100E1000B44201D1002070BD21462846FFF7E7FF0C
:100E20000134F5E780037047800300F57F503F30C1
:100E30007047002070473F2070474FF48040704754
:100E400000F57F40C03040037047402070477F204E
:100E500070474FF4005070470020704708B5FFF707
:100E6000EFFE72B620BFFDE70020704700207047FC
:100E700070470346012B084670B5114607D0032B77
:100E800009D0002B31D1BDE87040FFF705BFBDE8A8
:100E90007040FFF731BF4368082B01D0022070BDBE
:100EA0005468042CFAD14FF0FF330568166829689E
:100EB00033600029F2D06B68002BEFD02623742218
:100EC000012000F0D2FE0028E8D122462323012091
:100ED000696800F0CAFE04460028DFD1D5E90001A8
:100EE000FFF750FE30602046D9E70320D7E7000027
:100EF00008B5114B83F30A88104800F052FFC0B9BF
:100F0000FFF728FEA8B9FFF7A7FF90B9FFF7ACFFDE
:100F100058B9FFF7ADFF00F083FE00F0C3FB00F00F
:100F20002FFA00F05FFE002008BDFFF79FFF0028AA
:100F3000EFD000F0B3FDF2E7000400209012002093
:100F40002DE9F04F9A4695B0C1F302430293594BF5
:100F500083461B680D4601930BB2002B1646C1F366
:100F6000026805DA6FF08007384615B0BDE8F08FEB
:100F70008B42C36000F09C80029B4344042BF1D859
:100F80000029ACBF0024202401984FEAC80731464D
:100F90003A46806844F0020300F067FE01460028EC
:100FA000E0D1202204A803F0A9F93A46314604A86A
:100FB00003F07CF9029B0198DE00324651468068BE
:100FC00044F0060300F051FE07460028CAD101464E
:100FD00020220CA803F092F9324651460CA804AE28
:100FE00003F064F933463A460132904520D815F0B3
:100FF000006F18BF20240BF11C0909EB880844F08E
:101000000203C14529D1202C05D1002D03DB15F4A5
:10101000002F08BF0024029B0BF12C050CAE05EB42
:10102000830844F0060445452ED1CBF87CA09BE70D
:1010300019469446D3F80090D1E902E07044814506
:1010400003D25868484486458CD30CF1010CE04526
:1010500001F10801F0D80833C6E70198726880688A
:1010600056F8081B039300F000FE00287FF47AAFC7
:1010700056F8042C039B49F8042B56F8082CC9F8A1
:101080002C00C9F81C20BCE701987268234656F86A
:10109000081B806800F0E9FD00287FF463AF56F874
:1010A000043C45F8043B56F8083CE863EB62BAE7B9
:1010B000002759E7A82700202DE9F0411F461A4BC9
:1010C0000D461646D3F8008000F0CCFE044608B961
:1010D00000F0E4FCE368002B01DA00F0DFFC032DF4
:1010E00001D900F0DBFC04EB8504E569E36CED1A43
:1010F00016D006233A463146D8F8080000F0B5FD70
:1011000008B100F0CBFCBD4228BF3D46E36CE16B6B
:101110002A461944304603F0C9F8E36C2B44E364D3
:101120002846BDE8F08100BFA82700202DE9F04146
:101130001D461A4B0F461646D3F8008000F092FE6B
:10114000044608B900F0AAFCE368002B01DA00F0BD
:10115000A5FC032F01D900F0A1FC04EB8704E36A8E
:10116000E26E9B1AAB4201D200F098FC02232A46A1
:101170003146D8F8080000F078FD08B100F08EFC88
:10118000E36EE06D2A463146184403F08FF8E36EB3
:1011900000202B44E366BDE8F08100BFA8270020B3
:1011A0002DE9F04106464FF001080E4D0E4B2F6819
:1011B0005C681CB930462F60BDE8F08122689368F6
:1011C00013F400700CD1A369012B09D0D3682C60F3
:1011D00023B19847002801DA00F060FCC4F81880B9
:1011E000246AE6E7A8270020A027002038B5044697
:1011F00010B96FF0800038BD8368002BF9D01A68F1
:10120000002AF6D05D68002DF3D00B4BE861A86989
:101210001D6020B92B68DB6853B90123AB61A3685B
:1012200004F10C001B681B69984701232360E2E767
:1012300098470028F1DADCE7A82700204268024B33
:1012400008461A60704700BFA8270020002330B569
:1012500005680446AA68C0E9063312F4406F85B0F9
:101260001CD012F4006202D000F03AF90246A96ADA
:101270002B6968460B44073123F0070321F007016F
:10128000CDE902130093002305490193EB6800F0B8
:1012900029FA684600F0C9FD024B1C6005B030BD5C
:1012A000A1110000A827002070B501F00C050C2D3D
:1012B0000CBF154605464A060C4619D58B0658BF85
:1012C0002835AB6913F8026C84F00803C3F3C0033C
:1012D000C6F38012934201D000F0E0FB16F0A00F9D
:1012E00002D14EB1032E10D06FF083032B600AE0C1
:1012F00000F0D4FB2026E7E700F0C8FA04460146D8
:10130000044800F08EFD204670BD284600F0D0F95C
:10131000F9E700BFF80B0020EFF308807146EFF308
:101320000982EFF30B830CB406B4FFF7BDFF8646CA
:10133000009900F0080001F00801401A02DC12DBFD
:1013400004B070471EF020031CBF2DE9F00FBDF163
:10135000080D0A4C254626462746A046A146A24629
:10136000A34630B4704704B030BC1EF020031CBF4D
:101370001DF1080DBDE8F00F04B07047A5EDF5FEB6
:10138000084BDA6882F07F4282F47F0242F48042A6
:10139000DA6000221A765A76DA76DA77602283F8F3
:1013A0002220704700ED00E0009A0A4B9A420FD1CC
:1013B000012290430146024603460446054606467E
:1013C00007468046814682468346844686460447D1
:1013D000FEE70000A5EDF5FE70B5324C86B0324850
:1013E000FFF70FFD236801255A1C01932F4B226044
:1013F000DA681B694FF44076039300232A4801A959
:1014000002920495ADF814608DF81630FFF7BAFC1F
:1014100018B143F6DA3006B070BD23688DF81600B7
:101420005A1C0193224B20480293224B01A9CDE97B
:1014300003352260ADF81460FFF7A4FC0028E8D162
:1014400023688DF816005A1C01931B4B1648029313
:101450001A4B01A9CDE903352260ADF81460FFF7FE
:1014600091FC0028D5D123688DF816005A1C0193F1
:10147000134B0D480293134B01A9039302230493CA
:1014800040F201132260ADF81430FFF77BFC0446F4
:101490000028BED12A4629460348FFF783FA204692
:1014A000B9E700BF9412002084100020001F000044
:1014B000601F0000A04600000006000000060000BB
:1014C000000C0020200C0020014B1868704700BF62
:1014D000001F0000014B1B6818687047001F0000C8
:1014E000014B1B6858687047001F000000F01F0286
:1014F00040090DD001280DD1094B03EB8203D3F82D
:10150000002222F0E04242F04052C3F8002270472D
:10151000044BF2E702F18003002252F82330FFDE91
:1015200000288450002584500020034BD8765A6A46
:1015300042F470225A62704700ED00E00349044B08
:10154000CA68002092B21343CB60704700ED00E000
:101550000800FA05074A084B11680020C3F8441533
:10156000D269C3F84C250222C3F84025C3F84825A8
:10157000704700BF0080FF000060005000224FF065
:10158000FF30094B02F1A0010132102A43F821007B
:10159000F8D1D3F88022002022F00802C3F880227C
:1015A000D3F88032704700BF00E100E008B5FFF7D4
:1015B00011FA0822024BC3F880211A60002008BDEE
:1015C00000E100E0044B1A6822F001021A601A6878
:1015D00042F002021A607047D0ED00E037B50124F6
:1015E000FFF726FA134D2246052347F6FF71002028
:1015F0000094FFF735FA224607234FF000500E49BA
:101600000094FFF74BFAD5E901010723002200946B
:10161000FFF726FA07230022084909480094FFF73C
:101620003DFA2969E8680139FFF75AFA002003B04A
:1016300030BD00BF001F0000FF7F0020FFFF07201C
:101640000080002038B50024134D002115F8010B4F
:101650000134FFF763FA2A2CF7D1002401250F4942
:101660002046C1F88044C1F88454C1F8C044C1F890
:10167000C454C1F8C844C1F8CC54FFF737FF28461A
:10168000FFF734FF064B2046C3F800554FF4807334
:10169000C1F8403438BD00BF141F000000300050B6
:1016A000001000500122014B1A6070479812002070
:1016B00010B50446094B22891868616806238068C2
:1016C00000F0D3FA18B16FF08603236010BD044B0D
:1016D0001B68012BF7D100F081F8F4E7A827002060
:1016E000981200202DE9F84305461E460068134B6A
:1016F0009046AA68A0F1080440E9023350389042AD
:101700000F4601D200F0CAF9A4F14809482200218D
:10171000484602F0F3FD002344E9073344F8143C43
:101720004FF0807344F8043C6FF0020344E9036710
:1017300044F8208CC5E90093BDE8F883A5EDF5FEDB
:10174000094B30B55C6801460022204640B105686F
:101750006D688D4205D11AB18168586091608460CE
:1017600030BD02468068F1E79C12002038B504467F
:101770002AB10B689B68DB050CD5002038BD0A4BED
:101780001D680DB900F08AF900222B6899692C3385
:101790008A4202D16FF0FC00F0E753F8040F844254
:1017A000EBD00132F4E700BFA827002070B5044653
:1017B0000E461546002130220C3002F09FFD064BEC
:1017C00020461B68A6606360656100F00DFA002387
:1017D0002061236070BD00BFA8270020044B1B6858
:1017E0001BB11B680BB1586870474FF0FF30704752
:1017F000A8270020064B10B51C680CB900F04EF964
:1018000023689B6813F4406F14BF0120002010BDB3
:10181000A82700202DE9F843904607460C46FFF71D
:10182000E9FF024624B96FF080042046BDE8F88342
:101830006300F8D5144B04F01F0153F82150002D1C
:10184000F1D02B6829465868FFF790FFB0B9C4F370
:101850000721284600F0F4FA04460028E3D1EFF30C
:10186000108972B600F0CDF9064689F3108840B1B0
:1018700042462946FFF79AFF3E60D6E76FF08104A3
:10188000D3E76FF08204D0E7AC2700202DE9F041C8
:1018900000F0B6F90023144C144F63607B602546BA
:1018A00000F0F0F8DFF84880384600F023F80446EE
:1018B000A8B129468023424600F084F80646204617
:1018C00000F003FB206804F1080100F0AAF908B158
:1018D00000F0E4F831462046FFF7B8FCE4E7BDE845
:1018E000F04100F07CB900BF9C120020A02700202E
:1018F000AC270020F8B5054608B900F0CFF82C4E0B
:10190000346814F1290F50D82A4B196804F12803C0
:101910008B424AD2236AA26903EB43030C32606A0A
:101920001344E2690244E04302EB82021344B0EB49
:10193000830F4FEA830202D3A318994201D200F029
:10194000ADF823681C4A1B0C1B04934201D000F025
:10195000A5F82388B3F5817F01D300F09FF8636871
:10196000002B01DA00F09AF8144A176807F12403F3
:101970001360134A1268934201D900F08FF8236A6A
:10198000A26903EB43030C32616A1344E2693C60D1
:101990000A4402EB82021344326802EB8303336091
:1019A0006B683B626F603846F8BD0027FBE700BFFD
:1019B00088100020401F000000005F5F8C10002096
:1019C000441F00002DE9F74F0E46174605460093C9
:1019D00000B109B900F062F8D5F80090D9F81810F4
:1019E00009F1300303EB810B2449D9F81C30D1F8FD
:1019F00000808BB10C2000FB03830B602049096839
:101A00008B4201D900F04AF80024D9F81C30A342D7
:101A100002D9B8F1000F03D1002003B0BDE8F08F68
:101A20000C2303FB04F0142303FB04B1002340F850
:101A30000810896800EB080ACAF808308B05CAF854
:101A4000045014D517B1009B802B03D0019100F0F6
:101A500025F8019911F0E00FC8B202D157F8201013
:101A600019B1019000F01AF8019847F820A07168A8
:101A70000134CAF80810C6F804A0C6E79010002088
:101A8000481F000008B5FFF71FFD034B9860FFF7E4
:101A900021FD80F3888808BD00ED02E0FFF7DEB984
:101AA0008230012808B506D8FFF7A4FE18B9BDE8B2
:101AB0000840FFF7F3BF08BDF8B506460D4600F035
:101AC000D1F9044608B9FFF7E9FFA7680FB9FFF796
:101AD000E5FFE368991C20D05A1C21D1A5B315F16C
:101AE000820F13D102232360EFF3108672B62946CA
:101AF0002046FFF7A3FB054686F310882368022BD8
:101B000024D1204600F086F82846F8BD15F1830F51
:101B1000EAD0FFF7C3FF0025E6E702232360FAE7D8
:101B2000002BF6DB204600F0C1F93B689B689B0563
:101B300001D50223236015F1810FD5D16369002BF4
:101B4000D2DBFFF7ABFFCFE73546F4E70023236096
:101B5000DAE708B5FFF782F96FF0830008BD2DE9D9
:101B6000F3410E46174698460546FFF743FE00F040
:101B70008DF92946024601A8FFF74CFE044660B9DC
:101B800043463A4631460198FFF7DAF9044640B138
:101B90006B0002D5019800F03DF8204602B0BDE888
:101BA000F0810198FFF722FB0446F6E740F20110AE
:101BB000704770B50546FFF71DFE06462846FFF73D
:101BC000BFFD044608B9002070BD014632462846D4
:101BD000FFF7CCFD0028F6D12368D868F4E76FF052
:101BE0000200704700DF70474FF480507047B0F537
:101BF000805F03D1EFF30B8080387047002070477F
:101C00007047EFF30B8000F1800383F30B8870477C
:101C100000207047EFF30B83803B83F30B88704702
:101C20007047F0B510B943F6DA30F0BD0029FAD0AC
:101C30008368002213F4406F14BF032302230C2592
:101C40001426046A0B60A24201D10020EDE705FBD7
:101C500002F1D0E9067301EB870106FB031303448D
:101C60009B6B1B07DFD40132EDE72DE9F0410F46F6
:101C7000164612B90020BDE8F08110F0020F14BF23
:101C800000250425C40706D5EFF3948212F0010F56
:101C900014BF1625122503F00602062A3ED145F090
:101CA00001052A463146384602F0FEF9002814BFE5
:101CB000012000202DD147E800F13E444FEA116C8D
:101CC00006F1FF38090248E800F34FEA136262F3B5
:101CD0001F631ED51B021CD562451AD047E800F4CD
:101CE00048E800F8FFF7A5F8240E84424FEA186888
:101CF00030D3FFF7A0F880452CD82046FFF794F8A2
:101D00002A46C7F101010144384602F0CDF998B9DD
:101D100000200028AED16FF07F00ACE798073DD5DA
:101D200045F00805BDE72046FFF77CF80746FFF7BA
:101D300084F82A460146E7E701344445F3D3404698
:101D4000FFF770F82A46311A02F0AEF9003818BFD2
:101D50000120DEE7FFF779F88442D9D3FFF777F85F
:101D60008045D5D82046FEF7D3FE2A46C7F10101AB
:101D70000144384602F098F90028C9D00134A04542
:101D800003D84046FFF75CF8DCE72046FFF758F839
:101D90000746FFF75EF82A460146EAE74CF2DA20EA
:101DA00069E710B50446FFF70DFCFFF717FC10B10B
:101DB00043F6DA3010BDFFF745FC0028F8D1FFF7F5
:101DC0000BFB0028F4D102232360F3E708B5FFF7EB
:101DD000ABFB60B9FFF7B2FB48B9FFF7BBFB30B90B
:101DE00062B6FFF7CBFB10B9FFF7E0FB08B143F693
:101DF000DA3008BD08B5FEF79FFEFEF707FEBDE826
:101E00000840FFF74BBEEFF30880EFF309812DE99F
:101E1000F00F6B467246FEF777FD08B0FFF7EAFF5A
:101E2000FEE704460D46A54628470368283383F39A
:101E30000988836883F30B88BFF36F8F406870470E
:101E400003689A68DB6812F4806F05D18B422CBF5F
:101E500000206FF0FA0070478B420CBF00206FF03B
:101E6000FA00704710B5FFF7C2FE0446FFF7D0FE38
:101E700050B9FFF7B3FCA3685B681B685B688342DB
:101E800018BF0024204610BD0024FBE738B50546E6
:101E900048B100F01BF8B5EBD07F044601D0FFF746
:101EA000FDFD204638BDFFF799FCF4E7002310B58F
:101EB00000F12C0252F8041B19B1C16FD46B194404
:101EC0004C600833202BF5D110BD70474FF0FF3028
:101ED0007047000000010100000001010000000047
:101EE0000002FF002C0000005004FF001000000062
:101EF0003001FF0008000000200CFF00040000007B
:101F00000080000000800000FFFF0F00007C000048
:101F10000080000000040508090B0C0A0E0F1011C8
:101F200014151718191A1B1C1D1E1F2021222324EB
:101F300026282A2B2D30333436373942428100008F
:0C1F400010020000E0110020F811002049
:101F6000009A204B9A4208D110B502F0EEF902F027
:101F700049F906BC96460C46744702F02AFA009AC4
:101F8000184B9A4208D110B502F0EBF902F03AF979
:101F900006BC96460C46744702F01BFA0CB4029A33
:101FA000104B9A420CD14FF0004319430CBC10B5B2
:101FB00000F076F802F026F906BC96460C46744707
:101FC00002F007FA009A074B9A4202D106490868C4
:101FD000744702F0FEF9009A024B9A4200D174470E
:101FE00002F0F7F9A5EDF5FE8010002010B5054CC4
:101FF000237833B9044B13B1044800E000BF012338
:10200000237010BDF8110020000000008046000081
:1020100008B5034B1BB10349034800E000BF08BDEE
:1020200000000000FC11002080460000154B002B32
:1020300008BF134B9D46A3F5803A00218B460F46FF
:102040001348144A121A02F059F90F4B002B00D012
:1020500098470E4B002B00D0984700200021040029
:102060000D000D48002802D00C4800E000BF02F02F
:10207000A3F820002900FEF73BFF02F089F800BF1B
:1020800000000800F80B0020000000000000000025
:10209000741100202C280020000000000000000027
:1020A0002DE9F84304460D4616461F46EFF3058317
:1020B000C3F308030BB1FFF7F1FCDFF834903B46A4
:1020C000204632462946D9F80080FFF748FDD9F866
:1020D00000300446984506D0DB6901461869BDE822
:1020E000F843FFF7E9BCFFF7DBFC2046BDE8F883C7
:1020F000A827002001680E4A0346914215D1C16904
:10210000A2F11022A2F1EF1291420ED18268012AAF
:102110000BD8C26812B101698A4206D0586928B149
:102120009B691B1A5842584170470120704700BFF5
:1021300055AA00FF0D4B70B59E68A6B13046FFF75B
:10214000D9FF044678B9F3686BB935690DB92046F3
:1021500070BD2846FFF7CEFF28B9EB68B34202D125
:102160002E462D69F2E70124F1E700BFA4120020FA
:102170002DE9F041394D2C68D4B1AC68C4B10028C8
:1021800061D000295FD001FB00F6B6FBF0F0884279
:1021900059D1311D57D8B2070DD026F003020432B1
:1021A000EC6803E0616891424FD2A469002CF9D138
:1021B0002046BDE8F0813246F2E7891A232904F16E
:1021C0002007D4E9050C1AD80123A360A0B1C0F8F8
:1021D00018C0A36903B158610023C4E905332B6912
:1021E000DB0702D5FFF7A6FFA0BB32460021384629
:1021F0003C4602F083F8DBE7C5F80CC0E9E702F1E2
:10220000200804EB08032039C3E9011E2169DFF827
:1022100050E0DC60196144F808E0AEF1102EAEF138
:10222000EF1EC3F81CE001B1CB60C3E9050C40B15F
:102230008361996901B14B6101212361C4E90121E5
:10224000CAE7EB60F5E70024B2E7D4F808E0BEF196
:10225000000FB2D0012001F09BFF00BFA4120020AC
:1022600055AA00FFF8B5054600285DD0394E336801
:10227000002B59D0B268002A56D0834203D8726826
:102280001344984202D3012001F082FFA0F1200400
:102290002046FFF72FFF0028F5D155F8183C012BF9
:1022A000F1D155F8147C45F8180CB7B1BB68002B78
:1022B0003BD155F81C3C03F120027B6813447B6042
:1022C00055F8103C3B6103B1DF602046202200211D
:1022D00002F014F823463C461F462069002830D0FF
:1022E0008368002B2DD163684268203313446360F8
:1022F0000369D4E905212361CAB9F1B94269816949
:102300006261A161DAB19461A26902B1546103B161
:10231000DC602022002101F0F1FF33699B0703D527
:10232000FFF708FF0028AED1F8BD0746D5E7916159
:10233000A1690029E2D04A61E0E7F160F8E7F460C2
:10234000E2E7002FE9D1F368A36103B15C61F460B7
:10235000E3E700BFA412002038B50D461422002187
:102360000446124801F0CAFF1149124800F02CF847
:10237000232D1AD914F003031FBF043DED18C3F138
:102380000403E4182A460021204601F0B7FF074B5A
:10239000094AC3E900459C602260A2F11022203D59
:1023A000A2F1EF126560E261DC6038BDA41200208A
:1023B000652200007121000055AA00FF014B1B6837
:1023C000184700BF98100020024B1860024B0020F5
:1023D0001960704794100020981000200A4619B127
:1023E000024B00211B681847704700BF9C1000205B
:1023F000054B0A46197819B10146181D02F023B899
:102400006FF08800704700BFB812002010B5074C6D
:1024100000F034F8201D02F027F820460821FFF7CD
:10242000DDFFBDE8104002F00BB800BFB81200207D
:1024300070B50D4D2B788BB902F000F8044678B9D1
:102440000126281D6E7001F0FCFF044640B900F023
:102450000DF8044620B92E70204670BD0024FBE71D
:10246000FFF7D4FFF8E700BFB81200200122024BAB
:10247000002083F880257047C0120020F8B5084C72
:1024800000252646012720460135276201F0C5FFB9
:10249000202D04F12C04F6D1002386F88035F8BDF8
:1024A000C012002010B50C4C236813B10B4B1B68F5
:1024B0002BB900F093FC30B90122084B1A600123BC
:1024C0002360002010BD0138072801D9044810BD41
:1024D000044B53F8200010BD541800205018002061
:1024E000FE8FFFFFE4440000144B2DE9F043002869
:1024F00014BF04461C46124F236883B0BB4219D058
:1025000016460D4620464FF4147104F1040900F0FC
:1025100047F804F58E78484600F0CEF8404600F0C3
:1025200019FA2B464A4640460649009600F034FB0D
:1025300008B92760002003B0BDE8F08358180020D8
:10254000A5BCC95A3D27000070B50D4C1D4600289A
:1025500014BF064626460B4B306882B098420DD118
:1025600006F58E70002633460096144600F03EFBBA
:10257000002818BF34462C6002B070BD0248FBE74B
:1025800058180020A5BCC95AE88FFFFF38B131B1F7
:10259000002201440346013081421A70FAD170478B
:1025A00038B131B1002201440346013088421A702B
:1025B000FAD170472DE9F043202B1D460646884688
:1025C00091468BB026D8DBB202AF8DF80480B046BE
:1025D00058F8041B8DF8053021B9404601F026F962
:1025E000044640B9012302224046336001A901F0AC
:1025F00031F9044638B138462021FFF7D1FF204693
:102600000BB0BDE8F0832A464946404601F022F966
:102610000446F0E702AF1946104600233A4601F09F
:102620009FFA04460028E6D12023B9461D46CCE790
:102630002DE9F041D0F8F830A6B0002BD8BF02AE9B
:1026400031DD05460027D0F80C4102AEA4F10108A7
:102650009022D5F8FC403146D0F8000101AB01973B
:10266000B8FA88F8A0474FEA5818044620B9019BE9
:1026700053B9B8F1000F16D030469021FFF790FF04
:10268000204626B0BDE8F081014632462846FFF7D5
:1026900091FF58B9D5F80431019A1344C5F80431B3
:1026A000B8F1000FE8D16FF03C04E5E7044620469E
:1026B00026B0BDE8F08100BF70B5002504461422A5
:1026C00004F588762946C0F8F850FC3001F016FE73
:1026D00008222946304601F011FE144B30461B6893
:1026E0009847204640F8045B01F086F8104B3046CE
:1026F0001B689847C8B9D4F8F830AB420FDC03EB3D
:10270000830204EB82022021C2F800010120C2E909
:10271000421008490133C2F8FC10C4F8F830064BE7
:102720003046BDE870401B68184770BDBC100020E3
:10273000B8100020F5360000B41000202DE9F04755
:10274000202A88B07AD83F4B00F5887904461B6868
:1027500048461746884698470546F8B940F201169C
:10276000D4F8F830002B65D02046FFF761FF05460E
:1027700038B9D4F8F830002B14DC013EF2D16FF0F8
:102780003B056E4620213046FFF70AFF2E4B484698
:102790001B689847002818BF6FF01D05284608B031
:1027A000BDE8F087D4E94132934203D3D4F80C2139
:1027B000012A02D0013ED7D1E1E71F2BFAD96E469C
:1027C00001462022304604F1040A01F097FD31460B
:1027D000504601F069F805460028D3D1504601F073
:1027E0001FF8504601F008F82946504601F01EF83F
:1027F00005460028C6D150462022314601F02AF86D
:1028000005460028BED1034632462021304601F05D
:10281000A7F905460028B5D1D4F8F8303A46002B80
:10282000C8BF002340463146C8BFC4F8043101F098
:102830003DFDA7E76FF03F056E46A3E76FF03B0550
:10284000ACE700BFB8100020B410002070B590B005
:1028500000287AD03E4C0D464022362106462046BE
:1028600001F04CFD40225C21A01801F047FD2B1D1A
:10287000A34203D904F144039D4252D32B6822683A
:10288000534023602B68226C534023646B6862685A
:10289000534063606B68626C53406364AB68A268CA
:1028A0005340A360AB68A26C5340A364EB68E2683A
:1028B0005340E360EB68E26C5340E3642B692269A8
:1028C00053402361226D2B695340236562696B6914
:1028D000534063616B69626D53406365AB69A26984
:1028E0005340A361AB69A26D5340A365EB69E269F4
:1028F0005340E361EB69E26D5340E36500213046EC
:1029000000F094FF044628B940223046104900F0F8
:10291000A1FF044640216846FFF742FE204610B062
:1029200070BD631E04F13F01013D1F3415F8010F16
:1029300013F8012F42401A7011F8012F2878A34292
:1029400082EA00020A70F1D1D8E76FF07304E5E77C
:10295000A81A002010B54FF49A720021044601F025
:10296000CDFC42F21072044BC4F8202104F596709D
:102970001B68BDE810401847BC1000202DE9F04F3F
:1029800004468846914695B0002900F0A780002AA9
:102990000CBF0126022600238DF80C30002C00F01D
:1029A0009F80DFF844A104AF0AF1400B00212046CC
:1029B00000F03CFF034648B1384620210193FFF761
:1029C000EFFD019B184615B0BDE8F08F402251463F
:1029D000204600F03FFF03460028EDD104F1F40546
:1029E00020222946204600F035FF03460028E3D187
:1029F0000122204603A900F02DFF03460028DBD169
:102A0000022E62D020460CA900F04EFF034600289B
:102A1000D2D10146204600F009FF03460028CBD161
:102A200040225946204600F015FF03460028C3D136
:102A3000202220460CA900F00DFF03460028BBD140
:102A40003946204600F030FF03460028B4D139460D
:102A50002046FFF7FBFE03460028ADD12022294681
:102A6000204600F0F7FE03460028A5D120460CA919
:102A700000F01AFF034600289ED10146204600F0D0
:102A8000D5FE0346002897D140225946204600F043
:102A9000E1FE034600288FD1202220460CA900F039
:102AA000D9FE0346002887D12946204600F0FCFEC7
:102AB0000346002880D19DF80C200132D2B2B242E8
:102AC0008DF80C20FFF472AF76E74A464146204667
:102AD00000F0C0FE0346002894D06DE701265AE7B7
:102AE0006FF0730304AF67E7A81A00202DE9F041E7
:102AF0000446884615461F46D0F81801E0B013B1C9
:102B000000EB40004008B5F5807F3ED82844B0F582
:102B1000C07F3AD84FF4C0720021684601F0EEFB46
:102B20006946D4F82431D4F81821D4F828019847FC
:102B300070BBD4F8186157B1D4E9493072080DEB75
:102B40000601984720BBD4F8183106EB5306B8F1BC
:102B5000000F00D08DB9324669462046FFF70EFFC0
:102B6000054610B90123C4F8143131466846FFF711
:102B700017FD284660B0BDE8F0810DEB0600414628
:102B80002A462E4401F092FBE5E76FF00405F0E7DA
:102B90006FF00805EDE700BF2DE9F047044604F1AA
:102BA000F4050F4691461E46DDF8208000F024FE15
:102BB00029462046FFF74AFE08B1BDE8F0872846BF
:102BC0002022012101F09AFBD4F81831C4F82471B5
:102BD000C4F8289113B92023C4F81831424631466D
:102BE0002046BDE8F0470123FFF780BFB2F5806FB4
:102BF00000F295802DE9F04F89B09A46129BB3F50B
:102C0000807F00F29080D0F82431164604460F46AB
:102C10004BB3D0F81C31012B05D0D0F81421D0F8DB
:102C200020319A421FDD514600232046129AFFF7B9
:102C30005DFF014698B900231293002E5ED0DFF8A5
:102C4000EC9009F1400B0021204600F0EFFD202E12
:102C50003546014628BF202504F1F40890B1084606
:102C600009B0BDE8F08FBAF1000FE6D0129B002B3F
:102C7000E1D051461A462046FFF780FE0146002863
:102C8000DBD0ECE749464022204600F0E3FD014658
:102C90000028E4D141462022204600F0DBFD014619
:102CA0000028DCD16946204600F0FEFD01460028E0
:102CB000D5D1204600F0BAFD01460028CFD15946B3
:102CC0004022204600F0C6FD01460028C7D16946D3
:102CD0002022204600F0BEFD01460028BFD141461B
:102CE000204600F0E1FD01460028B8D138462A46CA
:102CF000414601F0DBFA761B2F44A4D15146204611
:102D0000129AFFF73BFE01460028A8D10846D4F8E6
:102D100014310133C4F8143109B0BDE8F08F6FF0FD
:102D20000201084670476FF0040198E7A81A0020D6
:102D3000002130B58DB0282202A8019101F0DEFA01
:102D400002A800F035FF044610B120460DB030BD9A
:102D50001B4D4FF0FF31286800F032F960BB194B72
:102D6000D3F8340E10F0010017D100F059F9F8B97A
:102D7000154A02A901A800F0AFFC0446012000F0AA
:102D80004FF988B9286800F023F90028DDD00F48F2
:102D900000F0ACF920460DB030BD2868052400F0E5
:102DA00017F90028D1D0F2E7094800F09FF9E9E7C8
:102DB000084800F09BF9DBE7074800F097F9CEE7F9
:102DC000A010002000608450281B00205C450000FB
:102DD0003C4500001C4500000445000030B583B0B0
:102DE00000F036F878B900F055F890B9144BC3F8F4
:102DF0000C0AFFF79DFF0446F8B9124D2B6863B12A
:102E0000204603B030BD032400F072F8204603B022
:102E100030BD0424204603B030BD02460146FFF712
:102E200063FB50B96822084901ABFFF78DFB20B95D
:102E30002046064B2B6003B030BD0524E0E700BF01
:102E400000508450481D00204C1D00205AEA5A5A58
:102E500000207047430504D54FF0FF32034BC3F801
:102E60000821024BC3F8080A704700BF0050845085
:102E7000014BC3F8040A70470050845008B100F0B9
:102E800071B84FF47500704708B100F04FB84FF4B7
:102E90007500704710B5114800F07EF800B110BD04
:102EA0000F4800F079F80028F9D10E4C204600F0C8
:102EB00073F80028F3D10C4B0C481C6000F06CF840
:102EC00001460028EBD100F02DF8044608B1204659
:102ED00010BD00F087F82046FAE700BFB0100020D0
:102EE000AC100020A8100020A0100020A41000208A
:102EF00008B5084800F05AF8074800F057F80748A6
:102F000000F054F8064800F051F8BDE8084000F021
:102F10000BB800BFB0100020AC100020A81000209B
:102F2000A410002000207047704700BF10B4024674
:102F30000B4C01E0134207D1D4F8003A13F480702F
:102F4000F8D0012042F4807229B1054BD3F8044136
:102F50000C60C3F80841024BC3F8082A10BC704744
:102F6000005084500246084901E01A4207D1D1F8C6
:102F7000003A13F48070F8D0012042F48072024BC2
:102F8000C3F8082A704700BF0050845001F083BA8C
:102F90000A46002101F0B2B908B5034B02681B686C
:102FA00010689847002008BDDC10002008B5034BCE
:102FB00002685B6810689847002008BDDC1000209C
:102FC000024B02689B681068184700BFDC100020A5
:102FD00008B5034B0268DB6810689847002008BDFD
:102FE000DC10002070B5094C094D2069AB6898478A
:102FF00018B1084B08485B6898470021074AEB68FE
:1030000011602069BDE87040184700BFC81000205B
:10301000DC100020C010002074450000B41D00200A
:10302000F8B51A4D1A4E0446B26828699047E8B9B7
:10303000184F3B684CB1A3B1012B19D0013B3B6049
:103040002869F36898470020F8BD43B90121124A66
:10305000C2F800151149D1F81029002AFBD101331B
:103060003B60F368286998470020F8BD0C48F8BD1C
:103070000A4AD2F81039002BFBD1074A6FF07E4084
:10308000C2F80035FFF7F4FE3B68D7E7C810002010
:10309000DC100020B41D00200040845000508450FB
:1030A000E98FFFFF014B1B68184700BFDC100020B1
:1030B000014B9B68184700BFDC100020014BDB6808
:1030C000184700BFDC100020BFF34F8F0549064BA7
:1030D000CA6802F4E0621343CB60BFF34F8F00BFB6
:1030E000FDE700BF00ED00E00400FA0530B44FF04A
:1030F000FE3200250B4B0C4C0C494968C3F80024E8
:10310000C3F80424C3F80824C3F80C24C3F810241B
:10311000C3F81424C3F81824C3F81C24C4F80055B9
:1031200030BC08470050845000408450C01000203C
:1031300010B5044650B1636813F0685F05D0064AC5
:10314000934202D000236260236010BD034B044809
:103150005B689847EFE700BF2C5F5CA9C0100020B8
:1031600094450000C8B143680D4A934213D013F050
:10317000685F0ED0012350E8002F194640E8001C7C
:103180009CF0000FF7D1012AF5D0BFF35F8F00202C
:10319000704704487047044870476FF4E040704738
:1031A0002C5F5CA9E98FFFFFEA8FFFFF034680B128
:1031B000426809498A420AD012F0685F05D0BFF31D
:1031C0005F8F002210461A60704704487047044819
:1031D00070476FF4E04070472C5F5CA9E98FFFFFF8
:1031E000EA8FFFFF10B5044620B10023034A236095
:1031F000626010BD0248FFF779FFF6E73A00003A37
:10320000BC4500002DE9F041002873D00C46002990
:1032100070D01D46002B6DD007461AB10122002345
:103220002A6003602B68002B5FD02946204600F0FF
:1032300079FD804600285AD12146286800F058FDC3
:103240008046002853D12868082867D0042867D012
:10325000A0F10200B0FA80F040090121314EC6F819
:10326000C411C6F84011C6F8C411636AC6F83031FB
:10327000D6F830219342F6D10023C6F82C314FF016
:10328000FF33C6F808316FF01B03C6F80031C6F8EB
:103290000C01D6F8040A40F48060FFF7E9FD0A2328
:1032A000C6F83831069B012B29D023691E4AA2FBA0
:1032B00003231B09626A404602FB03F303EB43034B
:1032C000184ADB039B09C2F8D8310123C2F82C311C
:1032D0003B682A6823F07F4343EA02633B602A6825
:1032E00043EA02233B60BDE8F081DFF840804046BE
:1032F000BDE8F081DFF838804046BDE8F0814FF44A
:103300007F03D3F80C2C013206D0D3F80C3C064ACC
:10331000A2FB03231B09CDE71623CBE703209CE781
:1033200002209AE700508450ABAAAAAA310CF100FF
:10333000350CF10058B34B1EB3F5047F27D230B5DE
:103340004FF0000ECD00744671464B0901F01F0C82
:1033500050F82330BCF11F0F23FA0CF306D003F012
:10336000010319B901211C468E46EEE79C4201F18A
:10337000010106D01C464FF0010EA942E5D1002004
:1033800030BD0EF1010E9645F7D1024830BD01481F
:10339000704700BF360CF100C0B32DE9F0434C1E5E
:1033A000B4F5047F1DD2E3B1DAB100252E46A8465C
:1033B0002C46CF0003F1FF394FEA541C04F01F0ED6
:1033C00050F82C10BEF11F0F21FA0EFC0CD00CF09F
:1033D000010C4CB90126E04634463546ECE79642EE
:1033E00016D90C48BDE8F083AB420BD0C44508BFEA
:1033F0000136A945F3D001350134BC42DCD10020AF
:10340000BDE8F0830125E0462E46F5E70148704708
:103410001D46F1E7370CF1002DE9F04F8FB08246E1
:10342000DDE919460D46002E6ED1096904911C6034
:10343000002318990B60002A00F02881994B6A6AD2
:10344000D3F83811D3F830319A4269D10A2967D1BB
:103450009AF80330069304F1080305930423049AB1
:103460000393914B8F4CA3FB023B4FEA9B0B0BEB5F
:103470004B0BA2EB4B0B189B049E1E60002E00F022
:10348000E580002700F05EFC0797BAF1000F00F01E
:10349000D0804FF00109DDF81480002D00F0C980C4
:1034A000069B002B3ED0284606A900F03BFC0028D6
:1034B0003AD07E4B984220D0069B082B00F0E0804B
:1034C00000225B000693294606AB50460092FFF7A8
:1034D00099FE774B984200F0CF8070B9DAF800205F
:1034E000130A03F47F03134323F07F43CAF8003029
:1034F000039B013B0393BED10020039000F022FC0C
:1035000003980FB0BDE8F08F4FF47F01D1F80C0C99
:1035100001300CBF4FF40471D1F80C1C049186E704
:103520006448EAE76248C4E72946069800F0E0FBF1
:103530000028BED1069B082B00F0A480042B00F0CD
:10354000A380A3F10203B3FA83F35B09C4F8C49127
:10355000C4F84091C4F8C4916A6AC4F83021D4F820
:1035600030118A42F6D10022C4F82C214FF0FF32EC
:10357000C4F808216FF01B02C4F80021C4F80C3114
:10358000D4F8040A40F48060FFF772FC0A23C4F800
:1035900038312B69444AA2FB0313696A1B0901FBFA
:1035A00003F303EB4303DB039B09C4F8D831C4F8EE
:1035B0002C910698DAF8003023F07F41030243EAA9
:1035C00000630B43CAF8003007A800F081FB079B9B
:1035D000354A03F01A0303437FF46EAFA2FB0632B1
:1035E000D4F81431B7EB920F0893D4F8183109933B
:1035F000D4F81C310A93D4F820310B93D4F8243139
:103600000C93D4F828310D9302D1BBF1000F12D1E5
:103610004046182208A9183EFFF7B8FC08F1180820
:1036200001379EB100F08EFB00230793002D7FF43D
:1036300037AF21483DE740465A4608A9A6EB0B069E
:10364000FFF7A4FCD8440137002EEBD1049F059E60
:103650006A6939463046FFF76DFEAA6940B94FF4F2
:10366000806339463046FFF797FE00283FF444AFA9
:103670000023189A13601CE72B6A002B3FF43DAF20
:103680000E483AE7032361E702235FE70122294658
:103690005046009606ABFFF7B5FD00283FF4DBAEC1
:1036A0002BE700BF00508450ABAAAAAA020CF1007D
:1036B000310CF100300CF100350CF100320CF1004E
:1036C00010B4DDE9013401940024DDF80CC0CDE92B
:1036D00002C410BCFFF7A0BE30B51546012487B068
:1036E00005AB00930022CDE9015404ABFFF794FE33
:1036F00007B030BDF0B587B0002967D01E46002B5B
:1037000064D01446002A61D0324F0D4638684FF01D
:10371000FF31FFF755FC00283DD12F4BD3F8340E75
:1037200010F0010015D04FF0FF354FF408712B4811
:10373000FEF72CFF04212A48FEF728FF29482821FC
:10374000FEF724FF3868FFF743FC40BB284607B06C
:10375000F0BDFFF765FC002834D1224800F028FABC
:1037600070B91E4A0346029205AA019204AA039068
:1037700000921C4902461A48FFF7A2FF0346A0B177
:103780004FF0FF350120FFF74BFC0028CDD0164845
:10379000FFF7ACFCC9E71548FFF7A8FCBDE71448E4
:1037A000FFF7A4FC284607B0F0BD28461D46059B40
:1037B00022469C4228BF1A46049932600831FFF71E
:1037C000E5FBDFE70B48FFF791FCC6E74FF0FF355D
:1037D000BCE700BFA010002000608450F41D002052
:1037E000C81D0020CC1D00203C4500000445000001
:1037F000E04500001C45000010B5044628B12046F5
:10380000BDE81040F421FFF7C3BB0448FFF76EFC8E
:103810002046BDE81040F421FFF7BABBF845000090
:1038200010B1F421FEF7B2BE704700BF08B521B158
:10383000012908D06FF0360008BD012100F058F8CA
:103840000028F7D108BD022100F052F80028F9D075
:10385000F0E700BF30B505468818B0F5801F0B466D
:103860001446A1B001D8802A0CD9B3F5801F17D90E
:1038700022461946284600F07DF8044684B92046C1
:1038800021B030BD6846FFF781FB224669462846D5
:1038900000F070F8802104466846FFF779FBEDE7F9
:1038A0006FF03604EBE700BF70B5E8B10E46D9B152
:1038B000044600F031F80546B0B92368012B0BD05F
:1038C000022B01D0284670BD1C22304604F10801AD
:1038D000FFF75CFB284670BD2022304604F108014A
:1038E000FFF754FB284670BD6FF03605EAE700BFCE
:1038F00078B138B50D46F0210446FFF749FB402367
:1039000020462560E36500F061FA003818BF012009
:1039100038BD0120704700BFF0B5056EA5B0044664
:1039200004AEE5B9002301270193304667602946BC
:1039300002AA009300F018FA10B1012025B0F0BDE2
:103940002A46204602A900F069FA0028F5D120464F
:1039500000F06CFB0028F0D1206625B0F0BD802D72
:103960002A46304628BF802204F16401FFF70EFB8F
:10397000256ED7E7002800F0AE802DE9F04F144601
:10398000A5B0002A3DD00F46002949D0B2F5803FAE
:103990000546006E20D34FF6FF7805F1640AEB6D03
:1039A0001A1AB2FBF3F103FB1122002A65D18342FC
:1039B000B9464FF6FF7672D0B6FBF3FB03FB0BFB69
:1039C000BBF1000F30D1002E45D1A4F57F44FF3C60
:1039D000B4F5803F4744E2D2EA6D161AB6FBF2F323
:1039E00002FB1366A64228BF2646002E75D18242EE
:1039F00000F08D80B4FBF2F602FB06F62EB9002C27
:103A000079D1002025B0BDE8F08F0023314638463B
:103A1000CDE9003302AA00F0A7F9002800F0958054
:103A2000012025B0BDE8F08F002359464846CDE976
:103A3000003302AA00F098F90028F1D15A4628462E
:103A400002A900F0EBF90028EAD1A6EB0B06286EDC
:103A5000D944002EB9D019304946324605EB8000D2
:103A6000FFF794FAA4F57F44286EFF3C3044B4F588
:103A7000803F4744286692D2AEE7424528BF42467F
:103A8000164639465044FFF781FA286EEB6D3044F4
:103A9000834207EB06092866A8EB06068CD1802B2B
:103AA00028BF802351461A4604A8FFF76FFA002367
:103AB000E96D02AACDE9003304A800F055F9002809
:103AC000AED12846EA6D02A900F0A8F90028A7D1D6
:103AD000EB6D286670E70120704705F164033946F5
:103AE00032461844FFF752FA286EEA6D3044A41BA0
:103AF000374428667BE72B6E2246193305EB83009B
:103B00003946FFF743FA2B6E23442B6679E7802A68
:103B100028BF802205F1640104A8FFF737FA0023CB
:103B2000E96D04A8CDE9003302AA00F01DF90028D0
:103B30007FF476AF2846EA6D02A900F06FF90028FD
:103B40007FF46EAFEA6D286654E73246284602A934
:103B500000F064F900287FF463AF3744A41B4EE7FC
:103B6000F8B51C460546114816460F46FFF744FEB9
:103B700021460E48FFF75AFE044620B10B48FFF7D6
:103B80004FFE2046F8BD3A4629460848FFF762FE38
:103B900004460028F2D131460448FFF785FE04466A
:103BA0000248FFF73DFE2046F8BD00BF142000206C
:103BB0001C2370B582B001A90546019300F032F8CC
:103BC000044638B9019B1C2B07D0144C1C212846F5
:103BD000FFF7DEF9204602B070BDD5E90112131ED1
:103BE00018BF0123003918BF0121012628689B0056
:103BF000EA6843EA4103002818BF43F00103EE617D
:103C00002AB9C5E90834002BE4D1054CDEE720468B
:103C100043F00803C5E9083402B070BD370CF0006A
:103C20000E0CF000034618B111B10A681C2A01D02D
:103C3000012070474FF47F02D2F8101C01310CBFF5
:103C400040F2DC51D2F8101C4FF47F020160D2F830
:103C5000141C01310CBF40F2DC51D2F8141C4FF49B
:103C60007F024160D2F8181C01310CBF40F63401CC
:103C7000D2F8181C4FF47F028160D2F81C1C01316D
:103C80000CBF40F63401D2F81C1C4FF47F02C16017
:103C9000D2F8001C01310CBF9021D2F8001C4FF467
:103CA0007F020161D2F8041C01310CBF5121D2F80E
:103CB000041C4FF47F024161D2F8081C002001313E
:103CC0000CBF40F23732D2F8082C9A61704700BF1F
:103CD000014608B54FF48060FFF7D6F80022034B89
:103CE000C3F8C821C3F82C2108BD00BF0050845080
:103CF0000138072805D8DFE800F0100E040A040494
:103D0000040607487047CB6800204B6270478B68F9
:103D100000204B6270474B68F6E70B68F4E700BF82
:103D2000310CF1000B6802E0082B0B6006D8026A28
:103D300013424FEA4303F7D0002070470048704712
:103D4000310CF100002310B5064C4FF48060C4F82C
:103D50002C31C4F8C431FFF77DF84FF0FF33C4F8BD
:103D6000083110BD005084502DE9F041002482B08C
:103D700015461E4601220DF107030746DDF8248093
:103D80008DF8074000F08CF9D0B99DF80730044653
:103D90002F602B71B8F1000F0ED04EB1024608997A
:103DA00030460DF1070300F07BF948B99DF8073064
:103DB000C8F8006088F80430204602B0BDE8F08101
:103DC0004FF47504204602B0BDE8F081D8B108B5C3
:103DD0000368012B04D0022B0FD043B10B4808BD60
:103DE00020220B490830FFF7D1F8002008BD14222B
:103DF00008490830FFF7CAF8F7E7202206490830DB
:103E0000FFF7C4F8F1E74FF4730070470100F300C7
:103E10000846000048460000284600002DE9F0470B
:103E2000002900F0EB800446002800F0EB800368D6
:103E300088469146002B00F0B580013B012B00F233
:103E4000C9804FF0FF3171484FF0020AFFF7B8F810
:103E5000002840F0B1800020FFF7E2F80746002874
:103E600040F0B4806A4DD5F81069002EFBD14FF0B8
:103E7000FF30FEF7EFFFD5F8040A20F40060FEF7EC
:103E8000F7FF01230722C5F81838C5F82038C5F810
:103E90000029C5F8C437C5F8A466A36CC5F8CC37AB
:103EA000E36CC5F8D037C5F8C0A723685BB1013B08
:103EB000012B18D8636AC5F85C36236AC5F85836F2
:103EC000E369C5F85436A269514BC3F850266269BC
:103ED000C3F84C262269C3F84826E268C3F8442692
:103EE000A268C3F84026B9F1000F56D063684FF4BA
:103EF0000060012B04BF464AC2F8843698F80430AB
:103F0000D8F80010424A5B0003F00203C2F80C3BF1
:103F1000C2F8281CC2F82C9CFEF7B0FF07462368A5
:103F200063B1013B012B19D8394BD3F85C2662628F
:103F3000D3F858262262D3F85436E361344BD3F8D1
:103F40005026A261D3F84C266261D3F8482622613C
:103F5000D3F84426E260D3F84036A3600022012162
:103F60002B4BD3F8CC07A064D3F8D007E064C3F898
:103F7000C417C3F88426C3F8C827C3F81828C3F8A1
:103F80002028AFBB0120FFF74BF868BB1F48FFF7A5
:103F90001FF818BB3846BDE8F08704221C4BC3F855
:103FA000C827BCE74FF0FF3118484FF0010AFFF770
:103FB00007F800283FF44FAF1648FFF797F80020A6
:103FC000FFF72EF8074600283FF44CAF1248FFF7E2
:103FD0008DF847E7114F3846BDE8F0871048FFF7E6
:103FE00085F83846BDE8F0870E48FFF77FF8CDE743
:103FF000102104F10800FEF7CBFFC3E70A4F384653
:10400000BDE8F0874FF47307C4E700BFB01000208D
:1040100000508450044500001C4500000100F300DE
:104020005C4500003C4500000300F300A0B30346DC
:1040300070B4D0E90240D3E9041226BA05BA0CBA2A
:1040400010BAC3E90440D3E90612986A09BAC3E971
:10405000026512BA996100BAD3E9084125BA0CBACF
:10406000C3E90725D3E90B12C3E9094009BAD86BA4
:1040700012BAD962D3E90D4125BAC3E90C250CBAAD
:1040800000BAD3E9101209BA12BAC3E90E40196492
:1040900000205A6470BC70474FF47300704700BF33
:1040A00000201870704700BFC3438B426DD332F0BD
:1040B0001F036AD1013902F01403014410B481EAEC
:1040C0000004142B0ED8DFE803F03F0D0D0D480D52
:1040D0000D0D0D0D0D0D0D0D0D0D510D0D0D1000D6
:1040E000DC0200D4002010BC70471F2C40E8C0F355
:1040F00005D91C4641E8C0F10B469C42F2D122F0A2
:104100001402013A0A2AEDD801A151F822F000BFA9
:1041100043410000854100003D410000E5400000B2
:10412000E5400000E5400000E54000007F41000060
:1041300043410000E14000003D4100009B02D2D419
:10414000D0E71A03CFD4CDE71F2C40E800F3D6D92F
:104150001C4641E800F10B46CFE71F2C40E840F336
:10416000CDD91C4641E840F10B46C6E71F2C40E87C
:1041700080F3C4D91C4641E880F10B46BDE75B03E0
:10418000B0D5B0E75902AED5ACE70020704700BF0C
:1041900008B5074B044613B1002100E000BF054BF2
:1041A0001868836A03B19847204600F029F800BFD9
:1041B000000000005C46000070B50D4D00260D4C5F
:1041C000641BA410A64209D10B4D00260B4C00F035
:1041D0007DF9641BA410A64205D170BD55F8043BBF
:1041E00001369847EEE755F8043B01369847F2E769
:1041F0006C1100206C1100206C1100207011002047
:10420000FEE700BF002383F300887047FDF746BC3C
:10421000EFF30880EFF309812DE9F00F6B4672464A
:10422000FCF772FB08B0FFF7F1FFFEE7FDF736BCC5
:10423000EFF30880EFF309812DE9F00F6B4672462A
:10424000FCF762FB08B0FFF7F1FFFEE7FDF726BCC5
:10425000EFF30880EFF309812DE9F00F6B4672460A
:10426000FCF752FB08B0FFF7F1FFFEE7FDF716BCC5
:10427000EFF30880EFF309812DE9F00F6B467246EA
:10428000FCF742FB08B0FFF7F1FFFEE7FDF706BCC5
:10429000EFF30880EFF309812DE9F00F6B467246CA
:1042A000FCF732FB08B0FFF7F1FFFEE7F0B504467C
:1042B0009AB141EA040313F003030FD11D465619C6
:1042C000032E11D86FF00305960805FB062204EBB8
:1042D000860401EB86019A420CD1F0BD11F8013B36
:1042E000013A04F8013BE3E74E1B3768661B376071
:1042F000043DE4E7CD5CE5540133ECE70346F0B55B
:10430000AAB113F0030513D116460C0444EA016464
:104310000C4344EA0124D718032E0DD86FF0030490
:10432000960804FB062203EB860395420AD1F0BDF2
:1043300003F8011B013AE3E7A7EB060CCCF80040B9
:10434000043EE9E7E9540135EFE708B5EFF30583EB
:10435000C3F308030BB1FDF7A1FBBDE80840FDF76F
:1043600025BC10B50446EFF30583C3F308030BB176
:10437000FDF794FB2046BDE81040FDF71ABC2DE97F
:10438000F04104460D4616461F46EFF30583C3F37E
:1043900008030BB1FDF782FB3B4632462946204617
:1043A000BDE8F041FCF788BE2DE9F04104460D461A
:1043B00016461F46EFF30583C3F308030BB1FDF761
:1043C0006DFB3B46324629462046BDE8F041FCF7EE
:1043D000ADBE08B5EFF30583C3F308030BB1FDF7DA
:1043E0005DFBBDE80840FDF7B4BB00207047704797
:1043F00010B5044608B1FDF7F1FF2046BDE81040B6
:10440000FDF7DCBF10B50446406A10B1A16AFFF7A2
:10441000EFFF0020C4E9090010BD38B50446FFF7DE
:10442000F1FF236A2C22012B0CBF05466FF0960585
:1044300000212046FFF762FF284638BD0020704764
:1044400070470020704713B5002001AB1446FEF7FB
:104450007BF830B9019BA34218BF6FF0930002B004
:1044600010BD6FF09200FAE7002070472DE9E04F91
:104470002746A046A146A246A346A446A2B02DECDC
:10448000000A84F3008825462646A4473DEC000A2E
:1044900022B0BDE8E08F884210B501EB020402D9DA
:1044A0008442234607D8431EA14208D011F8012BAD
:1044B00003F8012FF8E7024401468A4200D110BDFB
:1044C00013F8014D02F8014DF7E70000F8B500BF01
:1044D000F8BC08BC9E467047F8B500BFF8BC08BCE5
:1044E0009E467047FF8FFFFFFF8FFFFFFE8FFFFF8E
:1044F000FE8FFFFFFD8FFFFFFC8FFFFFFC8FFFFF95
:10450000FB8FFFFF4661696C20746F2061637175DA
:10451000697265206D757465780A00004661696C82
:1045200020746F20696E63726561736520504D2041
:10453000636F756E7465720A000000004661696CF5
:1045400020746F20646563726561736520504D202F
:10455000636F756E7465720A000000004661696CD5
:1045600020746F2072656C65617365206D7574656C
:10457000780A0000436F756C64206E6F74206C6F56
:10458000636B20706F7765722073617665206D753F
:10459000746578006D757465785F66726565206313
:1045A000616C6C65642077697468204E554C4C20B2
:1045B000706172616D6574657200000043616E2701
:1045C0007420696E697469616C697A65206D7574AF
:1045D00065782C20776173204E554C4C0D0A0000F5
:1045E0004661696C20746F20756E6C6F636B206D13
:1045F000757465780A0000000A6374782069732076
:104600004E554C4C0A00000067E6096A85AE67BB50
:1046100072F36E3C3AF54FA57F520E518C68059BA4
:10462000ABD9831F19CDE05BD89E05C107D57C3679
:1046300017DD703039590EF7310BC0FF111558686E
:10464000A78FF964A44FFABE0123456789ABCDEF6C
:10465000FEDCBA9876543210F0E1D2C30C1100207F
:1046600054464D5F43525950544F0054464D5F508D
:104670004C4154464F524D5F5345525649434500B5
:10468000000000000000000000000000000000002A
:10469000000000000000000000000000000000001A
:107C00007FE97FE9FAF7ACB97FE97FE9FAF7B7B91D
:107C10007FE97FE9FAF7DFB97FE97FE9FAF7D2B9BF
:107C20007FE97FE9FAF7BAB9000000000000000020
:107C30000000000000000000000000000000000044
:107C40007AFFFFFF90ED00E0540100007411002066
:107C5000E0110020EB430000EF430000FD42000074
:107C6000A8100020D8100020D0100020CC10002038
:107C7000C8100020BD300000B1300000A530000069
:107C800000000000C930000004110020FC1000209A
:107C9000F410002000000000EC100020E53100008E
:107CA0003131000065310000AD310000B81D002009
:107CB0003A00003ABC1D00203A00003AC01D0020E6
:107CC0003A00003AC41D00203A00003A00000000CB
:107CD00000000000000000000000000000000000A4
:107CE0000000000000000000000000000000000094
:107CF0000000000000000000000000000000000084
:107D00000000000000000000000000000000000073
:107D10000000000000000000000000000000000063
:107D20000000000000000000000000001120000022
:047D3000ED1F000043
:10800000B8920020B1AC0000D10401009DAC00008A
:108010009DAC00009DAC00009DAC00009DAC00003C
:1080200000000000000000000000000039AE000069
:108030009DAC000000000000D9AD00009DAC000028
:1080400015B0000015B0000015B0000015B000001C
:1080500015B0000015B0000015B0000015B000000C
:1080600015B0000015B0000015B0000015B00000FC
:1080700015B0000015B0000015B0000015B00000EC
:1080800015B0000015B0000015B0000015B00000DC
:1080900015B0000015B0000015B0000015B00000CC
:1080A00015B0000015B0000015B0000015B00000BC
:1080B00015B0000015B0000015B0000015B00000AC
:1080C00015B0000015B0000015B0000015B000009C
:1080D00015B0000015B0000015B0000015B000008C
:1080E00015B0000015B0000015B0000015B000007C
:1080F00015B0000015B0000015B0000015B000006C
:1081000015B0000015B0000015B0000015B000005B
:1081100015B0000015B0000015B0000015B000004B
:1081200015B0000015B0000015B0000015B000003B
:1081300015B0000015B0000015B0000015B000002B
:1081400015B0000015B0000015B0000015B000001B
:1081500015B0000053B94AB9002908BF00281CBF58
:108160004FF0FF314FF0FF3000F070B9ADF1080C67
:108170006DE904CE00F006F8DDF804E0DDE9022345
:1081800004B070472DE9F047089E0D4604468A4624
:10819000002B7FD18A42174641D9B2FA82F24AB106
:1081A000C2F1200105FA02F39740944020FA01F150
:1081B00041EA030A4FEA17484FEA144C1FFA87F9BD
:1081C000BAFBF8FE08FB1EA30EFB09F14CEA0343C1
:1081D000994206D9FB1802D2994200F224810EF18D
:1081E000FF3E591AA3B2B1FBF8F008FB101100FBD7
:1081F00009F943EA0144A14505D93C1902D2A14538
:1082000000F20E810138A4EB090440EA0E4000217F
:108210001EB1D4400023C6E90043BDE8F08702B98F
:10822000FFDEB2FA82F2002A4FD1CB1B4FEA174E83
:108230001FFA87F80121250CB3FBFEFC0EFB1C3056
:108240002B4608FB0CF945EA0045A9450AD97D19DA
:108250002CBF01230023A94502D9002B00F0D980AF
:108260000CF1FF3CA5EB0905A3B2B5FBFEF00EFB3C
:10827000105508FB00F843EA0544A04505D93C1910
:1082800002D2A04500F2C9800138A4EB080440EAFC
:108290000C40BDE78B4208D9002E00F0B1800021D0
:1082A000C6E900050846BDE8F087B3FA83F1002966
:1082B00046D1AB42C0F0A780824240F2A48008467B
:1082C000002EAAD0C6E9004AA7E7C2F120009740D5
:1082D00001FA02F34FEA174EC14024FA00F51FFAE3
:1082E00087F894401D43B1FBFEF02B0C0EFB1011E0
:1082F00000FB08FC43EA01439C4509D9FB182CBF4D
:10830000012100219C4502D9002900F09580013807
:10831000A3EB0C03ADB2B3FBFEF10EFB113301FB7B
:1083200008FC45EA0345AC4505D97D1902D2AC45A8
:1083300000F289800139A5EB0C0341EA00417AE79C
:10834000C1F120048B4002FA01F705FA01FCE2407A
:1083500020FA04F8E54000FA01FE134348EA0C0253
:108360004FEA13484FEA124C1FFA83F9B5FBF8FAAB
:1083700008FB1A550AFB09F04CEA054C60450AD97E
:1083800013EB0C0C2CBF01250025604501D9002DF5
:1083900055D00AF1FF3AACEB000C92B2BCFBF8F0FE
:1083A00008FB10CC00FB09F942EA0C4CE14505D969
:1083B00013EB0C0C01D2E1453BD8013840EA0A40EE
:1083C000ACEB090CA0FB0789CC4545464A4602D3D5
:1083D00006D1C64504D20138B8EB070569EB0302A4
:1083E0002EB3BEEB05036CEB020C23FA01F20CFA80
:1083F00004F42CFA01F300211443C6E900430CE70E
:108400003146304609E7841A65EB030301209A469A
:1084100056E7ACF1020C3D4424E702383C4434E713
:1084200002383C44EFE6AEF1020E3B44D9E6314659
:10843000F3E602389C44C1E702383B4468E7AAF1FE
:10844000020A9C44A7E702393D4474E7704700BF25
:1084500038B5164C204608F082FC0546E8B1226982
:10846000A1681368204623F0400313600B684FF4A3
:1084700020220621984703210D4A0E4807F0A3FF4A
:10848000254600F093F8A368402128465B69984789
:108490000021212006F0DAFFF3E701210346064A16
:1084A000044807F099FF284638BD00BF1C110100A1
:1084B00031170100A813010008170100F0B50746A5
:1084C0000E4615468BB01B4806F06EF9044602694D
:1084D0008168136843F0007313600B68164A192112
:1084E00098470021204607F02EFA07F028FA0DF1F0
:1084F00007030293022302AA1049CDE9042306AA26
:10850000CDE90665CDE9082351F8040B8DF8077015
:108510000393836804AA1D6808ABA847002806DBFC
:108520000121204607F00FFA07F009FA00200BB0EE
:10853000F0BD00BF7D170100010006000080002093
:1085400010B586B001AB029302238DF805100A49DD
:1085500002AA8DF80400CDE9042351F8040B03931B
:10856000836804AA1C680023A047002802DB07F0E8
:10857000E6F9002006B010BD0080002007B50A4BC8
:1085800018788DF8040007F0F8F901A807F0F9F958
:108590004FF0010007F004FA4FF0000007F016FA60
:1085A00003B05DF804FB00BF2014010013B50024E4
:1085B000FFF7E4FF68460094ADF8044007F00AFABC
:1085C000114807F086FA00214FF4004006F03EFF04
:1085D000BDF800100D4807F07CFABDF802100C48F9
:1085E00007F077FABDF804100A4807F072FABDF8F0
:1085F0000430BDF80220BDF80010074807F069FA02
:10860000204602B010BD00BF841701009217010080
:10861000A0170100AE170100BC1701002DE9F04FB3
:108620000E4693B0194602F004030293C2F3C2034C
:108630000133079383070546DDF870A0059240F0EB
:108640009381041D002840F0928106F00706341D36
:10865000C6F1080600274B1E4FF0FF304FF004080C
:108660000493B9463B4606970390CDF8048005B1C4
:1086700021600798002807DC89488142C0F0B0805B
:108680008848814280F0AC80059810F0020E00F01E
:10869000C6804FF0010C601BBEF1000F00F0A680F9
:1086A000B0F5007FC0F0A2806FF015005BE02038CD
:1086B0005A2835D8DFE800F0653434653431343475
:1086C000343476653465653465656565656565650D
:1086D00065653434343434343447343434474747AC
:1086E0003434343465343434343434343434343419
:1086F00036343434343434343447343636474747E8
:108700006536613465342E362E34348C7336343409
:10871000363473000020002310E0039B013B0393D9
:1087200000232EE0049B13F8013C6C2B52D1002057
:10873000049B13F8023C6C2B03464ED04FF0040808
:10874000CDF804802FE00AF1070A2AF00703073466
:1087500003F1080A24F0070065B10EEB0004B442EF
:1087600004D96FF01B0013B0BDE8F08FD3E90034DB
:10877000C0E90034002300F108044FF00808CDF8E8
:108780000480049A12F8010F049200287ED0002B76
:108790008DD12528F5D1039B0133039301234FF09D
:1087A0000408ECE70020013C4444B4FBF8F408FB67
:1087B00004F42DB1019AA2EB050CA444B445D0D821
:1087C000002846D00799013907915AF8041B4EE753
:1087D0001846A0E700200346E5E74FF00808AFE79A
:1087E00005984FF0000C00F0020E54E7B9F10F0F9E
:1087F0003FF65AAFDDB1C0F3870B12A800EB090EAC
:1088000003980EF820BC0EF8100CBCF1000F0AD033
:108810006BF07F000EF8200C013709F101090434D8
:10882000C5F1080EADE7069801300690F5E7BCF1FA
:10883000000F01D00136F0E7029802360028ECD193
:1088400008460993089107F07AFEDDE9081306440B
:10885000E3E70198042808D10AF1040C15B1DAF80D
:1088600000002060E24604348BE7019808287FF47A
:108870001BAF0AF1070A2AF0070000F1080A1DB130
:10888000D0E900BCC4E900BC08347AE7631BB3F547
:10889000806FBFF409AF3DB9A6F10804E01862E7A4
:1088A0007C10010090240100029A9B0828602B7024
:1088B0009DF8183082B16870EB70AF702FB1002254
:1088C0000AA8C5F1010C914509D14FF00008C5F186
:1088D000010A0DF1380B34E06B70029BECE710F8E5
:1088E000013B13F0800F08D004EB0C0EB64503F0EB
:1088F0007F033FF636AF04F8013B0132E3E727B1CF
:108900000AAB13F90830002B19DB029BEBB10022F4
:1089100018F80B3004F8013B0AEB02032344B3427E
:108920003FF61FAF0AAB13F80830039204F8013B7F
:108930002046019107F016FE039A0199144408F1AC
:108940000108C145DBD1601B0DE70AAB13F8083005
:10895000029A55F8231045F823200846019107F0A4
:10896000EEFD0199421CD7E76FF00D00FBE6072EE4
:108970003FF670AEF5E600BF2DE9F04F97B000AFBF
:10898000D7F880B0C7E90A32CBF3C0030446894662
:108990007B6249B903784678807800EB83002044F5
:1089A0004E4519D8A0EB0409A578BD61EDB10BF0D7
:1089B0000103E2783A6212B11BF0020F17D1B3B98A
:1089C000FB6A1BB149462046BA6A98474E46304674
:1089D0005C37BD46BDE8F08F451C284607F0AFFD6B
:1089E0000130284409F10109DAE72B46E1E794F860
:1089F00000A04FEA8A023A61626804EB8A0A7A614F
:108A0000FA6A002A40F089804E46002B5DD0D1469C
:108A100090460AEB050399453FD1AA441BF0050F88
:108A20000CBF022301230025FB623B6A9D42CED28C
:108A30009AF80130B84A54F823300AF1020A9342F6
:108A4000C0F07481B54A93427A6A2CBF4FF0000996
:108A50004FF00109002A41D01AF8021C7869BB6264
:108A600007F005F8BB6A002838D0E9468AB06A46A4
:108A7000AB4B53617B69C2E906314FF40073138439
:108A8000A84B42F8103F00234FF41251A64801F0C2
:108A9000A5FBCD46023E0135C7E719F8012BFB6265
:108AA00054F8220007F04BFDD7F88420FB6A013010
:108AB0004AB1D7F8882090453EBFD7F8842022F8E5
:108AC000180008F101080644A5E72DB11BF00408C1
:108AD000A4D09846AA44A1E7A8469FE7B9F1000FA1
:108AE00005D01BF0010F05D1FB6AF61AD3E71BF086
:108AF000020FD0D0184607F022FDD7F8843053B1CA
:108B0000D7F8883098453FBFD7F88420431C22F817
:108B1000183008F101080644BDE7002B40F0ED8055
:108B200025B11BF0040F40F0F1801D46A846BB693B
:108B30000AEB03020023961C396A8B4256D34B0082
:108B4000FB6123781BF0020F3B62637802EB410A62
:108B500018BF002105EB030208BFC8F347011BF053
:108B6000010FD2B240F095801BF0040F14BF4046B5
:108B700000207B61E378A6787B626270A070E17070
:108B80002046BA6A3969FB6A9847B0F1000BC0F217
:108B9000B0803B6AA67023707B69414663707B6A34
:108BA000BA6AE37007F14800FB6A9847061EFFF6B1
:108BB0000EAFFA693B69504613441946BB69BA6A5D
:108BC0001944A9EB0101FB6A9847031EC0F2938088
:108BD0004FF000095E441E4407F1380AA9455AD3F4
:108BE0000021BA6A0846FB6A9847F0E616F8021CAC
:108BF00016F8010CF960F861474954F820008842E2
:108C000003D346498842C0F09880796A49B34FF04F
:108C1000000AF9687869C7E9012306F028FFD7E957
:108C20000123D8B9BAF1000F1BD01BF0010F08D0F7
:108C300007F15800691C0544F86905F8200CCDB20D
:108C40000CE01BF0040F09D007F1580008F10101F6
:108C50008044F86908F8100C5FFA81F80133023695
:108C60006AE71BF0020FE3D107F1580101EB080C92
:108C7000F96808F101000CF8101C07F1580151FACD
:108C800080F0F96908F102085FFA88F800F8101C12
:108C9000E4E700206DE719F80A3054F823B087F8AC
:108CA0003730D7F88430FBB133F819800121BA6A24
:108CB000FB6A07F137009847002818DB0644B8F133
:108CC000000F06D1584607F03AFC00F101081FFAE0
:108CD00088F841465846BA6AFB6A9847002806DB7E
:108CE000064409F1010979E7D7F88480DEE70646F2
:108CF0006DE65E466BE61E4669E64FF0000807F13A
:108D000038005146BA6907F02DFC10E7A84607F174
:108D100048001D46F5E700BF7C10010090240100CB
:108D2000C717010004000001B01301007A6A002A8D
:108D30003FF4DDAE4FF000098EE6796A00293FF47A
:108D400074AFD7F824A064E7014B1860704700BFE8
:108D50001880002030B5002587B0CDE90301044616
:108D6000009503A90548059500F0F0F8DDE9043009
:108D70009842B8BF255407B030BD00BFADFA00001F
:108D80002DE9F84FB0F81890044619F008089346FA
:108D90000DD001290CBF49F0100949F02009A0F8B5
:108DA00018908BF31188BFF36F8FBDE8F88F09F02F
:108DB0000709022907D1204606F0AFFE0028F0D0AF
:108DC0000128238B50D16769218B002F15DA256884
:108DD00021F00701C4E9008841F001012183002648
:108DE000218B01F0070ACA4502D0A368002B5CD191
:108DF0000DB9002E74D0002358E001F007035A1F6C
:108E0000012A20D821F00701062B256889B2C4E980
:108E100000880CD1002D2B4638BF00232BB1628B6C
:108E2000013262831B68002BF8D141F00201204619
:108E3000218306F072FE06460028D1D0238B43F032
:108E400020032383CBE7042B0CD121F0070189B247
:108E50002046218306F061FE05460028BFD041F080
:108E6000200121830025BAE7032809D1226923F0D4
:108E70000703166843F00603002523832F46AFE758
:108E8000042806D1226923F00703566843F004033F
:108E9000F2E7052806D1226923F00703966843F01C
:108EA0000503E9E700252E46E8E7012341F0080124
:108EB00021838BF31188BFF36F8F03BB002D33D158
:108EC00016B120462049B0474FF02003EFF3118B35
:108ED00083F31288BFF36F8F238B23F00803238360
:108EE000238BDA0628D5012123F010032383B4F85D
:108EF000189009F0070900297FF45BAF51E7A168DA
:108F00000029DBD00B68002B38BF0023994652465E
:108F10003B462046D1F804B0D847B9F1000FCDD078
:108F20004946D9F80030EEE729463B4652462046EE
:108F30002D6806F00EFEC1E713F020011EBF23F0DE
:108F4000200302212383D2E77FFB00002DE9F04FAD
:108F5000884691461C460025A5B0039099F800006C
:108F600010B9284600F01ABE09F10103252809931B
:108F700007D04146039B98470028C0F20F86013571
:108F800045E21822002116A807F0F7FA99F80130F7
:108F9000252B79D000221646964617469446099806
:108FA000014610F8013B2B2B00F09E8000F29580CB
:108FB000202B00F09B80232B00F09B80BCF1000F46
:108FC00005D09DF8600040F004008DF860002FB1DE
:108FD0009DF8600040F008008DF86000BEF1000FC1
:108FE00005D09DF8600040F010008DF860002EB1B3
:108FF0009DF8600040F020008DF860002AB19DF8D7
:10900000602042F040028DF860209DF8602002F060
:109010004400442803D16FF386128DF860209DF838
:1090200060202A2B42F080028DF860207CD19DF8D0
:1090300061204B1C42F001028DF861201A782E2A23
:109040000CBF012100219DF8612061F341028DF8E0
:10905000612075D15A782A2A6BD000210A26013363
:10906000184610F8012BA2F13007092F40F2AA8010
:109070009DF860201A91C2F3400040EAD17161F37B
:1090800041028DF860205BE009F1020209928DF83F
:1090900063309DF86130DE0740F16F8154F8042B96
:1090A000002A089208DA9DF8602042F004028DF848
:1090B0006020089A52420892580740F1668154F89D
:1090C000047B002F80F265819DF861306FF34103CE
:1090D0008DF861304FF0FF375BE12D2B0BD0302B3B
:1090E0007FF46CAF01225BE7012759E74FF0010ED7
:1090F00056E7012654E74FF0010C51E733460CFBCD
:109100000202303A1E4616F8010BA0F13007092F73
:10911000F4D9994292D09DF860101992D20F62F35F
:1091200041018DF8601089E70B4600224FF00A0CD0
:10913000E8E79DF86120023342F004028DF86120D7
:10914000194611F8012B6C2A5CD040D8682A46D009
:109150006A2A61D04C2A67D019460B4613F8012BB6
:10916000782A09938DF8632000F2DF80572A68D8A7
:10917000412A04D0A2F14503022B00F2D68004213B
:109180009DF8623002F0DF02A2F1410A61F30203AE
:10919000DAF100029DF8611042EB0A0262F3C71196
:1091A0000A068DF862308DF86110CBB200F1E380D1
:1091B00003F07802182A40F0B5806FF3C6038DF8EB
:1091C00061309CE006FB01210346303948E7742AF0
:1091D00026D07A2AC0D106229DF861300DE05A7857
:1091E000682A9DF8612006D1012161F3C6028DF83D
:1091F0006120991CB1E71346022262F3C6038DF881
:109200006130AAE75A786C2A9DF8612001D10421C7
:10921000EBE713460322F0E705229DF86130ECE707
:1092200007229DF86130E8E7BDF8603023F4F04391
:1092300023F0020343F4804343F00203ADF86030AF
:109240008BE7A2F15803202B6FD801A151F823F02E
:10925000039300002B9300002B9300002B9300003E
:109260002B9300002B9300002B9300002B93000006
:109270002B9300007F9100002B93000003930000CC
:10928000D59200007F9100007F9100007F91000047
:109290002B930000D59200002B9300002B9300002D
:1092A0002B9300002B9300003993000003930000E0
:1092B000599300002B9300002B930000599300005A
:1092C0002B930000039300002B9300002B930000CE
:1092D0000393000001219DF8623061F302038DF8D1
:1092E00062309DF8613003F07803402B02BF9DF897
:1092F000601041F001018DF86010632A05D0002351
:1093000006E002219DF86230E7E7003B18BF012329
:109310009DF86020C2F340010B4363F341028DF8D6
