:020000040000FA
:10800000B892002079AC00001B04010065AC0000B0
:1080100065AC000065AC000065AC000065AC00001C
:1080200000000000000000000000000001AE0000A1
:1080300065AC000000000000A1AD000065AC0000D0
:10804000DDAF0000DDAF0000DDAF0000DDAF000000
:10805000DDAF0000DDAF0000DDAF0000DDAF0000F0
:10806000DDAF0000DDAF0000DDAF0000DDAF0000E0
:10807000DDAF0000DDAF0000DDAF0000DDAF0000D0
:10808000DDAF0000DDAF0000DDAF0000DDAF0000C0
:10809000DDAF0000DDAF0000DDAF0000DDAF0000B0
:1080A000DDAF0000DDAF0000DDAF0000DDAF0000A0
:1080B000DDAF0000DDAF0000DDAF0000DDAF000090
:1080C000DDAF0000DDAF0000DDAF0000DDAF000080
:1080D000DDAF0000DDAF0000DDAF0000DDAF000070
:1080E000DDAF0000DDAF0000DDAF0000DDAF000060
:1080F000DDAF0000DDAF0000DDAF0000DDAF000050
:10810000DDAF0000DDAF0000DDAF0000DDAF00003F
:10811000DDAF0000DDAF0000DDAF0000DDAF00002F
:10812000DDAF0000DDAF0000DDAF0000DDAF00001F
:10813000DDAF0000DDAF0000DDAF0000DDAF00000F
:10814000DDAF0000DDAF0000DDAF0000DDAF0000FF
:10815000DDAF000053B94AB9002908BF00281CBF91
:108160004FF0FF314FF0FF3000F070B9ADF1080C67
:108170006DE904CE00F006F8DDF804E0DDE9022345
:1081800004B070472DE9F047089E0D4604468A4624
:10819000002B7FD18A42174641D9B2FA82F24AB106
:1081A000C2F1200105FA02F39740944020FA01F150
:1081B00041EA030A4FEA17484FEA144C1FFA87F9BD
:1081C000BAFBF8FE08FB1EA30EFB09F14CEA0343C1
:1081D000994206D9FB1802D2994200F224810EF18D
:1081E000FF3E591AA3B2B1FBF8F008FB101100FBD7
:1081F00009F943EA0144A14505D93C1902D2A14538
:1082000000F20E810138A4EB090440EA0E4000217F
:108210001EB1D4400023C6E90043BDE8F08702B98F
:10822000FFDEB2FA82F2002A4FD1CB1B4FEA174E83
:108230001FFA87F80121250CB3FBFEFC0EFB1C3056
:108240002B4608FB0CF945EA0045A9450AD97D19DA
:108250002CBF01230023A94502D9002B00F0D980AF
:108260000CF1FF3CA5EB0905A3B2B5FBFEF00EFB3C
:10827000105508FB00F843EA0544A04505D93C1910
:1082800002D2A04500F2C9800138A4EB080440EAFC
:108290000C40BDE78B4208D9002E00F0B1800021D0
:1082A000C6E900050846BDE8F087B3FA83F1002966
:1082B00046D1AB42C0F0A780824240F2A48008467B
:1082C000002EAAD0C6E9004AA7E7C2F120009740D5
:1082D00001FA02F34FEA174EC14024FA00F51FFAE3
:1082E00087F894401D43B1FBFEF02B0C0EFB1011E0
:1082F00000FB08FC43EA01439C4509D9FB182CBF4D
:10830000012100219C4502D9002900F09580013807
:10831000A3EB0C03ADB2B3FBFEF10EFB113301FB7B
:1083200008FC45EA0345AC4505D97D1902D2AC45A8
:1083300000F289800139A5EB0C0341EA00417AE79C
:10834000C1F120048B4002FA01F705FA01FCE2407A
:1083500020FA04F8E54000FA01FE134348EA0C0253
:108360004FEA13484FEA124C1FFA83F9B5FBF8FAAB
:1083700008FB1A550AFB09F04CEA054C60450AD97E
:1083800013EB0C0C2CBF01250025604501D9002DF5
:1083900055D00AF1FF3AACEB000C92B2BCFBF8F0FE
:1083A00008FB10CC00FB09F942EA0C4CE14505D969
:1083B00013EB0C0C01D2E1453BD8013840EA0A40EE
:1083C000ACEB090CA0FB0789CC4545464A4602D3D5
:1083D00006D1C64504D20138B8EB070569EB0302A4
:1083E0002EB3BEEB05036CEB020C23FA01F20CFA80
:1083F00004F42CFA01F300211443C6E900430CE70E
:108400003146304609E7841A65EB030301209A469A
:1084100056E7ACF1020C3D4424E702383C4434E713
:1084200002383C44EFE6AEF1020E3B44D9E6314659
:10843000F3E602389C44C1E702383B4468E7AAF1FE
:10844000020A9C44A7E702393D4474E7704700BF25
:1084500038B5164C204608F01BFC0546E8B12269E9
:10846000A1681368204623F0400313600B684FF4A3
:1084700020220621984703210D4A0E4807F048FFA5
:10848000254600F077F8A368402128465B699847A5
:108490000021212006F092FFF3E701210346064A5E
:1084A000044807F03EFF284638BD00BF4C100100CD
:1084B00061160100D81201003816010010B58AB00B
:1084C0000DF1070302930223CDE906120C498DF842
:1084D000070006AA02A8CDE90403CDE9082351F854
:1084E000040B0393836804AA1C6808ABA047002808
:1084F00004DB2120002106F061FF00200AB010BD3E
:108500000080002010B586B001AB029302238DF8E5
:1085100005100B4902AA8DF80400CDE9042351F897
:10852000040B0393836804AA1C680023A047002857
:1085300004DB2120002106F041FF002006B010BD21
:108540000080002007B50A4B18788DF8040007F06A
:10855000B9F901A807F0BAF94FF0010007F0C5F921
:108560004FF0000007F0D7F903B05DF804FB00BF3F
:108570005013010013B50024FFF7E4FF6846009490
:10858000ADF8044007F0CBF9114807F047FA002195
:108590004FF4004006F012FFBDF800100D4807F040
:1085A0003DFABDF802100C4807F038FABDF8041087
:1085B0000A4807F033FABDF80430BDF80220BDF8D0
:1085C0000010074807F02AFA204602B010BD00BF8D
:1085D000AD160100BB160100C9160100D716010037
:1085E000E51601002DE9F04F0E4693B0194602F052
:1085F00004030293C2F3C2030133079383070546C2
:10860000DDF870A0059240F09381041D002840F031
:10861000928106F00706341DC6F1080600274B1E9E
:108620004FF0FF304FF004080493B9463B460697DD
:108630000390CDF8048005B121600798002807DC7D
:1086400089488142C0F0B0808848814280F0AC8087
:10865000059810F0020E00F0C6804FF0010C601B70
:10866000BEF1000F00F0A680B0F5007FC0F0A28040
:108670006FF015005BE020385A2835D8DFE800F0AD
:108680006534346534313434343476653465653476
:1086900065656565656565656565343434343434B0
:1086A000344734343447474734343434653434340D
:1086B0003434343434343434363434343434343478
:1086C00034473436364747476536613465342E368D
:1086D0002E34348C73363434363473000020002347
:1086E00010E0039B013B039300232EE0049B13F84F
:1086F000013C6C2B52D10020049B13F8023C6C2BE4
:1087000003464ED04FF00408CDF804802FE00AF164
:10871000070A2AF00703073403F1080A24F00700C8
:1087200065B10EEB0004B44204D96FF01B0013B026
:10873000BDE8F08FD3E90034C0E90034002300F134
:1087400008044FF00808CDF80480049A12F8010FCD
:10875000049200287ED0002B8DD12528F5D1039BD3
:108760000133039301234FF00408ECE70020013CA0
:108770004444B4FBF8F408FB04F42DB1019AA2EBD5
:10878000050CA444B445D0D8002846D00799013937
:1087900007915AF8041B4EE71846A0E7002003464D
:1087A000E5E74FF00808AFE705984FF0000C00F040
:1087B000020E54E7B9F10F0F3FF65AAFDDB1C0F327
:1087C000870B12A800EB090E03980EF820BC0EF8D8
:1087D000100CBCF1000F0AD06BF07F000EF8200CDB
:1087E000013709F101090434C5F1080EADE7069817
:1087F00001300690F5E7BCF1000F01D00136F0E73B
:10880000029802360028ECD108460993089107F037
:108810003BFEDDE908130644E3E70198042808D18C
:108820000AF1040C15B1DAF800002060E2460434C5
:108830008BE7019808287FF41BAF0AF1070A2AF09A
:10884000070000F1080A1DB1D0E900BCC4E900BC72
:1088500008347AE7631BB3F5806FBFF409AF3DB905
:10886000A6F10804E01862E7AC0F0100BC23010088
:10887000029A9B0828602B709DF8183082B16870AE
:10888000EB70AF702FB100220AA8C5F1010C914521
:1088900009D14FF00008C5F1010A0DF1380B34E0A1
:1088A0006B70029BECE710F8013B13F0800F08D0CF
:1088B00004EB0C0EB64503F07F033FF636AF04F829
:1088C000013B0132E3E727B10AAB13F90830002B73
:1088D00019DB029BEBB1002218F80B3004F8013BC6
:1088E0000AEB02032344B3423FF61FAF0AAB13F86F
:1088F0000830039204F8013B2046019107F0CBFDBC
:10890000039A0199144408F10108C145DBD1601BA9
:108910000DE70AAB13F80830029A55F8231045F812
:1089200023200846019107F0AFFD0199421CD7E7CB
:108930006FF00D00FBE6072E3FF670AEF5E600BFC8
:108940002DE9F04F97B000AFD7F880B0C7E90A32F1
:10895000CBF3C003044689467B6249B90378467865
:10896000807800EB830020444E4519D8A0EB040921
:10897000A578BD61EDB10BF00103E2783A6212B166
:108980001BF0020F17D1B3B9FB6A1BB14946204651
:10899000BA6A98474E4630465C37BD46BDE8F08F10
:1089A000451C284607F070FD0130284409F10109F3
:1089B000DAE72B46E1E794F800A04FEA8A023A6131
:1089C000626804EB8A0A7A61FA6A002A40F08980B8
:1089D0004E46002B5DD0D14690460AEB05039945E3
:1089E0003FD1AA441BF0050F0CBF02230123002531
:1089F000FB623B6A9D42CED29AF80130B84A54F8E5
:108A000023300AF1020A9342C0F07481B54A9342BE
:108A10007A6A2CBF4FF000094FF00109002A41D0BB
:108A20001AF8021C7869BB6206F0C6FFBB6A002810
:108A300038D0E9468AB06A46AB4B53617B69C2E9DC
:108A400006314FF400731384A84B42F8103F002303
:108A50004FF41251A64801F0A5FBCD46023E013568
:108A6000C7E719F8012BFB6254F8220007F00CFD50
:108A7000D7F88420FB6A01304AB1D7F888209045A6
:108A80003EBFD7F8842022F8180008F101080644F8
:108A9000A5E72DB11BF00408A4D09846AA44A1E78D
:108AA000A8469FE7B9F1000F05D01BF0010F05D1D3
:108AB000FB6AF61AD3E71BF0020FD0D0184607F076
:108AC000E3FCD7F8843053B1D7F8883098453FBFDE
:108AD000D7F88420431C22F8183008F10108064416
:108AE000BDE7002B40F0ED8025B11BF0040F40F0F6
:108AF000F1801D46A846BB690AEB03020023961CC1
:108B0000396A8B4256D34B00FB6123781BF0020F6E
:108B10003B62637802EB410A18BF002105EB0302B8
:108B200008BFC8F347011BF0010FD2B240F0958097
:108B30001BF0040F14BF404600207B61E378A67849
:108B40007B626270A070E1702046BA6A3969FB6A84
:108B50009847B0F1000BC0F2B0803B6AA67023705A
:108B60007B69414663707B6ABA6AE37007F148002B
:108B7000FB6A9847061EFFF60EAFFA693B6950463E
:108B800013441946BB69BA6A1944A9EB0101FB6A8F
:108B90009847031EC0F293804FF000095E441E44C4
:108BA00007F1380AA9455AD30021BA6A0846FB6A78
:108BB0009847F0E616F8021C16F8010CF960F86107
:108BC000474954F82000884203D346498842C0F000
:108BD0009880796A49B34FF0000AF9687869C7E963
:108BE000012306F0E9FED7E90123D8B9BAF1000F55
:108BF0001BD01BF0010F08D007F15800691C054479
:108C0000F86905F8200CCDB20CE01BF0040F09D078
:108C100007F1580008F101018044F86908F8100CC8
:108C20005FFA81F8013302366AE71BF0020FE3D1E5
:108C300007F1580101EB080CF96808F101000CF884
:108C4000101C07F1580151FA80F0F96908F1020887
:108C50005FFA88F800F8101CE4E700206DE719F8C7
:108C60000A3054F823B087F83730D7F88430FBB196
:108C700033F819800121BA6AFB6A07F13700984777
:108C8000002818DB0644B8F1000F06D1584607F05B
:108C9000FBFB00F101081FFA88F841465846BA6A02
:108CA000FB6A9847002806DB064409F1010979E7C9
:108CB000D7F88480DEE706466DE65E466BE61E4624
:108CC00069E64FF0000807F138005146BA6907F02D
:108CD000E2FB10E7A84607F148001D46F5E700BF94
:108CE000AC0F0100BC230100F016010004000001DC
:108CF000E01201007A6A002A3FF4DDAE4FF000096D
:108D00008EE6796A00293FF474AFD7F824A064E7AF
:108D1000014B1860704700BF1880002030B5002557
:108D200087B0CDE903010446009503A905480595E0
:108D300000F0F0F8DDE904309842B8BF255407B0E0
:108D400030BD00BFF7F900002DE9F84FB0F81890DA
:108D5000044619F0080893460DD001290CBF49F0CC
:108D6000100949F02009A0F818908BF31188BFF37F
:108D70006F8FBDE8F88F09F00709022907D1204657
:108D800006F070FE0028F0D00128238B50D16769CF
:108D9000218B002F15DA256821F00701C4E900882E
:108DA00041F0010121830026218B01F0070ACA4509
:108DB00002D0A368002B5CD10DB9002E74D0002323
:108DC00058E001F007035A1F012A20D821F00701BB
:108DD000062B256889B2C4E900880CD1002D2B46EA
:108DE00038BF00232BB1628B013262831B68002BDA
:108DF000F8D141F002012046218306F033FE0646F9
:108E00000028D1D0238B43F020032383CBE7042B0E
:108E10000CD121F0070189B22046218306F022FE01
:108E200005460028BFD041F0200121830025BAE784
:108E3000032809D1226923F00703166843F00603CB
:108E4000002523832F46AFE7042806D1226923F0AB
:108E50000703566843F00403F2E7052806D12269A8
:108E600023F00703966843F00503E9E700252E4643
:108E7000E8E7012341F0080121838BF31188BFF358
:108E80006F8F03BB002D33D116B120462049B04768
:108E90004FF02003EFF3118B83F31288BFF36F8F32
:108EA000238B23F008032383238BDA0628D50121A3
:108EB00023F010032383B4F8189009F00709002960
:108EC0007FF45BAF51E7A1680029DBD00B68002B72
:108ED00038BF0023994652463B462046D1F804B09D
:108EE000D847B9F1000FCDD04946D9F80030EEE7A8
:108EF00029463B46524620462D6806F0CFFDC1E785
:108F000013F020011EBF23F0200302212383D2E7A8
:108F1000C9FA00002DE9F04F884691461C4600250D
:108F2000A5B0039099F8000010B9284600F01ABEC9
:108F300009F101032528099307D04146039B98476F
:108F40000028C0F20F86013545E21822002116A83C
:108F500007F0ACFA99F80130252B79D0002216469B
:108F60009646174694460998014610F8013B2B2B6C
:108F700000F09E8000F29580202B00F09B80232B38
:108F800000F09B80BCF1000F05D09DF8600040F020
:108F900004008DF860002FB19DF8600040F00800DB
:108FA0008DF86000BEF1000F05D09DF8600040F024
:108FB00010008DF860002EB19DF8600040F0200098
:108FC0008DF860002AB19DF8602042F040028DF8D3
:108FD00060209DF8602002F04400442803D16FF324
:108FE00086128DF860209DF860202A2B42F08002C6
:108FF0008DF860207CD19DF861204B1C42F001026D
:109000008DF861201A782E2A0CBF012100219DF8CD
:10901000612061F341028DF8612075D15A782A2AC6
:109020006BD000210A260133184610F8012BA2F15B
:109030003007092F40F2AA809DF860201A91C2F3F0
:10904000400040EAD17161F341028DF860205BE09D
:1090500009F1020209928DF863309DF86130DE0754
:1090600040F16F8154F8042B002A089208DA9DF829
:10907000602042F004028DF86020089A5242089263
:10908000580740F1668154F8047B002F80F2658117
:109090009DF861306FF341038DF861304FF0FF3779
:1090A0005BE12D2B0BD0302B7FF46CAF01225BE703
:1090B000012759E74FF0010E56E7012654E74FF01C
:1090C000010C51E733460CFB0202303A1E4616F8FB
:1090D000010BA0F13007092FF4D9994292D09DF8E5
:1090E00060101992D20F62F341018DF8601089E788
:1090F0000B4600224FF00A0CE8E79DF8612002338E
:1091000042F004028DF86120194611F8012B6C2AF7
:109110005CD040D8682A46D06A2A61D04C2A67D0F1
:1091200019460B4613F8012B782A09938DF8632012
:1091300000F2DF80572A68D8412A04D0A2F1450303
:10914000022B00F2D68004219DF8623002F0DF028B
:10915000A2F1410A61F30203DAF100029DF8611005
:1091600042EB0A0262F3C7110A068DF862308DF8ED
:109170006110CBB200F1E38003F07802182A40F0CE
:10918000B5806FF3C6038DF861309CE006FB0121CA
:109190000346303948E7742A26D07A2AC0D10622FD
:1091A0009DF861300DE05A78682A9DF8612006D15B
:1091B000012161F3C6028DF86120991CB1E71346C5
:1091C000022262F3C6038DF86130AAE75A786C2A4E
:1091D0009DF8612001D10421EBE713460322F0E75B
:1091E00005229DF86130ECE707229DF86130E8E741
:1091F000BDF8603023F4F04323F0020343F48043CE
:1092000043F00203ADF860308BE7A2F15803202B46
:109210006FD801A151F823F0CB920000F392000027
:10922000F3920000F3920000F3920000F39200002A
:10923000F3920000F3920000F392000047910000C7
:10924000F3920000CB9200009D9200004791000035
:109250004791000047910000F39200009D920000AA
:10926000F3920000F3920000F3920000F3920000EA
:1092700001930000CB92000021930000F3920000C4
:10928000F392000021930000F3920000CB920000C3
:10929000F3920000F3920000CB92000001219DF8B0
:1092A000623061F302038DF862309DF8613003F0A3
:1092B0007803402B02BF9DF8601041F001018DF84A
:1092C0006010632A05D0002306E002219DF8623079
:1092D000E7E7003B18BF01239DF86020C2F340017F
:1092E0000B4363F341028DF86020B6E613F0380FAC
:1092F000E9D09DF8603043F001038DF86030E2E77B
:1093000003229DF8623062F302038DF862309DF80B
:10931000613003F07803A3F140077B427B41DBE738
:1093200003229DF8623062F302038DF862309DF8EB
:10933000613013F0780F14BF01230023CCE7012321
:10934000CAE79DF96020002AACBF4FF0FF32199A9E
:1093500095E699077FF5A2AE1A9F0023CDE9193350
:109360009DF8623003F00703042B09D19DF86130AA
:109370009A0705D49DF96130002BB4BF0D2706274D
:109380009DF862309DF8611003F00703012BC1F3D3
:10939000C30133D1CB1E042B20D8DFE803F0030731
:1093A000071F1F0054F8042BD31704E0073424F0E0
:1093B0000704F4E80223CDE916239DF86060B307A3
:1093C00058D04A464146099B039806F095FC002870
:1093D000C0F2C8830544DDF82490A3E554F8042BBB
:1093E00001294FEAE273CDE9162302D19DF95820F5
:1093F000DAE70229E1D1BDF95820D5E7022B29D1BE
:10940000CB1E042B13D8DFE803F0030A0A12120064
:1094100000232268201D169217930446CDE70734D7
:1094200024F00700F0E80223CDE91623F5E754F80D
:10943000043B012916934FF00003179305D19DF8C3
:109440005830169300231793B7E70229B5D1BDF81A
:109450005830F6E7042B07D1073424F00704F4E86A
:109460000223CDE91623A8E7032B04BF54F8043BDD
:109470001693A2E79DF86390B9F1780FABD8B9F1D4
:10948000570F00F2A780B9F1250F00F0ED80B9F178
:10949000240FA0D9B9F1410F03D0A9F14503022B44
:1094A00099D8DDE91623002A73F10001C0F2D481B6
:1094B000310700F1D38116F0100618BF2026C3F340
:1094C0000A5BC3F3130306920793DDE90623CDE994
:1094D0001223BBF1000F40F0C381DDE906321343D4
:1094E00014BF4FF0010C4FF0000C58460799B9F12A
:1094F000460F4FEAC123069908BF4FF06609CA021A
:1095000043EA51534BEA02010C91C11719430D91E3
:10951000DDE90C010143CDE9122300F01482BCF116
:10952000000F40F0D481129B05210493139BABF2F2
:10953000FE3B43F000430593DDE90423CDE912230C
:1095400000231A461BF1020FC0F2CA811BB1DDE9EC
:109550000401CDE91201DDE91231BBF1000F00F386
:10956000DA811399129BCBF104000BF11C0B01FA69
:109570000BFBA0F1200CC34021FA0CFC43EA0B03C7
:1095800043EA0C03C140CDE9123109F0DF03472B58
:1095900040F0E081D01C02DB974280F2D781A9F134
:1095A0000209002F5FFA89F900DD013F9DF8603064
:1095B000990600F1CF81002FD4BF00230123B9F118
:1095C000660F0E9340F0C881BB1840F1C6814FF082
:1095D000000AC6E1A9F15803202B3FF6FCAE01A218
:1095E00052F823F0F9970000D7930000D7930000BA
:1095F000D7930000D7930000D7930000D7930000C3
:10960000D7930000D7930000A3940000D7930000E5
:109610009596000099970000A3940000A394000081
:10962000A3940000D793000099970000D7930000FF
:10963000D7930000D7930000D79300002F98000025
:10964000F9970000FD970000D7930000D793000022
:109650006F960000D7930000F9970000D7930000A1
:10966000D7930000F99700004146484666E4002F72
:10967000DDF858900ADB3946484606F023FF0026FD
:1096800009EB000AB9F1000F0CD1A4E6484606F038
:10969000FBFEF4E70026169B0DF1750A8DF8743079
:1096A0000DF17409AAEB090206B101329DF86200BE
:1096B000C30640F14C820232199940060A44089BC5
:1096C00044BF1A995218002B25DD9B1A9DF8602083
:1096D0005107C2F3800B00F14C82570640F14582DE
:1096E000002E00F04482089341463046039B984781
:1096F0000028C0F237825E463027089B0135089368
:1097000003EB050B089BABEB0305002B03F1FF33C9
:10971000089300F320823EB141463046039B9847B0
:109720000028C0F21F8201359DF86220560640F1E4
:109730007E829DF96120002AC0F21D82A5EB0905F9
:1097400099F800004F46A0F13002092A05EB090BF9
:1097500009F1010940F23F829DF86220199E9006AE
:1097600008D406EB0B09002EA9EB060B06F1FF3619
:1097700000F3388238782E280BD14146039B984756
:109780000028C0F2EF81002E0BF1010B00F33282B2
:109790000137ABEB070B38E230072BD416F010067D
:1097A00018BF2026DDE91623002A73F1000105DA2F
:1097B0002D26524263EB4303CDE91623DDE9160162
:1097C0000DF18D03009318AA1DAB06F04AFA8146ED
:1097D000002F0DF18D030BDB9DF86010A3EB090248
:1097E0006FF3861197428DF8601001D9BF1A19974F
:1097F0009A4647E72B26D5E70026DFE7169800288C
:1098000000F09F810DF18D03009300211DAB18AA7C
:1098100006F027FABDF86230814603F0EF0343F407
:10982000F04343F010030026ADF86230D0E7169BFA
:1098300007293FF6D0ADDFE801F00D04060D08085A
:109840000D0D1D70C7E51D80C5E52846E917C3E964
:109850000001C0E51D60BEE52D2630E62B262EE674
:1098600040F2FF739B452DD1DDE906231343A9F197
:10987000410918D1B9F1190F95BF44F6496346F66D
:109880006963ADF87430ADF8743094BF4623662335
:109890008DF876309DF860300DF1770A6FF38613FE
:1098A0008DF86030FCE6B9F1190F95BF44F24E1304
:1098B00046F26E13ADF87430ADF8743094BF4E2399
:1098C0006E23E5E74FF0000C0FE60BF1FF3B92181B
:1098D0005B41002A73F10001F7DACDE9122322E699
:1098E000049B05985B0843EAC0734008B0F1333F1E
:1098F000DC46CDE904300BF1010BF1D2A3FB01AB47
:109900004843CDE904AB059B0CF1020BC31805934A
:10991000013A012316E6023341F1000112A8CDE914
:1099200012310E9206F067F9DDE912010E9A0BF181
:10993000FF3B013200184941002871F100030BF18F
:10994000FF3BF7DA05E6002293460AE64FF0660988
:10995000BF1A2BE6002332E67B1C102BA8BF102376
:109960009A461021002011914FF00061CDE91401B9
:10997000DDE914100AF1FF3ABAF1FF3F1FD1129B43
:10998000CB180A93139B6FF0704140EB03034FF029
:10999000FF300B93DDE90AAB594508BF50451AD398
:1099A00050465946CDE91201B9F1660F53D1002A4C
:1099B00020DC30230DF1750A8DF874302BE0490856
:1099C00041EAC0714008CDE9141014A80F9206F0C6
:1099D00012F90F9ACCE70A9B0F920B9A5B0843EAA5
:1099E000C273510812A8CDE9123106F004F90F9A9A
:1099F0000132D9E70DF1740A1199002909DD11A985
:109A000012A80F9206F016F90F9A0AF8010B013A04
:109A1000F2D1199200229DF86010880601D4002F1F
:109A20003FDD53462E2103F8011B92B1002F76DD56
:109A30005142B942A8BF394600291991A7EB010745
:109A4000D4BF002101219DF8620061F345108DF81B
:109A500062009A4620E011A912A80F9206F0EAF8D7
:109A60000F9A9DF86030302818BF02F1FF32990636
:109A70008DF8740001D4002F53DD2E238DF875303E
:109A80000DF17603E5E711A912A80F9206F0D2F8BE
:109A90000F9A0AF8010B013F002F02DD11990029EE
:109AA000F1DC0E9B002B3FD11A9709F0DF0145290D
:109AB00023D1002AB4BF2D212B215046B8BF5242DA
:109AC000632A00F8029B8AF801100ADD6427B2FBC2
:109AD000F7F107FB112201F1300C0AF103008AF8BB
:109AE00002C00A27B2FBF7F1824607FB112201F1FF
:109AF000300C30320AF802CB4270199A002A1EDC70
:109B00001A9A002AD4BF002201229DF8621062F343
:109B1000861100228DF862108AF80020C0E59A466E
:109B2000BFE70DF1750ABCE700211A9150461AF8FB
:109B3000011D3029FAD02E2918BF8246B5E701222F
:109B4000E3E7DFF83CA10646AAF10509AAE5070705
:109B500048BF0132B0E541463846039B984700288C
:109B6000BFF6D0AD25B0BDE8F08F2027C7E5302780
:109B7000C5E50893CFE5A5EB090B4E460BEB0905B0
:109B800019F8010B702820D11A9A02EB0509A9EBEC
:109B90000502002A43DC534632464146039806F04C
:109BA000ABF80028DEDB089B2844034405469A46B0
:109BB000AAEB0503002B7FF70EAC41462020039B48
:109BC00098470028CEDB0135F2E74146039B9847D2
:109BD0000028D2DAC6E74146039B98470028BFF623
:109BE000AFADBFE741463020039B98470028BFF642
:109BF000BAADB7E741463020039B9847013EBFE529
:109C00004146039B98470028ACDB3E460BEB07051B
:109C100017F8010BA0F13002092AF1D9B4E7414647
:109C20003020039B984700289CDB0135AFE7D10625
:109C300001D4120706D541463020039B98470028DF
:109C400090DB01359DF86220D30607D541469DF88B
:109C50006300039B9847002884DB0135199E2E443E
:109C6000721B002A02DC53464A4696E741463020E2
:109C7000039B98470028FFF675AF0135F0E700BF5A
:109C8000A917010030B5002289B00F490F4807F02D
:109C900060F9002200230024CDE906230E230C4D99
:109CA000CDE903344FF440722846CDE90144094B15
:109CB0000949009404F008FF0849284607F006F80F
:109CC000204609B030BD00BFE19C0000B0860020F6
:109CD000E886002081A00000B88B0020AA170100B0
:109CE000014805F02BB800BF988200202DE9F0470D
:109CF000044607464FF00109DFF8508014B9384692
:109D0000BDE8F08794FAA4F5B5FA85F509FA05F3EC
:109D10002E0108EB05156FEA030A24EA03042B7BE6
:109D2000002BEBD058F806301B694BB946447368DA
:109D300004222846196807EA0A0700F01FFADDE73F
:109D4000284698470028D9D1F0E700BF401301000A
:109D50002DE9F04707461F480E4606F055FA8246A1
:109D6000002830D000252846BDE8F087237B7BB152
:109D70002368DB680BB12046984723681B69D3B979
:109D8000636804222046196800F0F8F90AF1010A14
:109D900010344445EAD3002FE5D0002DE2D0284608
:109DA000FFF7A4FF0546002EF7D000214FF4A47062
:109DB00005F004FBF1E7204698470028E0D009FAB7
:109DC0000AF31D43E2E705464FF00109024CDFF8B4
:109DD0000C80DEE7C488002040130100501301000E
:109DE000014B53F8200070476813010008B5034683
:109DF00008462BB1044A136000F066FC002008BD41
:109E00006FF01500FBE700BF1C80002010B5044C6C
:109E1000227812B9034804F091FF0123237010BD8A
:109E20008C8B00209882002010B50446064806F06E
:109E3000EBF93CB1054BD3E8EF2F013AC3E8E12F32
:109E40000029F8D110BD00BFC0880020B8880020CC
:109E500000200246034BD3E8EF0FC3E8E12F0029AF
:109E6000F9D17047C088002070B5FFF7F1FF0546B3
:109E7000074C084EB44200D370BD63685B792BB1C8
:109E800023685B6813B12946204698471034F1E7F0
:109E9000401301005013010010B5044C0449204642
:109EA00006F043F8034B1C6010BD00BF4882002041
:109EB00078130100BC88002008B50023074A4FF43E
:109EC00000411370064A07481360074A1360FFF702
:109ED0008DFFBDE80840FFF7DFBF00BF8D8B00207E
:109EE000C088002005020100B88800200146002239
:109EF0000023014806F03AB848820020014806F0E5
:109F0000D3B800BF48820020024B0146186806F013
:109F10001BB900BFBC880020014806F051B900BF42
:109F2000488200202DE9F041284B187800284AD0BB
:109F3000FFF7E4FF054678B1254BD3E8EF2F013A50
:109F4000C3E8E12F0029F8D1224CDFF89480444582
:109F50002FD32846FFF7D8FF1F4B204C1B68002B40
:109F60001BDD06F0F4FF4FF47A730A46A0FB0301F1
:109F700003FB0211C30B43EA4143CA0BD4E90010AF
:109F80005E1A4FF0000362EB00074FF47A72BB4297
:109F900008BFB24201D2FFF767FFD4E9003213F5E0
:109FA0007A7342F10002C4E90032BDE8F041FFF7E4
:109FB000B3BF63685B7923B12368294620461B68D9
:109FC00098471034C3E7BDE8F08100BF8C8B0020B8
:109FD000B888002040130100C0880020A886002017
:109FE0005013010013B5184806F00EF9174B1B78F3
:109FF0007BB14FF02003EFF3118483F31288BFF39A
:10A000006F8FFFF78FFF84F31188BFF36F8F02B05C
:10A0100010BD0F4B1B68002BF9D050B90022002354
:10A020000C48CDE900234FF40042002305F0F4FB77
:10A03000EDE70928EBD1074806F097FF064802B084
:10A04000BDE8104004F07ABEB88800208D8B002057
:10A05000C8880020B08600209882002010B5064BEA
:10A0600004461B6898472146A060044805F0FCFFA1
:10A07000BDE81040FFF7B6BF1C80002048820020DA
:10A0800000212DE9F0470846FFF762FE044648B379
:10A0900040F267684FF0000905F0AAF91A4B186002
:10A0A00030B11A4B1B68092B02DD194804F046FE3B
:10A0B0000025184FDFF858A044B12046FFF716FEE0
:10A0C000044618B94FF0FF384FF0FF39FFF72AFF69
:10A0D000064628B9B5B942464B46504604F052FEF2
:10A0E0003546E9E74FF0FF384FF0FF39D4E72B68EA
:10A0F0009B691BB100222846114698471035BD4286
:10A10000F5D3E8E7044DFAE7C8880020B8880020B6
:10A1100098820020501301004013010070B50D4DCE
:10A12000297861B90120FFF713FE0B4C0B4EB442A6
:10A1300006D3FFF7F7FE0028FBD101232B7070BD7B
:10A1400063685B791BB1236820469B68984710348D
:10A15000EDE700BF8D8B002040130100501301007C
:10A16000044A054B9B1AB1EBD30F34BF52F83100B0
:10A1700000207047D812010040130100084B10B4B2
:10A18000C31A44681B110133237143689A71012279
:10A190004368196043685A7110BCFFF737BE00BFAF
:10A1A000401301002DE9F04F8DB0C1F34A2804AFF0
:10A1B0000C4691469B467860B8F1000F5ED00026B1
:10A1C0000423C7E90566FE61029307F10C030193BE
:10A1D0000A2332460093414607F114034846FEF72E
:10A1E000AFFBB0F5006FC24603461CD36C468AB085
:10A1F000D9F8041004AB26481A46C3E9050140F219
:10A20000FF71D9614FF400711984224B42F8103F5D
:10A210004FF4125133462048FFF7C4FFA5462437B8
:10A22000BD46BDE8F08FC0F30A0868F3532400EB85
:10A230001450173020F0070080083B60FFF756FEEF
:10A24000054690B13B681030C7E9063604237861B3
:10A25000029307F10C0301930A23514600934846E9
:10A260000E4A07F11403FEF76BFB68F353245B46B9
:10A2700022462846796805F0FAFFD0E7080D173026
:10A2800020F007008008FFF731FE0546EDE700BF2C
:10A29000BF17010004000001F0120100410201009B
:10A2A0002DE9F04F85B00546DDE90FB68846144626
:10A2B0009946DDF844A0A6B333465A461021002043
:10A2C000CDF800A0CDF80CA0FEF78CF907460E9B48
:10A2D00004F0070203F1170005F00704124DE40033
:10A2E000384444EA821405EA472520F007002C434D
:10A2F000800844EA0354FFF7F9FD054640B13EB13A
:10A3000033465A463946CDF800A01030FEF76AF9B8
:10A310004B4622464146284605F0A9FF05B0BDE858
:10A32000F08F3746D3E700BF00FE0F000EB403B531
:10A3300003AB53F8042B01460448019306F008F8D8
:10A3400002B05DF804EB03B0704700BF7903010071
:10A350002DE9F04F8BB099469DF854300446059393
:10A36000DDE916A30693189B0D460793059B9346BC
:10A37000199E002B00F0EC8006F00103099306F013
:10A380000803089305F05AFF06F00207024600286A
:10A3900000F0AF8020468449FFF7C8FF80464FB1E8
:10A3A00016F0440F40F0A7802A4620467F49FFF769
:10A3B000BDFF8044099B5BB17D4B059A204653F855
:10A3C00022207C4B7C49002A08BF1A46FFF7AEFFCB
:10A3D000089B002B00F0BA80784B059A204653F872
:10A3E00022207749FFF7A2FF0546BBF1000F05D0F9
:10A3F0005A4620467349FFF799FF0544B9F1000F0B
:10A4000005D04A4620467049FFF790FF05446F4843
:10A410004544BAF1000F04D0534622466C4905F07A
:10A420009AFA079B002B4CD0DFF8C481079F102FAE
:10A4300028BF1027F30607D4B00648BF6549204659
:10A4400058BF6549FFF772FF4FF0000A554500F30A
:10A4500087804FF00009DFF89CA1DFF89CB1B94577
:10A4600080F08E80069B5946204613F80920FFF79E
:10A470005DFF09F10109B9F1100F78D12046574964
:10A48000FFF754FF4FF0000BDFF870A15F4540F27B
:10A490008580069B514613F80B202046A2F120032D
:10A4A0005F2B28BF2E22FFF741FF0BF1010BBBF101
:10A4B000100F6AD1069B3B440693079BDB1B079357
:10A4C000B4D1059B7BB1F10704D52046394A3A49FE
:10A4D000FFF72CFFF20606D4B30620464CBF3D49D9
:10A4E0003D49FFF723FF20460BB0BDE8F04F05F0D4
:10A4F00036BF804653E73A4B1F682FB3394B4FF4B2
:10A500007A7019684FF03C0CB5FBF1F1B1FBF7F331
:10A510004FF4616507FB13114143B3FBF5F2B1FB47
:10A52000F7FE05FB123507FB1E11B5FBFCF341439B
:10A53000B1FBF7F10CFB1355CDE901E120462A49A7
:10A540000095FFF7F3FE34E7384632E7089D4CE705
:10A550001E48264B059DB9F1010F18BF184658E754
:10A5600041462046FFF7E2FE0AF1010A6EE719F0C4
:10A57000070F7FF474AF41462046FFF7D7FE6EE722
:10A5800051462046FFF7D2FE73E71BF0070F7FF41A
:10A590007DAF41462046FFF7C9FE77E7414620469A
:10A5A000FFF7C4FE81E700BF031801000718010090
:10A5B0008C130100FE170100C91F0100A013010048
:10A5C0002C1801003218010036180100790301002F
:10A5D00051030100C7160100C6160100451801000D
:10A5E000CC880020D088002010180100A7030100AB
:10A5F00043180100411801003B18010047180100F1
:10A600002DE9F0410F884B6805460C4690468E6850
:10A6100086B0C7F382175BB114495B1A43F3CF01CD
:10A62000002920DB2078C0F3C200FFF799FD034624
:10A63000214651F8102B6088C2F34A22002A01EB10
:10A64000020408BF00210022C0F30B10CDE904086A
:10A65000CDE902142846314601970092FFF778FEB3
:10A6600006B0BDE8F0810023E2E700BFD812010088
:10A6700042F20F7373B58B4228BF0B460568044640
:10A68000052168460D4A05F0D6F906466368284656
:10A690000B225B680A4905F04EFE63683246694644
:10A6A00028465B6805F047FE63681B2228465B6806
:10A6B000044905F040FE02B070BD00BF1921010041
:10A6C000861801006A18010001230021074A10B50D
:10A6D000074C1360A04204D801B11360054B186009
:10A6E00010BD012140085B00F4E700BFD0880020C6
:10A6F00040420F00CC880020F8B50D460446064FB6
:10A700004618B44201D12846F8BD14F8011BBB68B5
:10A7100001485B689847F4E760100100014B036053
:10A7200000207047E81301002DE9F04780460C46F1
:10A7300000AF002936D0D1E90012E9468AB06D4653
:10A74000A3684FF0050A2E461A48C5E90723C5E954
:10A75000050146F810AF002332464FF42151164848
:10A76000FFF720FDD4E90312CD466369AD461348D7
:10A77000C5E90723C5E90501C5F810A00023324645
:10A780004FF421510C48FFF70DFDCD46E36901213F
:10A790000B4A094805F0C5FDA3690121094A06488D
:10A7A00005F0BFFD2146404603F0F2FFBD46BDE87F
:10A7B000F08700BFAC18010018130100DB1801007E
:10A7C0000A1901001919010030BFFFF7FDBF00BFD2
:10A7D000044B99685869884203D003494FF080526E
:10A7E0000A6070475C8B002004ED00E010B5244C3B
:10A7F0002449254805F018FEA26A91013ED5224859
:10A80000224905F011FE1E20A36ADA0104D51E4874
:10A810001F4905F009FE1F20194CA26AD30204D576
:10A8200019481C4905F000FE0220A36A1C0304D548
:10A830001548194905F0F8FD2120114CA26A510371
:10A8400004D51148154905F0EFFD2220A36A9A03AB
:10A8500004D50D48124905F0E7FD2320084CA36AF2
:10A86000DB0304D508480F4905F0DEFD2420A36A68
:10A870006FEA03436FEA1343A36210BD1D20C3E7D1
:10A8800000ED00E047190100181301005F190100F5
:10A89000721901008C190100B6190100D4190100C8
:10A8A000F9190100131A010070B52A4C06460D462D
:10A8B00029482A4905F0B8FDA26AD10432D52648B4
:10A8C000274905F0B1FD1720A36A1A0504D52248CF
:10A8D000244905F0A9FD18201E4CA36A9B0508D544
:10A8E0001D48214905F0A0FDA36BA26A10041BD4EA
:10A8F0001920184CA36A590504D517481B4905F0BF
:10A9000093FD1A20A36ADA051AD51348184905F0F1
:10A910008BFD1B200F4A936A43F47F43936200230D
:10A920002B7070BD1620CFE70121124A0A4805F0AE
:10A93000F8FC002EDCD0A36A23F40043A362D7E71F
:10A94000A36A9B04E6D504480B4905F06DFD1C2065
:10A95000E0E700BF00ED00E0181301003E1A01001F
:10A96000541A0100651A0100781A0100A61A0100A4
:10A97000C11A0100911A0100D91A010070B52B4CBF
:10A9800006460D462A482B4905F04EFDA26AD3061D
:10A990003ED52748284905F047FD1120A36A1C072A
:10A9A00004D52348254905F03FFD12201F4CA36A1A
:10A9B000990708D522491E4805F036FD636BA26A47
:10A9C000120627D41320194CA26AD60704D51848BA
:10A9D0001C4905F029FD1420A36A9C0604D51448DF
:10A9E000194905F021FD1520104B9A6AD10658BF70
:10A9F0009A6A9A6A920642BF5A6A22F400525A62CE
:10AA00000A4A936A43F0FF03936200232B7070BDE0
:10AA10001020C3E701210D4A054805F082FC002EF5
:10AA2000D0D0A36A23F08003A362CBE700ED00E05F
:10AA300018130100081B01001E1B0100651A01000C
:10AA4000511B01007F1B0100D91A0100691B010085
:10AA50002DE9F0478AB0704B0546D3F804A089462B
:10AA60001446002600AFCAF3080886F31188BFF326
:10AA70006F8F02F07F43B3F17F4F1ED1D0071CD4FC
:10AA8000510603D4220708D4012608E0634964482C
:10AA900005F0CAFC14F0040601D04D460026002340
:10AAA000FB71A8F10303092B00F29380DFE803F0A8
:10AAB00007898C8691919191918F3546EFE74FF000
:10AAC000000958495648DFF8508105F0ADFC87F879
:10AAD0000790D8F82C4014F0020405D05249504891
:10AAE00005F0A2FC002407E0D8F82C30002B1FDA78
:10AAF0004E494B4805F098FCFB79ABB9202229461A
:10AB000007F1080005F0C7FC7B6A002E7ED0C3F376
:10AB1000080222B96FEA53236FEA43237B6220467F
:10AB200007F10801FFF700FE2837BD46BDE8F087B2
:10AB3000D8F82C305B00DFD53D49394805F074FC6E
:10AB4000D8F81430AA6943F48073C8F81430BFF3FE
:10AB50004F8FBFF36F8FD8F8143032F8022C23F4E4
:10AB60008073C8F81430BFF34F8FBFF36F8F4DF66B
:10AB700002739A4207D12B6801212E4A284805F01A
:10AB8000D0FB2C68B8E7D8F8283013F0FF0F05D0B9
:10AB90000120F91DFFF7F2FE0446ADE7D8F8283092
:10ABA00013F47F4F04D00120F91DFFF77DFEF3E77A
:10ABB000D8F828301B0C1B04002B9DD0FFF716FE85
:10ABC000EAE70020F91DE5E70020F91DEDE71A4945
:10ABD00085E71A4A6C461AF4F87F8AB0184B18BFFA
:10ABE00013466A461749C2E90513A8F11003D36159
:10ABF0004FF400731384144B42F8103F00234FF4BA
:10AC000011510748FFF7CEFAA5466BE723F4FF730F
:10AC100023F0010382E700BF00ED00E0CC1B010040
:10AC200018130100EF1B0100061C0100271C010086
:10AC3000351C0100541C0100701C0100B31B0100F5
:10AC40009E1B0100941C010004000001044B5A6982
:10AC500042F010025A615A6942F480625A617047A8
:10AC600000ED00E0EFF30880EFF3098101B57246D3
:10AC7000FFF7EEFE01BD00BF002080F31488BFF394
:10AC80006F8F002080F30A8880F30B8800F0DEFCD1
:10AC900000200E490860BFF34F8F0D4880F30888ED
:10ACA00000F02AF8202080F311880A484FF4006150
:10ACB000401880F30988EFF314800221084380F3E1
:10ACC0001488BFF36F8F00F0F3F8000094ED00E0FC
:10ACD000B8920020F893002000231846054A116816
:10ACE000C1F307218B4200D170479360106101339B
:10ACF000F8E700BF90ED00E010B572B6002484F3D1
:10AD00001388FFF7E9FF0E4A234611464FF0FF3440
:10AD100003F120000133102B42F82040F8D100232A
:10AD20004FF0FF3003F160020133102B41F8220095
:10AD3000F8D162B6BFF34F8FBFF36F8F10BD00BF66
:10AD400000E100E0084B9B6883420BD1EFF30583E1
:10AD500043B1064B5A6842F080525A605A6A22F454
:10AD600000425A6204F04ABB5C8B002000ED00E018
:10AD70006FF00A01084A93689967084958674B6859
:10AD800043F080534B60002383F31188BFF36F8F30
:10AD90009368986F704700BF5C8B002000ED00E067
:10ADA00015498A6882F87DE04FF030001044EFF3D7
:10ADB000098C80E8F01F202080F31288BFF36F8F8A
:10ADC0000E4F4FF000664A698A603E6092F97DE05E
:10ADD000506F0023536780F3118802F1300090E830
:10ADE000F01F8CF3098802F1000004B505F026FB82
:10ADF000BDE80440704700005C8B002004ED00E0DB
:10AE00001EF0040F0CBFEFF30880EFF30980816997
:10AE100011F8021C0229FFD001B505F0FAFA01BDB4
:10AE200043B2002B08DB012200F01F0002FA00F001
:10AE3000024A5B0942F82300704700BF00E100E0CE
:10AE400043B2002B0DDB012200F01F0002FA00F0DC
:10AE50005B09044A203342F82300BFF34F8FBFF34E
:10AE60006F8F704700E100E0054B420953F8222044
:10AE7000012300F01F0003FA00F01040704700BFEC
:10AE800000E100E043B2002B01F10101ACBF03F18E
:10AE90006043064B4FEA4111C9B2ABBF03F56143B2
:10AEA00000F00F0083F800131954704714ED00E010
:10AEB0000B4A08B50B4B22F07F029A60BFF34F8F0D
:10AEC000BFF36F8FD3F8882022F47002C3F8882074
:10AED00003F010FD04F0C4FA00F074F803F054FD20
:10AEE0000080000000ED00E042F8203C009B0C498F
:10AEF00042F81C3C019B21F0010142F8183C029BE6
:10AF000042F8081C42F8143C4FF0807342F8043CAD
:10AF1000002343674FF43C43203A0265C367704700
:10AF200051FA0000084B9860436E83F30B8810467B
:10AF300081F30988002163B681F31188BFF36F8F15
:10AF40000022002304F084FD5C8B002001491022C4
:10AF50000A60704710ED00E072B6404080F311883F
:10AF6000BFF36F8F01B500F071FA00280AD0BFF36C
:10AF70004F8F30BF00BF00BF00BF00BF00BF00BF8A
:10AF800000BF00BFBDE8014062B6BFF36F8F7047DE
:10AF900072B6494081F3118801B500F057FA0028D4
:10AFA0000AD0BFF34F8F20BF00BF00BF00BF00BF5C
:10AFB00000BF00BF00BF00BFBDE8014080F31188A3
:10AFC00062B67047002320210348C2180133452B85
:10AFD00082F80013F9D1704700E100E001B5EFF30A
:10AFE0000580A0F110004FEAC0000449014409C9DE
:10AFF0009847BDE80140024908470000B010010031
:10B00000D1A700001FB5094C094A23460121094870
:10B0100000F0FEF800230393074B0121E41A01A876
:10B020000193029400F0FEF804B010BD0000072068
:10B0300000800020E8130100A882002010B50C7ADF
:10B040000B6823F01F0204F01F031A43CB68640946
:10B0500023F01F03044943EA440343F001038860DB
:10B06000CA600B6110BD00BF90ED00E0072810B56D
:10B0700008D901210346054A054805F052F96FF049
:10B08000150010BDFFF7DAFFFBE700BFAB1C0100A6
:10B09000101301002DE9F04F8946144606464FF083
:10B0A00000084E4D85B0C84527DAD6F804A0BAF19D
:10B0B000000F40D0BAF11F0F17D91AF01F0F14D18B
:10B0C000D6F800B01BF01F0F0FD1584605F0BAF9A3
:10B0D00007460AEB0B00013805F0B4F9874210D09F
:10B0E0006FF015073E4A3B4601E043463D4A0121C9
:10B0F0003D4805F016F96FF01504204605B0BDE88F
:10B10000F08F17F1160FEDD0BC42EBDDAF60E968B0
:10B11000AF602B6921F01F0143F01F0BD6E900320D
:10B120001A44994202F1FF3A1AD1D34507D1314668
:10B13000F8B205F090F908F101080C36B3E7314692
:10B14000AF60EB6822F01F0203F01F031A43EA60AE
:10B15000E0B205F080F910F1160FCCD0441CEAE7FC
:10B16000013BD345E0B223F01F03AF6006D12A694B
:10B17000314602F01F0213432B61EAE7296901F00F
:10B180001F010B432B61314605F065F910F1160FD5
:10B19000B1D0AF60EA689DF808300BF1FF3B62F375
:10B1A00004038DF808302B699DF808205B0863F3D1
:10B1B00047128DF80820D6E900321344009323F09B
:10B1C0001F035B44A3EB0A03013023F01F0369460E
:10B1D000C0B20393FFF74AFFBDE700BF90ED00E068
:10B1E000F41C0100D11C0100101301000522034BC7
:10B1F0005A60BFF34F8FBFF36F8F704790ED00E041
:10B20000BFF35F8F0022014B5A60704790ED00E062
:10B2100010B5034C2278FFF73DFF207010BD00BF32
:10B220008F8B00202DE9F74F264D8A4606464FF0BA
:10B230000008AB46244FD0451BDAD6F80490B9F18C
:10B24000000F39D031680846019105F0FBF80199EB
:10B25000044609EB0100013805F0F4F884424FF090
:10B2600014021A4B08D06FF0150302FB08F84BF8D4
:10B27000083003B0BDE8F08F14F1160F2C60F8D041
:10B280001978A142F5DD02FB08B0BC60BC60FC6827
:10B2900000F10801007B64F30400087138690C793F
:10B2A000400860F347140C71F96821F01F016960D0
:10B2B000396921F01F01296108F1010814350C36A4
:10B2C000B9E700BFF888002090ED00E08F8B0020E8
:10B2D0002DE9F0433B4C87B02568082D6FD8FFF768
:10B2E0008FFF0020384B394A1A63854211D1384C00
:10B2F00001A82570FFF712FA002506464FF0410815
:10B300004FF00609334FAE420AD1FFF76FFF00201E
:10B3100052E0616801EB0011FFF790FE0130E4E7B5
:10B320000199280101EB0513DA683A40B2F5001FD4
:10B330001FD0B2F5800F2AD0B2F5801F35D15A68E0
:10B34000095822F01F00CDE9022121229B688DF8C7
:10B350001020013B034423F01F03207802A905932A
:10B36000FFF784FE002825DB2378013501332370A5
:10B37000C9E75A689B680958013B22F01F00034443
:10B38000CDE9022123F01F038DF81080E5E75A680C
:10B390009B680958013B22F01F000344CDE90221BC
:10B3A00023F01F038DF81090D7E701210A4A0B48BC
:10B3B00004F0AEFF6FF0150007B0BDE8F0834FF06A
:10B3C000FF30F9E7F413010090ED00E0AAFF44001C
:10B3D0008F8B00200000F0FF171D010010130100EB
:10B3E000014B1860704700BF2880002007B50DF1A1
:10B3F000070005F0ECFA114B98421CD14FF4806223
:10B400000F4B1049C3F8B8254FF40062C3F83C2530
:10B410009DF8070005F0C7FA0B499DF8070005F0F5
:10B42000BDFA01209DF80730984002F013F8002083
:10B4300003B05DF804FB6FF00B00F9E70000AD0B03
:10B4400000A002402CA0024028A10240052370B5B4
:10B45000124D134E2C780134B4FBF3F303EB83034A
:10B46000E41A05F065FA0F4B1A7822B156F8242039
:10B47000801A072810D90C4A116831B100211160D7
:10B4800012682C700CB901221A702C7805F050FA51
:10B4900046F82400012070BD0020FCE7908B0020BE
:10B4A0000C890020918B00201451004048B1054BBD
:10B4B0001A68054BB2FBF3F2044B504343F001030F
:10B4C000184770472081002040420F0060130100A0
:10B4D00070B5049CC4F30726304601F0AFFBE5B21B
:10B4E0000146284605F06BFA00220120074BA40B09
:10B4F00004F0FC041A51A84001F0B2FF304601F0FC
:10B5000051FD2846BDE8704002F01AB980A0024003
:10B5100073B501A802F00EF9264B984246D101F00E
:10B5200023FD041E0ADA9DF8040002F009F9012146
:10B530002346214A214804F0F4FE34E040F6070394
:10B540001F4D8DF80540AE68ADF806307468019B5C
:10B550003CB1082128461B4AA047041EE7DB33699B
:10B5600013B96FF05704E2E70122082128469847F3
:10B57000041EDCDB01209DF80430984001F06AFFD6
:10B580009DF805009DF804509DF8076005F0BBF993
:10B590000146284605F007FA0B4BB60045F000457A
:10B5A0009D51002CC3D1204602B070BD6FF0120433
:10B5B000BDE700BF0000AD0B4C1D010030130100C2
:10B5C00074100100CDB5000080A102402DE9F341C7
:10B5D000144683681B690BB100229847C4F3072601
:10B5E000304601F033FB0546304605F08CF94FF04C
:10B5F0000008E7B20146384605F0E5F9104B220E87
:10B60000920043F80280304601F018FB0D4A4FEAE1
:10B61000943C0CF0FC0C47F0004342F80C3001461F
:10B62000384605F0BBF9084B05F13202009330466D
:10B6300043460194520005F06FF902B0BDE8F08175
:10B6400080A1024080A00240D1B4000005F0A2B960
:10B6500070B504460C250D480E46231A9A100C4B63
:10B6600040215343DBB25D4305F17803184404F0F5
:10B6700049FF011E04DB074B2B445B689847002100
:10B6800020463346BDE87040184700BF308900208F
:10B69000B76DDBB6381401002DE9F0410F4C104DA9
:10B6A000031B9B105D43EBB20C255D43074605F180
:10B6B00078000E462044402104F03DFF011E08DBC7
:10B6C000084B2C44C4E91C36074B5B59BDE8F041DC
:10B6D000184738463346BDE8F04118473089002006
:10B6E000B76DDBB699050100381401002DE9F84368
:10B6F0000022012106460520FFF7C4FB114801F096
:10B7000031FF114B984219D101F03CFF00244FF05A
:10B710001C080C27DFF834903569494608FB0450B3
:10B7200004F0EFF9002807DB012307FB04551C4454
:10B73000042CAB67F0D10020BDE8F8836FF0040063
:10B74000FAE700BF85B700000000AD0B68140100E8
:10B7500001460C23002270B54B430848C4187833C7
:10B76000D4E91C561844226704F003FF2DB1324679
:10B770002B46BDE870400248184770BD3089002054
:10B7800024100100062812D8DFE800F0040F111180
:10B79000110D0B00064B986F10F0070007D1FFF753
:10B7A000D7BF0220FBE70320F9E70120F7E7704746
:10B7B0003089002008B54FF02003EFF3118183F3A7
:10B7C0001288BFF36F8F114A136843F0020013F021
:10B7D000010310600BD00E4BD3F80C24D3F80C34BB
:10B7E00013F0010303D00B4804F0C3FE012381F3DF
:10B7F0001188BFF36F8F23B1BDE808400020FFF729
:10B80000A7BF0120BDE8084001F0D4BED0890020C8
:10B8100000500040A889002010B54FF02003EFF33E
:10B82000118483F31288BFF36F8F074A136823F0E4
:10B830000201DB07116002D4012005F0CAF884F38D
:10B840001188BFF36F8F10BDD08900201FB5002273
:10B850000123CDE902236B46084ACDF800D0CDF88C
:10B8600004D004F0CBFE002805DB4FF48042002317
:10B87000684603F087FA05B05DF804FBCF050100C8
:10B880002DE9F843012207463649D1E8EF3FC1E8E8
:10B89000E02F0028F9D133B9334934484B60CB60ED
:10B8A0008A6004F041F97B1E012B2ED8012F06D1AE
:10B8B0002F4BD3F81C3403F00303022B25D005F0E3
:10B8C000FFF9044618B92B4B1B78002B44D14FF0DD
:10B8D0002003EFF3118683F31288BFF36F8F0124E7
:10B8E000234DDFF89C80A946D5F81824D5F81834E4
:10B8F000D2030CD503F00303022B01D0012F06D194
:10B9000034B386F31188BFF36F8FBDE8F883D4B1E9
:10B910003046FFF73DFBD5F81835DBB2012BE3D1FC
:10B92000D8F80020002ADFD00022C8F80020D8F87C
:10B93000002002222021C5F818250F4AC2F88011E4
:10B940000E4A1360D0E70021212003F037FDE2E723
:10B950000223C9F80433D8E70222054B0646C3F890
:10B960000823BDE7D4890020208900204C890020CD
:10B9700000500040B48B002000E100E0085000407F
:10B980000451004008B5074805F082F938B106486F
:10B99000FFF726FD0448FDF7BBF9002008BD6FF056
:10B9A0001200FBE760100100ADB900000A2838B5AD
:10B9B0000446074D04D1AB680D2128465B689847C3
:10B9C000AB6803485B68E1B29847204638BD00BFCA
:10B9D000601001004209034670B502D0012A1CD054
:10B9E00070BD0F4E326951680029F9D00C680125ED
:10B9F000002C38BF002403F01F039D408A682A40B2
:10BA000002D030464B689847002CE9D02368214685
:10BA1000002B38BF00231C46F0E7024EE2E700BFD0
:10BA2000381001004C10010038B545682B690BB97E
:10BA3000002038BD1035284602F08AFA0446002856
:10BA4000F6D10146284602F03DFA084B98420AD149
:10BA500022462846064902F009FA224605212F20EF
:10BA6000FFF710FAE4E76FF00400E2E70000AD0B27
:10BA7000D5B900002DE9F04340F206354668D006FE
:10BA800048BF4FF0030C337B02EA050558BFC2F3F1
:10BA9000401C87B001F01F07B5F5837F144647EAC5
:10BAA00043178DF803C044D00FD8062D18D007D8FF
:10BAB000B5B1022D3FD06FF0150007B0BDE8F0839F
:10BAC000B5F5807FF7D101250AE040F202229542C8
:10BAD00033D0B5F5407F32D0B5F5007FEBD10225EC
:10BAE00022032ED50122736802FA01F199603369AD
:10BAF0008BBB07F01F007F092BD0012F78D13F4A65
:10BB000002EB800284F48033D2F80012C3F30043C6
:10BB1000C4F3404444EA430421F4706144EA8C04D1
:10BB200021F00F0144EA05230B43C2F80032002044
:10BB3000C3E70725D4E70425D2E70525D0E7032589
:10BB4000CEE7630341BF0122736802FA01F1D960B5
:10BB5000CDE72B4AD4E71036394630460DF10202C4
:10BB600002F092F914F4403F80460CD13946304639
:10BB700004F0DDFF234B9845D9D130469DF80210E3
:10BB800002F0F4F9D3E74FF0000901AB3946304633
:10BB900003AACDE90439CDE90199CDF80C9001F063
:10BBA000D1FF184B984286D114F4003315D09DF87C
:10BBB000033084F48034C4F300448DF80E303946E9
:10BBC0004B46304603AA8DF80C508DF80D4002F01C
:10BBD000AFF80C4B9842CDD06DE7CDE90433394630
:10BBE0000DF10303304603AA039301F0ABFFF0E726
:10BBF00000F1800253F82230FFDE00BF00288440AD
:10BC0000002584400000AD0BF0B5406801F01F0432
:10BC1000057B87B044EA45140569002D63D0B2F571
:10BC2000001F00F1100506D12146284604F081FFCF
:10BC3000002007B0F0BD0027B2F5800F01AE0197DC
:10BC4000776039D1B3F1007F0CBF042305238DF851
:10BC500004300023CDE904630393836823FA01F1E0
:10BC600011F001011AD1B2F1A07F17D104F01F0326
:10BC7000620903F180032AD0012A3AD11E4A52F800
:10BC80002330DB070AD40DF103063246214628464D
:10BC900002F0FAF8194B98421BD00296214628462A
:10BCA00003AA01F04FFF164B98421FD101222146F3
:10BCB000284602F06FF9BBE7B3F1C06F05D0B3F1CE
:10BCC000007F0CBF02230123C1E70323BFE70D4A16
:10BCD000D5E73146284602F053F9094B9842DCD0AB
:10BCE0006FF00B00A5E76FF08500A2E76FF015007D
:10BCF0009FE751F82330FFDE002884400400AD0B9D
:10BD00000000AD0B0025844038B50F290C460569AD
:10BD100031D843681B68CB40DB072CD5D5F884307D
:10BD2000CB4003F001031AB943BB6FF0770024E066
:10BD3000002BFAD155F8213023B90221164A1748B1
:10BD400004F0E6FAD5F8843013B92A20FFF768F832
:10BD5000012303FA04F2D5F884301343C5F8843084
:10BD6000E0B202F0A3F9D5F8844014B92A20FFF715
:10BD700067F8002001E06FF0150038BDC8B202F08E
:10BD80009DF9012303FA04F4D5F8843023EA04036F
:10BD9000C5F88430E7E700BFCF1D0100081301009C
:10BDA00038B505460C4622B102210C4A0C4804F075
:10BDB000AFFA0F2C0ED86B685B68E340DB0709D540
:10BDC00001230020A400E4B204F1804404F52834E7
:10BDD000236038BD6FF01500FBE700BFFF1D0100B9
:10BDE0000813010070B50F2804460D46D1F8806095
:10BDF00004D873681B68C340DA0704D402210E4AD2
:10BE00000E4804F085FAD5F88430E340DB0704D40B
:10BE100002210B4A094804F07BFA05EB840255F82D
:10BE200024503DB121463046AC46BDE87040002369
:10BE3000126C604770BD00BF1A1E0100081301009C
:10BE4000361E010010B504460269A2B0C2F8800097
:10BE50001F49002002F0F2F8002201212A20FFF7FA
:10BE600011F864688422002101A804F01FFB6368B4
:10BE7000B3F5803F04D30221164A174804F048FA6C
:10BE80002368B3F5803F04D30221144A124804F01A
:10BE90003FFA00230120219301AA61680432D940AE
:10BEA000C90744BF00FA03F142F8041C2168D940D5
:10BEB000C90748BF00FA03F103F1010348BFD1638A
:10BEC000102BEAD101A802F0D1F8002022B010BD59
:10BED000E5BD0000531E0100081301007F1E010094
:10BEE000036803F01F025B09026004D0012B0348C2
:10BEF00018BF002070470248704700BF00288440E8
:10BF0000002584402DE9F04F15460746DFF86C9177
:10BF1000DFF86CA185B000EB81018F4203D10020D6
:10BF200005B0BDE8F08F3B68C3F34322082A03F055
:10BF30007F0400F29C807F2C4FEA134308BF4FF030
:10BF4000FF3419F80280222B00F29480DFE803F01E
:10BF5000122129362C323692929292929292929299
:10BF6000929292929292394245489292924B4F52BB
:10BF700055585B00C5F80C45631C29D0012603A861
:10BF80000394FFF7ADFF039BB34606FA03F3836008
:10BF900049E0C5F814450026631C19D04FF0000B8A
:10BFA00041E0C5F80845E7E70026C5F80845621CEA
:10BFB0002FD10DE00126C5F80C45F8E7C5F810456E
:10BFC000E9E7C5F860453B68601CC3F380331DD1C9
:10BFD0000437A2E7C5F86445F5E7C5F86845F2E718
:10BFE000C5F86C45EFE7C5F824450126D4E7C5F848
:10BFF0002845C1E7C5F83045F7E7C5F83445F4E70B
:10C00000C5F83845F1E7C5F83C45B5E7002BB5D193
:10C0100001264FF0010B03A80394FFF761FF039B78
:10C020000BFA03F3C3603B6803A803F40052002A31
:10C030001CBF01264FF0000B01930394FFF750FF44
:10C04000039A019B00EB8200D0F80022C3F3C113D6
:10C050004FEA082848EA830848EA0B0802EA0A027D
:10C0600048EA020848EA4606C0F80062B0E76FF006
:10C07000150055E76FF0850052E700BFC41E0100B0
:10C08000F0F0FCFF2DE9F74306464FF000080022D0
:10C0900001210820FEF7F6FE0820FEF7C1FE7768B2
:10C0A00035693C684146C4F800852E60D7F80C908D
:10C0B00001AA484604F01EFB00283ADB019BD9F890
:10C0C000002019791868FFF71DFF002831DB6B7A13
:10C0D000012B03D0032B2AD14FF01008AB7A032B8E
:10C0E00025D195F80BC0BCF1000F02D0BCF1010FB7
:10C0F0001DD12A7A012A1FD0022A21D0BAB91146AD
:10C100006B687068B3F5164FD0F800E060D034D893
:10C11000B3F5165F00F081801CD8B3F5966F7ED022
:10C1200010D8B3F5967F7DD0B3F5167F7DD06FF034
:10C13000850003B0BDE8F0834FF480710E22DFE785
:10C140000021FBE7B3F5166F72D0B3F5965FEED121
:10C150005C4B3FE0B3F5E14F6DD007D8B3F5615FBD
:10C160006BD0B3F5964FE2D1574B33E047F6122030
:10C170008342DCD14FF400032CE0B3F5613F5ED085
:10C1800013D8B3F5963F5DD009D84DF6C020834251
:10C190005AD0B3F5614FCAD14FF46B031AE0B3F52F
:10C1A000E13FC4D14FF0EB7314E0B3F5612F4ED0F3
:10C1B00008D8464883424DD0B3F5E12FB7D14FF0B0
:10C1C000E86307E042488342B1D14FF0805301E079
:10C1D0004FF41D033069CEF82435736841EA0C0131
:10C1E0001B6842EA08020A43C3F86C25031DD5E91F
:10C1F000010183E803007B6899073AD505F118002F
:10C2000001F098FA334B984227D033480121334A42
:10C2100004F07EF86FF004008BE7314BDAE74FF45F
:10C220009E23D7E74FF4A033D4E74FF41C33D1E774
:10C230004FF41D23CEE72B4BCCE72B4BCAE74FF037
:10C240006C73C7E7294BC5E74FF46503C2E74FF0AE
:10C250007063BFE74FF08063BCE7287E04F10C02F7
:10C2600004F5907104F0A4FB01202B7E984001F0AE
:10C27000F1F80823C4F800353B7A53B9C4F81031FB
:10C28000D4F810316B69C4F834350123C4F838355B
:10C2900023607B6800209A075CBF4FF48073C4F86A
:10C2A00004337B68DB0644BF4FF48003C4F80433D7
:10C2B0002B69C4F844350123C4F84805A360E36042
:10C2C00037E700BF00B0130000A04E0090D003007D
:10C2D00040420F000000AD0B38130100CD1E0100DD
:10C2E0000050270000C0750000F03A0000903A01AD
:10C2F000F8B504460D46076904F0E2FC10B92E4B70
:10C300001B788BB94FF02003EFF3118683F312886B
:10C31000BFF36F8F6068314604F054FA30BB86F388
:10C320001188BFF36F8FEDE76426606804F04AFA66
:10C3300070B9012004F030FB013EF6D1002121202C
:10C3400003F03CF8F0E786F31188BFF36F8FF5E751
:10C350004FF02003EFF3118683F31288BFF36F8F42
:10C360006068314604F02EFA0028ECD03B691D705D
:10C37000626838691368C3F844050120C3F84805AA
:10C380000020C3F82001D3F82051C3F858015268A7
:10C39000D3F85801D20608D5082062681268C2F89E
:10C3A00000054FF48002C3F8042301229A6081F350
:10C3B0001188BFF36F8FF8BDB48B002008B5012141
:10C3C000034A044804F022FA6FF0040008BD00BFDD
:10C3D000061F0100281301002DE9FF4104690646EC
:10C3E000A36C226D63B982B93469226304F1200021
:10C3F00002F0A4FC002384F85C3004B0BDE8F081B6
:10C40000002A42D09A4228BF1A467768616C3D8F55
:10C41000D4F84C80954228BF154669B163B101F04C
:10C420006043B3F1005F07D0082D28BF0825206EB8
:10C430002A4604F030F8216EE36C5BB1226D4AB1FC
:10C4400008F06042B2F1005F04D0082D28BF082533
:10C45000D4F86480626CA56500911AB1A26C002AC0
:10C4600018BF2A46CDE901281BB1236D002B18BF48
:10C470002B46002269463846039302F0C1F8044B6C
:10C480009842BAD06FF00402AEE71A46BDE700BF8B
:10C490000000AD0B2DE9F04383B0456800AFD5F83F
:10C4A0003C800669002140463A1D04F023F9041E31
:10C4B00018DB7B68D8F8002019791868FFF722FD8F
:10C4C000041E0FDB296C481C17D005F1440000F056
:10C4D00017FB10F1130F044609D101212F4A3048F0
:10C4E00004F094F920460C37BD46BDE8F0830534CE
:10C4F00003D1FFF763FF0446F4E74FF001086B6BCD
:10C500009847B568D6E9023203EBC2039D4204D3D3
:10C51000304604F09AF90024E4E7286804F0B8FBF8
:10C520000346C0B92A686C468AB0106829796A4601
:10C53000D1614FF400711B4D11841B49C2E90550B4
:10C5400042F8101F4FF411511548FDF72BFEA54678
:10C550006FF01204C6E728682979EB88D0F810C07C
:10C56000DA07DCF8004054BF43F4B01383F4D0136F
:10C5700023F4801208FA01FEDB07D0F808904CBFC4
:10C5800044EA0E0424EA0E04CCF80040D9F8003046
:10C590009847041EA6DB0835B4E700BF231F01003F
:10C5A000281301004E1F01000400000138B5027875
:10C5B00003460C4662B98D6D5DB94B6D1C696FF019
:10C5C0007303236304F1200002F0B8FB84F85C508D
:10C5D00038BDC86C48B10A6D3AB1DB682BB18342F3
:10C5E00003D02A46496E03F056FFA36C3BB1A26DFF
:10C5F0009A4213D90121224A224804F007F9236DF7
:10C600003BB1A26D9A4222D901211D4A1D4804F076
:10C61000FDF8606DBDE83840FFF7DEBE9B1AA364ED
:10C620007BB9636B04F1480208336363A36B04F1C5
:10C630003801013BA36304F1340004F0F3F86064B3
:10C64000DDE7636C002BDAD013446364D7E79B1AF1
:10C6500023657BB9E36B04F150020833E363236C79
:10C6600004F14001013B236404F13C0004F0DAF8DA
:10C67000E064CEE7E36C002BCBD01344E364C8E75F
:10C68000721F0100281301002DE9F04F8FB000AF99
:10C69000FB60436888467B608B8806469904914618
:10C6A000046933D44FF0FF324FF0FF3304F1100030
:10C6B00002F068FBC4F80480D6F804B0D6F810A0E5
:10C6C000DBF80830BB609AF85D3023B1DAF800304F
:10C6D000984500F02881B8F804E01EF400631CD0EF
:10C6E0000121724A724804F091F86FF085052368C1
:10C6F0009B8813F4005304D1636004F1100002F02E
:10C700001DFB28463C37BD46BDE8F08FA369002BD2
:10C71000C8D163689845C5D1CEE71EF0010F15D08A
:10C720006D4688B031686A466248C2E905014FF437
:10C7300000719183604942F8101F4FF4E2515C4848
:10C74000FDF730FDAD466FF01505D0E71EF0080F80
:10C7500005D05A4A0121564804F058F8F3E7CEF3C1
:10C760004513082B01D0564AF4E7D8F800303B6057
:10C770003A68544B9A4201D8534AEBE7534BBA6894
:10C780009A4208D9524AD2F8582512F0030FBA68D3
:10C7900018BF1A46BA6007F110050BF10C0CBCE883
:10C7A0000F000FC5BCE80F000FC53B689CE80300F5
:10C7B00085E80300B9688B4228BF0B461A46454BF3
:10C7C0009A4217D2414B9A4214D2434B9A4211D209
:10C7D000424B9A4250D8424B9A424FD8414B9A42D0
:10C7E0004ED8414B9A424DD84048414B4149824234
:10C7F00098BF0B461EF0020F7B620EF0040343D07D
:10C80000002B14BF0323022387F82830CEF3001334
:10C8100087F82930DBF800301EF0020FD3F8083516
:10C82000CEF340014FEA531203F01F0332D17AB323
:10C83000012A40F037813049012202FA03F3CB602C
:10C840009AF85D302BB1584601F08EFE00238AF82D
:10C850005D305346294A584607F1100101F052FE57
:10C86000274A0346904259D00121264A104803F036
:10C8700058FD6FF004053AE7234BBBE7234BB9E7BC
:10C88000234BB7E7234BB5E7003B18BF0123BBE7BA
:10C890002149D1E742B1012A40F00681164901221F
:10C8A00002FA03F38B60CBE71B49F8E7901F010006
:10C8B00028130100AA1F010003000001CC1F010082
:10C8C000EB1F010047E801001A2001000024F400DA
:10C8D000005000400048E80100127A00FF083D00C7
:10C8E0007F841E003F420F001FA107008FD003006E
:10C8F00090D0030048E8010000288440ADC5000046
:10C900000000AD0B4B20010000093D0080841E009B
:10C9100040420F0020A10700002584400123CAF8EF
:10C9200000808AF85D30012384F85C307B68196CE4
:10C930004A1C0AD003F1440003F0B1FF743004D163
:10C9400002215B4A5B4803F061FFB9F1000F71D12E
:10C950004A46C4F83490A26304F1380104F1480255
:10C9600004F1340003F05EFFFB686064002B69D1C2
:10C97000E363236404F1500204F1400104F13C003C
:10C9800003F050FF0023E0642068236348B183680C
:10C990003BB10121083003F025FF2368186904F03A
:10C9A00072F93046FFF718FD00231A46A06B824249
:10C9B00050D100252A46206C824252D1AB4238BF6A
:10C9C0002B46A0464FF4FA555D4358F8203B4FF4F0
:10C9D000004C1B6840F2E730B5FBF3F50021C83589
:10C9E0004FF47A720023ECFB0501FBF7B3FB024620
:10C9F0000B46404602F0C6F9002839D001212E4AE4
:10CA00002C4803F003FF00256FF073097868A565D3
:10CA100001F0AAFD84F85D503669C6F8309006F141
:10CA2000200002F08BF986F85C50404602F0D4F901
:10CA30004D4621E0D9F800206263002A8BD0D9F856
:10CA4000042088E7FB681B68E363002B91D0FB6838
:10CA50005B688EE7616B01EBC201496801320B44F0
:10CA6000A5E7E16B01EBC201496801320D44A3E780
:10CA7000256B15F1740FC6D02368002B3FF437AE39
:10CA80009A68002A3FF433AE998811F480567FF4F7
:10CA90002EAE186904F0F7F820683146083003F02C
:10CAA000A1FE24E6C960FFDE00239B60FBE700BF18
:10CAB00072200100281301009C20010010B500F035
:10CAC0001F0440090DD001280DD10A4B03EB84034C
:10CAD000D3F80002084A024042EA8102C3F8002269
:10CAE00010BD064BF2E7002204F1800352F8233018
:10CAF000FFDE00BF00288440F0F0FCFF00258440EA
:10CB00000123F0B587B08DF80230022300248DF8A0
:10CB100004306B4403930F4601AB0DF10301049302
:10CB200005460291059401F02BFA0C4B06469842FB
:10CB30000FD13946284603AA01F004F8B0420BD0C1
:10CB400028469DF8031001F011FA6FF0040007B0B9
:10CB5000F0BD6FF01200FAE72046F8E70000AD0BD9
:10CB600030B40F4B22F07F41D3E90045101B24184D
:10CB700045F10005C3E90045A1F50013B3F5400FE9
:10CB80000AD2084B1C68220652184FEA14230649A1
:10CB900043F10003C1E9002330BC02F043BD00BFF4
:10CBA00090870020848A002068870020012383402A
:10CBB00010B5DC430C4AD2E8EF1F01EA040CC2E8CE
:10CBC000EECFBEF1000FF6D14FF4803202FA00F042
:10CBD000064AC2F80803BFF35F8FBFF36F8F0B42A3
:10CBE00014BF0120002010BD808A002000500140A9
:10CBF00001230E4A8340D2E8EF1F1943C2E8EC1F1D
:10CC0000BCF1000FF7D14FF48033094A8340C2F8DA
:10CC10000433084BD3E8AF3F23FA00F0C30742BF09
:10CC20004FF40012044BC3F800217047808A0020A3
:10CC3000005001407C8A002000E100E0C3B20248BD
:10CC40009B001844704700BF40510140024B00F563
:10CC5000A87053F820007047005001400D4B1B682E
:10CC6000190A1806BFF35F8F0B4BD3F80435C018B1
:10CC700041F10001B3F5801F0AD2084BD3E900232C
:10CC8000994208BF904203D210F1807041F1000137
:10CC9000704700BF848A0020005001406887002050
:10CCA0002DE9F04F85B016461F4604469DF840A07A
:10CCB000FFF77CFF0190FFF7D1FFB94208BFB042F8
:10CCC0005FD200234FF40002B6EB000867EB0109C6
:10CCD0004B4508BF42450AD26FF01505019B13B1C1
:10CCE0002046FFF785FF284605B0BDE8F08F314BA1
:10CCF00003EB0413D3E902239F4208BF96424DD0B1
:10CD00004FF480392C4D09FA04F9204626F07F4B68
:10CD1000C5F8489303F0EBFD5846032304F1500196
:10CD2000890089B201F1804104F5A87201F5A831AA
:10CD30000292029A20F07F4C45F822C0C5F8449335
:10CD4000D5F804851D4AA0EB0800033820F07F4089
:10CD5000904223D9086868B10393D5F80485A8EBFD
:10CD60000B0020F07F40B0F5000F17D9204603F0EC
:10CD7000BEFD039BBAF1000FAED103EB08000133F7
:10CD8000D7E7BAF1000FA7D101230D4AA340D2E89B
:10CD9000EF1F1943C2E8E01F0028F8D105490E989B
:10CDA0002301C8500F9B01EB04120025C2E9026762
:10CDB000536093E77087002000500140FDFF7F0023
:10CDC0007C8A00207FB500254FF0FF304FF0FF3107
:10CDD0004FF480321D4C1E4B0226C4F80833C4F8B1
:10CDE00048331C4BC4F80855C3E90201C4F80423B6
:10CDF000C3E906014FF400334FF40012C4F80433C2
:10CE0000154B0121C4F804631520C3F880212A467C
:10CE1000FEF738F81520FEF703F801230F4A2846DD
:10CE20001360032223600E4B1A600E4B0E4A1E60E5
:10CE30000E4BCDE9015500930023FFF731FF30463B
:10CE4000FEF71EFD284604B070BD00BF0050014033
:10CE500003000F007087002000E100E0085001404F
:10CE6000808A0020788A0020FFFF7F0061CB0000CD
:10CE70002DE9F04F364B87B0D3F804339A0709D524
:10CE8000344B1A6832B100221A60334A1B681368A7
:10CE900001331360314D0024AA46DFF8B480304FCF
:10CEA0004FF48036D8F80433A6401E4246D0012302
:10CEB000A340DB43D7E8EF2F02EA0301C7E8E01FF6
:10CEC0000028F7D122FA04F3DB0704D4254B53F8EA
:10CED0002430002B32D0204603F009FDFFF7BEFEC0
:10CEE0004FF02002EFF3118982F31288BFF36F8FA6
:10CEF0000AEB0412D2E902BC614508BF5845CDE9EE
:10CF000002BC4FF0000020D3D5E900134FF0FF3BE7
:10CF10004FF0FF3C28600593C2E902BC2046C8F8E8
:10CF2000486303F0E4FC89F31188BFF36F8F29B1E4
:10CF3000059B20460093DDE902238847103514B194
:10CF400007B0BDE8F08F0124AAE70146EBE700BF78
:10CF50000050014004510140848A00207087002065
:10CF60007C8A00204051014010B501240C4B186808
:10CF700098B1B0FA80F0C0F11F0004FA00F1C94383
:10CF8000D3E8EF2F02EA010CC3E8EECFBEF1000FA9
:10CF9000F6D1C240D207EAD510BD6FF00B00FBE717
:10CFA000788A00200123054A8340D2E8EF1F194305
:10CFB000C2E8E01F0028F8D1704700BF788A00203F
:10CFC0001FB5431C114C04D001281DDD8442A8BFAD
:10CFD0000446FFF743FE0E4B0E49D3E90023801AA7
:10CFE000B0F5000F28BF0024044408480091844293
:10CFF00028BF044600201219CDE9010043F10003C7
:10D00000FFF74EFE04B010BD0124E2E7FFFF7F00F2
:10D010009087002061CB000008B5FFF71FFE024B90
:10D020001B68C01A08BD00BF9087002010B50749D3
:10D03000074803F085FC044628B101210346054A50
:10D04000054803F06EF9204610BD00BFA9D20000CC
:10D05000888A0020E2200100181301002DE9F04128
:10D06000DFF840820D46D8F8704000AF072C00F082
:10D0700008065BD0132C00F0A080052C40F0B9808E
:10D08000D8F854806C496D4803F056FC18F4805F62
:10D0900041D06B49694803F04FFC172418F4006F26
:10D0A00004D06849654803F047FC182418F4007F51
:10D0B0000ED06549614803F03FFC644B18F4004F03
:10D0C0009B6B04D00121624A5C4803F02AF91924C1
:10D0D00018F4806F04D05F49584803F02DFC1A24DF
:10D0E00018F4807F19D05C49544803F025FC1B24B8
:10D0F000EB69002E40F09B80C3F3080222B96FEA6F
:10D1000053236FEA4323EB6129462046FDF70CFBCE
:10D11000BD46BDE8F0811624C0E718F4005FE7D0F3
:10D120004E49464803F008FC1C24E1E7D8F85C406F
:10D1300042484B4903F000FC600606D5D8F8683039
:10D140000121484A3D4803F0ECF8E10705D546497E
:10D150003A4803F0F1FB2624CAE7A20705D5434964
:10D16000364803F0E9FB2724C2E7630705D54049A9
:10D17000324803F0E1FB2824BAE7200705D53D49F2
:10D180002E4803F0D9FB2924B2E7E10605D53A4938
:10D190002A4803F0D1FB2A24AAE7A20605D537497D
:10D1A000264803F0C9FB2B24A2E723063DD53449CA
:10D1B000224803F0C1FB2C249AE7D8F86C8031494F
:10D1C0001E4803F0B9FB18F0020F03D02E491B488C
:10D1D00003F0B2FB18F0010F03D02C49174803F0FD
:10D1E000ABFB18F0040F83D02949144803F0A4FBCB
:10D1F0007EE7284A284BE8468AB00F2CC8BF134662
:10D200006A462649103CC2E905134FF400731384A3
:10D21000234BD46142F8103F00234FF411510748CB
:10D22000FCF7C0FF0024C54662E7252460E723F42D
:10D23000FF7323F0010366E73E1A01001813010093
:10D24000541A0100651A0100781A010000ED00E08F
:10D25000911A0100A61A0100C11A0100D91A010091
:10D260001C21010035210100452101005B21010045
:10D270007921010094210100B1210100C6210100A2
:10D28000E0210100F32101000D2201003D220100F7
:10D290006B220100B31B01009E1B0100941C0100C6
:10D2A00004000001888A002000B5104B89B05A6A3A
:10D2B000D86C00929A6A20F005000192DA6A6946F9
:10D2C00002921A6B03925A6B04929A6B0592DA6B74
:10D2D00006921A6C1B6D07929B0748BF40F0040032
:10D2E000FFF7BCFE09B05DF804FB00BF888A002090
:10D2F0002DE9F0411F46164B044693F800800D4679
:10D300001646A2B0B8F1000F15D1684603F090F8A8
:10D310003A4631462846289BA0470446684603F013
:10D3200088F8B8F1000F02D00A4801F045FC204609
:10D3300022B0BDE8F0814FF0FF324FF0FF330548D7
:10D3400001F07CFC0028E0D06FF08304EFE700BF21
:10D35000B48B002084820020002300B589B0CDE981
:10D36000063303AB0493042303900593A9B10B6820
:10D3700006934B6807930223111E18BF012108482A
:10D38000CDE9002140F2F53104AA00F00BF80028A5
:10D39000B8BF012009B05DF804FB0123ECE700BF32
:10D3A0000501004010B4B1F5004F029C0ED2042BD1
:10D3B0000CD8042C0AD8240444EA0364134644EA33
:10D3C0000102014610BC0348FFF792BF6FF08000D6
:10D3D00010BC7047217C000070B501250268AAB11D
:10D3E000B2FA82F3C3F11F03DBB205FA03F422EAB7
:10D3F0000404D0E8EF6F964204D1C0E8EC4FBCF1D2
:10D40000000FF6D1EAD102480B7070BD0148FCE76D
:10D410000000AD0B0200AD0B10B50368CB40DB077D
:10D4200011D4012303FA01F1036841EA0302D0E8B1
:10D43000EF4F9C4204D1C0E8EC2FBCF1000FF6D1B5
:10D44000F2D1024810BD0248FCE700BF0000AD0B5E
:10D450000400AD0B014BC3F8040570470070014098
:10D46000014BC3F80805704700700140F7B5054649
:10D4700003284CD8DFE800F0021F28340222374B83
:10D48000C3F808230122DA60002203F582731A60D0
:10D490001B6801239D4218BF002442F210772F4ED3
:10D4A0008DF8073008BF0DF10704032D2FD8DFE8F2
:10D4B00005F023303A420123284AC2F8083353606A
:10D4C0000022274B1A60E3E74FF40072234BC3F8A6
:10D4D000082301225A62002203F592731A60D7E7EB
:10D4E0004FF480721D4BC3F808230122DA61002239
:10D4F00003F590731A60CBE7D6F81834C3F30043F2
:10D500004CB3D6F8182402F003022270F3B903B02A
:10D51000F0BDD6F80C34C3F30043E4B1D6F80C24C4
:10D5200002F00102F1E7D6F85C34C3F3004394B192
:10D53000D6F85C24F4E7D6F85434DB03E7D52CB9ED
:10D54000012003F029FA013FAFD1E0E79DF8073051
:10D55000012BF5D0DBE7002BF2D1D8E700500040DB
:10D5600000510040044B1A7922B9012218601A7147
:10D570000248704702487047FC8A00200000AD0B4B
:10D580000C00AD0B08B5094B1B6833B10520FDF746
:10D590006BFC10B90520FDF743FC0122044BC3F8D6
:10D5A0001825C3F81425C3F8802508BDFC8A00207F
:10D5B0000050004010B503284FD8DFE800F01C559C
:10D5C000024F20224FF492734FF40070002103F1B8
:10D5D000804303F5A04319601C68012402F18042D6
:10D5E00002F5A0421460254A1268002A41D0244B5B
:10D5F000C3F8040331E0224AD2F81814D2F81834E0
:10D60000C90311D503F00303022B05D0012B03D06E
:10D610000020FFF72BFF0123194A0220C2F818351A
:10D6200008224FF48273D1E7D2F81434DB07F2D525
:10D63000D2F81C3403F00303013B012BE8D80F4B55
:10D640001B683BB90F4B1A68002AFCD000221A60F5
:10D650001B6802E00223C2F8043310BD18224FF405
:10D6600090734FF48070B1E700224FF48073012073
:10D67000ACE71A68002AFCD01960E9E7FC8A0020B0
:10D68000005000400451004010B5244B1A684AB1C4
:10D690000020012218601B68214BC3F80823214B8E
:10D6A0001B689847204B1A687AB100221A601B68E1
:10D6B0001B4B0221D3F81824D3F8182402F00302DC
:10D6C000012A22D1C3F818159A60184B1A685AB16A
:10D6D00000221A604FF480721B68114B0520C3F8BA
:10D6E0000823104B1B689847114B1A68A2B10022FF
:10D6F0001A604FF400721B68094B0620C3F8082318
:10D70000084BBDE810401B681847C3F80813054BC9
:10D7100001201B689847D8E710BD00BF00510040AA
:10D7200000500040FC8A002004510040205100407D
:10D730002451004001460148FFF74EBE24810020DD
:10D740000123044A83400146C2F808350248FFF726
:10D7500063BE00BF0070014024810020036803F015
:10D760001F025B09026004D0012B034818BF002090
:10D7700070470248704700BF00288440002584405D
:10D78000034A4309D35C00F01F001844C0B270473D
:10D790009F22010010B504460846FFF7F1FF42231F
:10D7A00003FB0404034B083433F81400C0F34010A7
:10D7B00010BD00BF2881002010B504460846FFF7C1
:10D7C000DFFF422303FB0404024B083433F8140048
:10D7D000400B10BD2881002070B505460846FFF7B4
:10D7E000CFFF42212A79174B01FB0202083233F89E
:10D7F0001240E10525D5C4F3432124F4F85423F85D
:10D800001240842400262A7904FB0234103434F8B0
:10D81000020B10F4807F03D0C0F34320814210D06C
:10D820000136302EF3D184240020624302EBC10282
:10D830009850287904FB0030BDE870407830FFF73D
:10D84000EBBD70BD28810020024611F0010010B52B
:10D850000BD18B07C1F340000DD50749086A506012
:10D860000862003818BF012005E0044C236A1360E9
:10D870002362002BEDD010BD002884400025844099
:10D88000F0B5054600200126044607468C4208D123
:10D890000F4B1A6822B100221A601B6840F000404A
:10D8A000F0BDE3B29B0003F580729B0806FA03F318
:10D8B0001D420BD002F1804202F53C32D2F800C08A
:10D8C000BCF1000F02D01760126818430134DDE785
:10D8D0007CF102402DE9F04F0446634B216FD3F8F1
:10D8E000040387B0C0B240F00040FFF7C9FF061E36
:10D8F0002CDA0023E16F04A8CDE90433FFF7A4FF7D
:10D90000DFF86C91DFF86CA10DF1100819F8013BFC
:10D9100004EBD30292F87C2003F0070322FA03F30E
:10D92000D90769D4514B08F104084B450AF1010AA3
:10D93000ECD1216F4FF00040FFF7A2FFE16F04A888
:10D94000FFF782FF0028DBD126F000460125002EDC
:10D9500070D107B0BDE8F08F93FAA3F3B3FA83F365
:10D960009AF80050019343EA45152846FFF708FF4F
:10D97000083034F81020019B9108C2F3820701227D
:10D98000D80818F800C003F0070302FA03F32CEAE2
:10D99000030308F8003003A80395FFF7DFFE039B9D
:10D9A0004A0703F1800350F82330BB46C3F3014319
:10D9B00027D55A4629462046DFB203F062F803A86D
:10D9C0000395FFF7CBFE039B803350F82330C3F35E
:10D9D00001439F4207D10021284603F043F839460E
:10D9E000284603F03FF803A80395FFF7B7FE01228E
:10D9F000039B02FA03F30362D8F80030002BABD18B
:10DA000090E7022B0CBF032102212846019303F06B
:10DA100029F8032F04D0019B022B07D1012FE2D15B
:10DA20005A462946204603F02CF8DCE7032BDAD1CE
:10DA3000022FF4E796FAA6F3B3FA83F305FA03F29A
:10DA40009B0003F1804303F53C33D3F8101526EA1D
:10DA50000206D3F810252046C2F30142C1F3052186
:10DA600003F00FF873E700BF00F00240B12201009D
:10DA7000AF220100AF22010010B504460846FFF7AF
:10DA80007FFE4222237902FB0303044A083332F863
:10DA9000130080F00200C0F3400010BD2881002078
:10DAA0002DE9F341054608460C46FFF769FE422280
:10DAB0002B79204E02FB0303083316F81330074678
:10DAC000DB0734D5284603F00DF895F8048021468D
:10DAD0004046FFF75FFE58B14046FFF76DFE03B2C8
