:020000025000AC
:10000000901B0420B51F0500FB830500A11F050000
:10001000A11F0500A11F0500A11F0500A11F0500CC
:100020000000000000000000000000004921050061
:10003000A11F050000000000E1200500A11F050030
:10004000292305002923050029230500292305006C
:10005000292305002923050029230500292305005C
:10006000292305002923050029230500292305004C
:10007000292305002923050029230500292305003C
:10008000292305002923050029230500292305002C
:10009000292305002923050029230500292305001C
:1000A000292305002923050029230500292305000C
:1000B00029230500292305002923050029230500FC
:1000C00029230500292305002923050029230500EC
:1000D00029230500292305002923050029230500DC
:1000E00029230500292305002923050029230500CC
:1000F00029230500292305002923050029230500BC
:1001000029230500292305002923050029230500AB
:10011000292305002923050029230500292305009B
:10012000292305002923050029230500292305008B
:10013000292305002923050029230500292305007B
:10014000292305002923050029230500292305006B
:04015000292305005A
:1001540053B94AB9002908BF00281CBF4FF0FF312A
:100164004FF0FF3000F00CB8ADF1080C6DE904CE8F
:1001740000F008F8DDF804E0DDE9022304B070477C
:10018400704700BF2DE9F04786468C460846089E16
:10019400154674461946002B40F0C1808542B2FAD8
:1001A40082F245D94AB1C2F1200300FA02FC95401B
:1001B40094402EFA03F343EA0C0C4FEA154EA8B20E
:1001C400230CBCFBFEF80EFB18CC08FB00F943EA39
:1001D4000C43994528D9EB1808F1FF3704D2994507
:1001E40002D9A8F102072B44A3EB0903A4B2B3FB81
:1001F400FEFC0EFB1C330CFB00F044EA0344A0425B
:1002040014D92C190CF1FF3304D2A04202D9ACF159
:1002140002032C44241A43EA07401EB1D4400023AD
:1002240034607360BDE8F0874746DDE76346F1E775
:1002340092BB431B01214FEA154EAFB2200CB3FB16
:10024400FEFC0EFB1C330CFB07F840EA0343984505
:1002540061D9EB180CF1FF3004D2984502D9ACF106
:1002640002002B44A3EB0803A4B2B3FBFEFC0EFB79
:100274001C330CFB07F744EA0344A7424DD92C195D
:100284000CF1FF3304D2A74202D9ACF102032C448F
:10029400E41B43EA0040C0E7C2F1200395409440C8
:1002A40020FA03F12EFA03F34FEA154E9040AFB251
:1002B4000343B1FBFEFC0EFB1C10190C0CFB07F8EE
:1002C40041EA0041884522D969180CF1FF3004D273
:1002D400884502D9ACF102002944A1EB08019BB284
:1002E400B1FBFEFC0EFB1C110CFB07F743EA0143B8
:1002F4009F420ED9EB180CF1FF3104D29F4202D970
:10030400ACF102012B44DB1B41EA004193E7604658
:10031400E3E76146F7E76046A4E76346B8E783424C
:1003240006D916B9002108467CE7C6E900E0F9E7DA
:10033400B3FA83F78FB9834201D3724508D8BEEB71
:10034400020460EB030301209C461EB9002169E707
:100354003846FAE7C6E9004CF8E7C7F1200CBB4081
:100364000EFA07F522FA0CF42EFA0CF1BA401C43EB
:1003740020FA0CF3B8404FEA144901431FFA84FEF3
:10038400B3FBF9F809FB18300B0C08FB0EFA43EA2F
:1003940000439A4540D9E31808F1FF3004D29A4546
:1003A40002D9A8F102002344A3EB0A0389B2B3FBE8
:1003B400F9F809FB183308FB0EFE41EA03418E45A8
:1003C4002CD9611808F1FF3304D28E4502D9A8F163
:1003D4000203214443EA0040A1EB0E01A0FB029872
:1003E4004145CE46434602D306D14D4504D2013899
:1003F400B9EB020E68EB0403002EA7D0B5EB0E0296
:1004040061EB030101FA0CFC22FA07F3F9404CEA10
:100414000303C6E9003199E74046C5E74346D9E7F7
:10042400034613F8012B002AFBD1181A0138704730
:1004340038B5134D284608F0C2FB0446B8B12A6902
:10044400A9681368284623F0400313600B684FF42F
:1004540020220621984703210A4A0B4807F04DFF42
:1004640000F074F80021212005F0F2FEF8E70121E4
:100474000346064A044807F049FF204638BD00BF3A
:100484001C9305008D9C0500BC950500649C05002B
:1004940070B58AB006460D46144607F042FA0DF1CF
:1004A40007030293022302AA0C49CDE9042306AAF6
:1004B400CDE90654CDE9082351F8040B8DF8076003
:1004C4000393836804AA1C6808ABA047002802DBD6
:1004D40007F027FA00200AB070BD00BF0000042016
:1004E40010B586B001AB029302238DF805100A49BA
:1004F40002AA8DF80400CDE9042351F8040B0393F8
:10050400836804AA1C680023A047002802DB07F0C4
:1005140008FA002006B010BD0000042007B50A4BFD
:1005240018788DF8040007F00BFA01A807F00CFA0C
:100534004FF0010007F017FA4FF0000003B05DF828
:1005440004EB07F026BA00BF4096050073B51548C2
:1005540006F0AAF8FFF7E2FF684607F01EFA124811
:1005640007F08FFA00214FF4004005F071FEBDF84A
:1005740000400E48214607F084FABDF802500C48AA
:10058400294607F07EFABDF804600A48314607F0B0
:1005940078FA33462A462146074807F072FA0020C3
:1005A40002B070BDD99C0500E69C0500F49C0500D2
:1005B400029D0500109D05001E9D05002DE9F04FCC
:1005C40091B0009302F004030293C2F3C203013317
:1005D400840705460E46DDF868900392059340F0C3
:1005E400BB81041D30B1072909D86FF01B0011B07D
:1005F400BDE8F08F01F00706341DC6F10806009B24
:100604004FF000084FF0040A591E4FF0FF334746DD
:100614000193C3465346CDF810800DB1009A226071
:100624000598002800F3E8809848009A824203D392
:1006340097488242C0F0E080039AA4EB050E92072B
:100644004FEA9E0000F103810F2F00F2B180002DCC
:1006540000F0058107F140020DEB020C019A0CF841
:10066400200C0CF8102C049801300490E7E07A2850
:100674005DD84B280ED8472859D829282DD82528A5
:1006840052D054D820287AD02338D0F1000B4BEB29
:10069400000B74E04C382E2849D8DFE800F070488D
:1006A400484848484848484848484B4848484848C3
:1006B40048484859484B4B595959704B6D487048F4
:1006C400184B184848827F4B48484B487F0000200D
:1006D4004FF0000B4FF0040A38E001222A38C0B270
:1006E40002FA00F010EA0E0F49D110F0625C2FD12B
:1006F40010EA020B43D06046013C5444B4FBFAF4C4
:100704000AFB04F4002D61D0A3EB050CA444664558
:10071400FFF46BAF002868D1042B47D159F8043B90
:100724002360042304342AE0019A013A01924FF031
:10073400000B24E011F8010C6C2834D1002011F8CE
:10074400023C83466C2BC5D14FF0080A5346D3E7CD
:1007540009F1070929F00709073424F00704F9E827
:1007640002AB35B106982044B0423FF63EAFC4E92F
:1007740000AB4FF0000B08344FF0080A534611F851
:10078400010F002878D0BBF1000F7FF470AF25284B
:10079400F5D14FF0010B019B013301934FF0040A93
:1007A400ECE7584694E700208346A5E7082B02D0DF
:1007B4006FF015001BE709F1070929F00709F9E8AB
:1007C4000223C4E9002308230834D8E768B9042BBA
:1007D40002D109F10409A4E7082BE9D109F10709B9
:1007E40029F0070909F10809EDE7059A013A05928C
:1007F40059F8042B009210E7039A900720D54FF084
:10080400010CA4EB050E4FEA9E00BEF5007FCFD28B
:100814000F2FCDD8F5B107F140020DEB020E019A6E
:10082400C0B20EF8200C0EF8102CBCF1000F3FF4EF
:100834001AAF60F07F000EF8200C08F101080137B0
:10084400C5F108024FF6DA7E0434069297E74FF0BA
:10085400000CDAE7BCF1000F01D00136EFE7029893
:1008640002360028EBD10098CDE90631FFF7D8FD18
:10087400DDE906310644E2E7631BB3F5806F97D2E6
:1008840045B9A6F10804E018B1E600BF9892050046
:100894003CA80500029A9B0828602B709DF8103034
:1008A400C2B1EB7085F80280B8F1000F05D00022C8
:1008B40008A8C5F1010C97420ED14FF0000AC5F10A
:1008C40001030DF1200901930DF1300B574512D1AD
:1008D400601B8CE66B70E5E710F8013B190608D540
:1008E40004EB0C0E764503F07F03FFF47EAE04F8B0
:1008F400013B0132DFE7B8F1000F03D099F9002082
:10090400002A17DB029BD3B11AF80B2004F8012B41
:100914000022019B981820448642FFF466AE99F8A1
:100924000000009904F8010B2046039208F0CEFA67
:10093400039A14440AF1010A09F10109C6E799F876
:10094400002055F822300093029B009845F822308D
:10095400FFF766FD421CDCE76FF00D0047E600BFC1
:100964002DE9F04F95B000AFBB61BB6F0446C3F3F4
:10097400C0038A4690F802B07A623B6141B9457877
:1009840000780BEB80002044554517D8A0EB040AEF
:10099400E3787B61BBF1000F02D0BB6FD80716D49C
:1009A4007B6953BB7B6A1BB151462046BA699847A1
:1009B400554628465437BD46BDE8F08F461C3046A0
:1009C400FFF72EFD013030440AF1010ADCE72378F9
:1009D40062683B629B00FB603B6AFA6104EB83093B
:1009E4007B6A002B40F0FF80C8460026554609EB81
:1009F4000B0AD04551D1D94413E0BB6F9907D1D527
:100A0400237899463B629B00FB60636804EB890989
:100A1400FB617B6A002B7AD15546BBF1000F4FD1A5
:100A24005E46BB6F13F0050F0CBF4FF0020B4FF087
:100A3400010B7B6909EB430ABB6F03F002037B6282
:100A4400D145B6D019F8021B19F8013C54F823809B
:100A5400AB4B984502D3AB4B984538D33B69002B3D
:100A640042D0F86906F0E6FF00283DD0E8468AB097
:100A74006A46A54B5361FB69C2E906314FF4007322
:100A84001384A24B42F8103F00234FF41251A048A4
:100A940000F0FCFC023DC546D2E718F8013B54F8CF
:100AA4002300FFF7BDFCFB6F01303BB1D7F880306A
:100AB4009E423EBFFB6F23F816000136054498E7BB
:100AC400BB6F13F004061CBF7E6AD944A9E73B69D7
:100AD40023B1F86906F0AEFF0028C7D1BB6FDA076F
:100AE40005D4A5EB0B05ABE77B6A002BA8D04046E9
:100AF400FFF796FCFB6F43B1D7F880309E423FBFAF
:100B0400FA6F431C22F816300136054498E7BBF10E
:100B1400000F6ED0BB6F13F004066DD0D8460026CC
:100B240007F140005A46494608F0D0F97B69D94498
:100B34005B007B607B6909EB4303BB60BB6F03F025
:100B440002033B60BB684B4558D1B96F6378B86FFB
:100B5400890748BF002106EB030258BF4FEA58013A
:100B6400C507D2B200F19A8010F0040F14BF4046BA
:100B74000020FB616270A070E1702046BA69F968D8
:100B84007B6A9847051EFFF614AF3B6A4146237003
:100B9400FB69BA6963707B6984F802B0E37007F19A
:100BA40040007B6A9847B0F10008C0F2A480FB685B
:100BB400AAEB0B01C91A7B684846C91ABA697B6A51
:100BC40098470028C0F299804FF0000BA84408EB26
:100BD400000507F1300AB34562D30021BA6908461B
:100BE4007B6A9847E5E65E464FF0000807F130005F
:100BF40098E75E46D84699E7B04697E719F8021B8E
:100C04003F4B19F8015C54F82500984202D33D4B40
:100C140098421DD33B6923B1F86906F00BFF002805
:100C240090D13B68FBB908F1280307F1280208F1C9
:100C3400010003EB020C07F1500308F1020853FA18
:100C440080F00CF8101C5FFA88F800F8105C79E763
:100C54003B692BB1F86906F0EDFE00287FF472AF12
:100C6400BB6FDB0709D506F1280307F12802711CC5
:100C74009E1806F8205CCEB264E7BB6F58077FF578
:100C840061AF08F1280307F1280208F1010103EB21
:100C9400020808F8105C5FFA81F853E7002068E75F
:100CA4001BF80A3054F8239087F82F30FB6FFBB100
:100CB40033F81B800121BA697B6A07F12F0098473A
:100CC40000281ADB0544B8F1000F06D14846FFF7A7
:100CD400A7FB00F101081FFA88F841464846BA69A3
:100CE4007B6A9847002808DB05440BF1010B72E787
:100CF400D7F87C80DEE745465BE6054659E600BF4B
:100D0400989205003CA80500299D050004000001F7
:100D1400C4950500014B1860704700BF18000420FB
:100D240080B505460E461746984605F0ABFA0346CD
:100D340008F0A6FA0446DFF81890424649F8003055
:100D440039463046A84754F8090001F099F900BF24
:100D5400080000002DE9F047058B0446280790465B
:100D640011D4022905F0070540F0CD80204606F095
:100D7400FEFE78B10138218B042811D8DFE800F099
:100D8400C3106D85950001290CBF45F0100545F091
:100D94002005258388F31188BFF36F8FBDE8F087A2
:100DA40001F0070AAA4500F0A6800027B9463E468E
:100DB400A368002B00F0BD8041F00801218388F373
:100DC4001188BFF36F8FA168002900F0BB800D6804
:100DD400002900F0B780334652462046D1F80480FB
:100DE400C047002D76D02B6829461D46F0E701F058
:100DF40007035A1F012A1BD8002221F00701062BE2
:100E0400276889B2C4E9002209D13B4603E0628B1A
:100E1400013262831B68002BF9D141F002012046A4
:100E2400218306F0A4FE00287BD041F0200177E066
:100E3400042B0AD121F0070189B22046218306F050
:100E440096FE10B141F020012183218B01F0070AA5
:100E5400AA4550D00027B946AAE7236921F0070123
:100E640041F00601062DD3F8009021832DD1B9F16C
:100E7400000F40D041F00801218388F31188BFF3AB
:100E84006F8F20463949C84729E021F007012369BB
:100E940041F0040189B2042DD3F804902183E6D0F3
:100EA40000274FF0040A3E4682E721F00701236938
:100EB40041F0050189B2052DD3F808902183D6D0DD
:100EC40000274FF0050A3E4672E700274FF0060A56
:100ED4003E466DE72B4687E7B9F1000FD1D14FF0BD
:100EE4002003EFF3118883F31288BFF36F8F238BF2
:100EF40023F008032383258BEA062ED525F010035F
:100F0400238305F007056669218B002EBFF66FAFBA
:100F140000232768C4E9003321F0070141F00101EF
:100F24002183218B4FF0000901F0070AAA457FF4C1
:100F34003FAF002F9BD041F00801218388F3118833
:100F4400BFF36F8F002FC7D03D68394633465246F2
:100F5400204606F038FE2F46F4E7AB067FF51AAFBD
:100F640025F02003238305F00705FFE6F77B050042
:100F74002DE9F047044607464FF00109DFF8508099
:100F840014B93846BDE8F08794FAA4F5B5FA85F5A6
:100F940009FA05F32E0108EB05156FEA030A24EAA2
:100FA40003042B7B002BEBD058F806301B694BB99C
:100FB4004644736804222846196807EA0A0700F0C1
:100FC40051FADDE7284698470028D9D1F0E700BF59
:100FD4002496050030B5002289B00F490F4807F068
:100FE4004CFF002200230024CDE906230E230C4DE0
:100FF400CDE903344FF440722846CDE90144094B4E
:101004000949009404F0A8FD0849284607F0F5FDB5
:10101400204609B030BD00BF351005002807042064
:10102400A00204200D130500500B0420DD9D0500D3
:10103400014804F009BE00BF900204202DE9F047E6
:1010440080461F480F4607F0D6F80646002830D0E1
:1010540000252846BDE8F087237B73B12368DB684D
:101064000BB12046984723681B69D3B963680422EF
:101074002046196800F0F6F9013610344C45EBD3DC
:10108400B8F1000FE5D0002DE2D02846FFF770FF3D
:101094000546002FF7D000214FF4A47005F0D8F8CE
:1010A400F1E7204698470028E0D00AFA06F31D43EA
:1010B400E2E705464FF0010A024CDFF80C90DDE749
:1010C400C00804202496050034960500014B53F80B
:1010D40020007047FC98050008B5034608462BB16C
:1010E400044A136000F072FC002008BD6FF0150084
:1010F400FBE700BF1C00042010B5044C237813B98F
:10110400034804F0A1FD0123237010BD240B042027
:101114009002042010B50446064807F06CF83CB170
:10112400054BD3E8EF1F0139C3E8E21F002AF8D1C9
:1011340010BD00BFB8080420BC08042000200146EC
:10114400034BD3E8EF0FC3E8E21F002AF9D170473D
:10115400B808042070B5FFF7F1FF0546074C084EA8
:10116400B44200D370BD63685B792BB123685B68BC
:1011740013B12946204698471034F1E72496050018
:101184003496050010B5044C0449204606F0C4FE0C
:10119400034B1C6010BD00BF54020420E8980500F6
:1011A400B008042008B50023074A4FF40041137027
:1011B400064A07481360074A1360FFF78DFFBDE82E
:1011C4000840FFF7DFBF00BF250B0420B808042048
:1011D400F7810500BC0804200146002200230148D1
:1011E40006F0BBBE54020420014806F054BF00BF01
:1011F40054020420024B0146186806F09EBF00BF4B
:10120400B0080420014806F0D4BF00BF54020420F3
:1012140070B5264B1878002847D0FFF7E5FF054640
:1012240070B1234BD3E8EF1F0139C3E8E21F002A52
:10123400F8D1204C204EB4422DD32846FFF7DAFFD4
:101244001E4B1F4C1B68002B19DD07F014FE4FF4D6
:101254007A72A0FB020302FB0131C30B43EA414350
:10126400D4E900209B1A40F2E9324FEAD13161EB14
:101274000001934271F1000101D3FFF76BFFD4E940
:10128400003213F57A7342F10002C4E90032BDE87A
:101294007040FFF7B7BF63685B7923B123682946C1
:1012A40020461B6898471034C5E770BD240B042002
:1012B400BC0804202496050034960500B8080420D0
:1012C4002007042070B50D4D297861B90120FFF77E
:1012D400B5FE0B4C0B4EB44206D3FFF799FF002822
:1012E400FBD101232B7070BD63685B791BB123684C
:1012F40020469B6898471034EDE700BF250B042077
:10130400249605003496050000212DE9F04708468F
:10131400FFF794FE044658B340F267684FF00009A3
:1013240007F0AEFF1B4B1C4A1B58136033B11B4B19
:101334001B68092B02DD1A4804F086FC0025194FAE
:10134400DFF85CA044B12046FFF712FE044618B94A
:101354004FF0FF384FF0FF39FFF75AFF064628B920
:10136400B5B942464B46504604F092FC3546E9E78F
:101374004FF0FF384FF0FF39D2E72B689B691BB160
:1013840000222846114698471035BD42F5D3E8E7B8
:10139400054DFAE708000000B4080420BC08042046
:1013A40090020420349605002496050013B51848CD
:1013B40006F021FF174B1B787BB14FF02003EFF3AE
:1013C400118483F31288BFF36F8FFFF721FF84F337
:1013D4001188BFF36F8F02B010BD0F4B1B68002B39
:1013E400F9D050B9002200230C48CDE900234FF472
:1013F4000042002305F018F9EDE70928EBD107486E
:1014040007F047FD064802B0BDE8104004F01CBCDC
:10141400BC080420250B0420B40804202807042059
:101424009002042010B5064B04461B6898472146D9
:10143400A060044806F00FFEBDE81040FFF7B6BFF9
:101444001C00042054020420044A054B9B1AB1EBEF
:10145400D30F34BF52F8310000207047BC9505000B
:1014640024960500084B10B4C31A44681B110133B9
:10147400237143689A7101224368196043685A7161
:1014840010BCFFF739BE00BF249605002DE9F04FCC
:101494008FB0C1F34A2804AF0D469146B8607B6013
:1014A4000C0DB8F1000F63D000264FF0040B4FF081
:1014B4000A0A07F11403C7F80C80C7E907667E62BD
:1014C4000193CDF808B0CDF800A007F11C03324613
:1014D4004846F968FFF744FAB0F5006F03461CD399
:1014E4006C468AB0D9F8041004AB26481A46C3E9FE
:1014F400050140F2FF71D9614FF400711984224B48
:1015040042F8103F4FF4125133462048FFF7BEFF14
:10151400A5462C37BD46BDE8F08FC0F30A0804F198
:101524001700184420F0070080083B60FFF754FEC2
:1015340068F35325044690B13B6800F11001C7E9F4
:10154400083607F11403F961CDE900A3CDF808B01A
:1015540048460F4AF96807F11C03FFF701FA68F3DC
:1015640053252A4620467B68B96806F076FED0E704
:1015740004F1170020F007008008FFF72DFE044651
:10158400EDE700BFF29D050004000001D4950500BD
:10159400338205002DE9F04F87B00446DDE9105A87
:1015A400DDE912690F4693469846A6B310213346E7
:1015B40052460020CDF80090CDF81490FEF7FEFFBF
:1015C400014605F117000844144B04F007040BF01E
:1015D400070BE40020F0070003EA412344EA8B14DC
:1015E40080081C430391FFF7F7FD44EA05540546C0
:1015F40040B13EB1334652460399CDF800901030C5
:10160400FEF7DCFF434622463946284607B0BDE8CC
:10161400F04F06F022BE3146D3E700BF00FE0F00B4
:101624000EB403B503AB53F8042B014604480193ED
:1016340001F09CF802B05DF804EB03B0704700BF02
:1016440059830500CA0605D48B064CBF02490349D9
:10165400FFF7E6BF704700BF009D0500FF9C050033
:101664002DE9F04F89B09B46DDE916769DF84C30A4
:1016740004460493DDE914930593049B0D460692F6
:10168400002B00F0878006F00803079306F0CDFDD9
:1016940006F0020A024600284BD020468549FFF78F
:1016A400BFFF8046BAF1000F08D016F0440F42D1B4
:1016B4002A4620468049FFF7B3FF804406F0010321
:1016C4005BB17E4B049A204653F822207C4B7D4923
:1016D400002A08BF1A46FFF7A3FF06F00803002BF1
:1016E40055D0794B049A204653F822207749FFF7C6
:1016F40097FF0546069B2BB11A4620467449FFF70F
:101704008FFF0544BBF1000F05D05A4620467149AE
:10171400FFF786FF05444544B9F1000F49D1002F76
:101724004FD1F30700F1C08031462046FFF78AFF0E
:10173400B4E08046B6E7684B18680028BDD0674B14
:101744004FF47A7E1B684FF46162B5FBF3F5B5FB89
:10175400F0F300FB13550EFB05F5B3FBF2FAB5FBF2
:10176400F0FC3C2102FB1A3200FB1C55B2FBF1F3E6
:101774000EFB05F5B5FBF0F501FB132220460092A4
:10178400CDE901C552465649FFF74AFF95E706F0F1
:101794000805AFE7BBF1010F06D1B9F1000F64D121
:1017A400002F7BD000250CE0B9F1000FF8D04D4894
:1017B4005CE04D484B4622464C4906F00AF9002F9E
:1017C40068D0DFF82C91DFF82CA1102F3146204689
:1017D400B8464FF0000B28BF4FF01008FFF732FF58
:1017E4005D4545DC059B514620461A78FFF718FFF6
:1017F4004FF0010B1BF0070F03D149462046FFF7BA
:101804000FFFD8453BD9059B5146204613F80B20C2
:10181400FFF706FF0BF1010BBBF1100FEAD14FF0FC
:10182400000B20463449FFF7FBFE5A46059B204631
:101834009A5CA2F120015F2928BF2E222F49FFF7CD
:10184400EFFE0BF1010BBBF1100F1DD01BF0070FC6
:1018540003D149462046FFF7E3FED8455A46E5D86A
:1018640049462046FFF7DCFEEBE71F48049DA1E74D
:1018740049462046FFF7D4FE0BF1010BB0E72046A2
:101884001F49FFF7CDFEC5E7059BB7EB08074344A7
:1018940005939AD1049B002B7FF443AF204609B0F3
:1018A400BDE8F04F06F049BD2046054A0549FFF75B
:1018B400B7FE39E7369E05003A9E05000C990500EF
:1018C400319E0500FCA50500209905005F9E0500DA
:1018D400659E0500699E0500C8080420C40804200C
:1018E400439E050087830500598305007127050081
:1018F400769E05006E9E0500789E05007A9E050082
:10190400749E05002DE9F0410F884B6805460C468E
:1019140090468E6886B0C7F382175BB1144A9B1A4F
:1019240043F3CF01002920DB2078C0F3C200FFF786
:101934008BFD0346214651F8102B6088C2F34A22DE
:10194400002A01EB020408BF00210022C0F30B109F
:10195400CDE90408CDE902142846314601970092E6
:10196400FFF77EFE06B0BDE8F0810023E2E700BF8A
:10197400BC95050042F20F7373B58B4228BF0B462A
:1019840005680446052168460D4A04F0ADFE064686
:10199400636828460B225B680A4906F0C1FC636849
:1019A4003246694628465B6806F0BAFC63681B2227
:1019B40028465B68044906F0B3FC02B070BD00BF62
:1019C4008A9C0500999E05007D9E05000021012347
:1019D400064A904206D8064A01B901231360054B12
:1019E40018607047012140085B00F2E740420F0095
:1019F400C4080420C8080420F8B50D460446064F60
:101A04004618B44201D12846F8BD14F8011BBB683E
:101A140001485B689847F4E744930500014B036071
:101A240000207047689905002DE9F04780460C4670
:101A340000AF002936D0D1E90012E9468AB06D46DC
:101A4400A3684FF0050A2E461A48C5E90723C5E9DD
:101A5400050146F810AF002332464FF421511648D1
:101A6400FFF714FDD4E90312CD466369AD4613486C
:101A7400C5E90723C5E90501C5F810A000233246CE
:101A84004FF421510C48FFF701FDCD46E3690121D4
:101A94000B4A094806F03AFCA3690121094A0648A1
:101AA40006F034FC2146404603F0AAFEBD46BDE8DC
:101AB400F08700BFDF9E0500FC9505000E9F050022
:101AC4003D9F05004C9F050030BFFFF7FDBF00BFE1
:101AD400114B124A2DE9F041D518013DB5FBF3F540
:101AE400DFF83C805D430F4B074608EB0304013CE1
:101AF400B4FBF3F403FB04540E1B30460A4907F00D
:101B0400E5F9701942460021083E07F0ECF93E67FA
:101B140004F10800BDE8F0810100000000000000AD
:101B2400040000000400000034960500044B99688A
:101B34005869884203D003494FF080520A607047C5
:101B4400F40A042004ED00E070B52A4C06460D4664
:101B540029482A4906F056FCA36ADB0647D52648DD
:101B6400274906F04FFC1120A36A1C0704D522481C
:101B7400244906F047FC12201E4CA36A990712D58B
:101B840021491D4806F03EFC636BA26A120609D582
:101B940001211E4A184806F0B9FB1EB1A36A23F0BE
:101BA4008003A3621320134CA36ADE0704D51248F2
:101BB400174906F027FC1420A36A9C0604D50E4896
:101BC400144906F01FFC15200A4B9A6AD10658BF27
:101BD4009A6A9A6A920642BF5A6A22F400525A6278
:101BE4009A6A42F0FF029A6200232B7070BD1020A3
:101BF400BAE700BF00ED00E0FC9505007A9F050000
:101C0400909F0500C39F0500D69F0500EE9F050029
:101C140004A0050023A0050010B5244C2449254840
:101C240006F0F0FBA36A99013ED52248224906F04A
:101C3400E9FB1E20A36ADA0104D51E481F4906F0F9
:101C4400E1FB1F20194CA36ADB0204D519481C4987
:101C540006F0D8FB0220A36A1C0304D515481949D1
:101C640006F0D0FB2120114CA36A590304D5114876
:101C7400154906F0C7FB2220A36A9A0304D50D4830
:101C8400124906F0BFFB2320084CA36ADB0304D5EA
:101C940008480F4906F0B6FB2420A36A6FEA034301
:101CA4006FEA1343A36210BD1D20C3E700ED00E0FB
:101CB40052A00500FC9505006AA005007DA0050062
:101CC40097A00500C1A00500DFA0050004A1050040
:101CD4001EA1050070B5294C06460D462848294921
:101CE40006F090FBA36AD9043CD52548264906F0A2
:101CF40089FB1720A36A1A0504D52148234906F055
:101D040081FB18201D4CA36A9B0512D51C48204951
:101D140006F078FBA36BA26A100409D501211D4AC1
:101D2400174806F0F3FA1EB1A36A23F40043A36232
:101D34001920124CA36A590504D51148164906F016
:101D440061FB1A20A36ADA050ED50D48134906F083
:101D540059FB1B20094A936A43F47F43936200238F
:101D64002B7070BD1620C5E7A36A9B04F2D5044806
:101D74000B4906F047FB1C20ECE700BF00ED00E038
:101D8400FC95050049A105005FA10500C39F05005E
:101D940070A1050089A105009EA10500B9A1050057
:101DA40023A005002DE9F0478AB0694B0446D3F817
:101DB40004A089461646002500AFCAF3080885F337
:101DC4001188BFF36F8F02F07F43B3F17F4F1ED1B1
:101DD400D3071CD4500603D4110708D4012508E006
:101DE4005C495D4806F00EFB16F0040600D04C4634
:101DF40000250023FB71A8F10303092B00F2868060
:101E0400DFE803F0077C7F798484848484822C4611
:101E1400EFE75249504806F0F5FA00234C4EFB71A7
:101E2400F36A9A0705D54E494B4806F0EBFA0023AE
:101E340029E0F36A002B01DA4A49F5E7F36A5B000B
:101E4400F5D54949444806F0DDFA7369A26943F4BB
:101E540080737361BFF34F8FBFF36F8F736932F871
:101E6400022C23F480737361BFF34F8FBFF36F8F22
:101E74004DF602739A4228D1236801213B4A364821
:101E840006F044FA2368FA79DAB907F1080604F18E
:101E9400200C324620686168083403C26445164643
:101EA400F7D17A6A002D4ED0C2F3080121B96FEA46
:101EB40052226FEA42227A62184607F10801FFF7BC
:101EC400B3FD2837BD46BDE8F087B36ADBB22BB15A
:101ED4000120F91DFFF738FE0346D4E7B36A13F473
:101EE4007F4F04D00120F91DFFF7F4FEF4E7B36A35
:101EF400B3F5803F9BD3FFF78FFEEDE70020F91D7C
:101F0400E8E70020F91DEFE719498DE7194A6E4605
:101F14001AF4F87F8AB0184B18BF13466A4617495B
:101F2400C2E90513A8F11003D3614FF400731384BD
:101F3400134B42F8103F00234FF411510648FFF7AA
:101F4400A5FAB54673E722F4FF7222F00102B2E764
:101F540000ED00E0FFA10500FC95050022A20500AC
:101F640039A205005AA2050068A2050087A205004F
:101F7400A3A20500E6A10500D1A10500C7A20500A2
:101F840004000001044B5A6942F010025A615A6974
:101F940042F480625A61704700ED00E0EFF308807C
:101FA400EFF3098101B57246FFF7FCFE01BD00BFE6
:101FB400002080F31488BFF36F8F002080F30A8819
:101FC40080F30B8800F034FD00200E490860BFF355
:101FD4004F8F0D4880F3088800F02CF8202080F300
:101FE40011880A484FF40061401880F30988EFF320
:101FF40014800221084380F31488BFF36F8F00F02C
:10200400F7F8000094ED00E0901B0420500E04202B
:10201400002318460649D1F89020C2F307229342C0
:1020240000DB7047C1F89830C1F8A0000133F6E72F
:1020340000ED00E010B572B6002484F31388FFF7B6
:10204400E7FF23464FF0FF300C4A03F12001013330
:10205400102B42F82100F8D100234FF0FF30074A3B
:1020640003F160010133102B42F82100F8D162B66C
:10207400BFF34F8FBFF36F8F10BD00BF00E100E0CF
:10208400084B9B6883420BD1EFF3058343B1064BA6
:102094005A6842F080525A605A6A22F400425A62E4
:1020A40006F0AEBEF40A042000ED00E06FF00A0171
:1020B400084A93689967084958674B6843F0805306
:1020C4004B60002383F31188BFF36F8F9368986F7D
:1020D400704700BFF40A042000ED00E016498A6846
:1020E4004FF030001044EFF3098C80E8F01F2020FB
:1020F40080F31288BFF36F8F104F4FF000664A6968
:102104008A603E604FF07004141920680C4C206003
:10211400506F0023536780F3118802F1300090E878
:10212400F01F8CF3098802F1000004B506F072F97F
:10213400BDE8044070470000F40A042004ED00E008
:10214400F00804201EF0040F0CBFEFF30880EFF337
:102154000980816911F8021C0229FFD001B506F03B
:1021640046F901BD40B2002807DB01234109034AB7
:1021740000F01F00834042F82130704700E100E086
:1021840040B200280CDB01220649430900F01F007D
:102194008240203341F82320BFF34F8FBFF36F8F6A
:1021A400704700BF00E100E0054B420953F82220CC
:1021B400012300F01F0003FA00F01040704700BF35
:1021C40000E100E040B2002801F10101ACBF00F1E0
:1021D4006040064B4FEA4111C9B2ABBF00F5614004
:1021E40000F00F0080F800131954704714ED00E05C
:1021F4000B4A08B50B4B22F07F029A60BFF34F8F56
:10220400BFF36F8FD3F8882022F47002C3F88820BC
:1022140003F0AAFB04F03CF800F078F803F0EEFBBE
:102224000000050000ED00E042F8203C009B0B4953
:1022340042F81C3C019B21F0010142F8183C029B2E
:1022440042F8081C42F8143C4FF0807342F8043CF6
:102254000023203A02654367704700BF250D05003F
:102264000A4B046F98600A4B1C60036E83F30B885F
:10227400104681F30988002163B681F31188BFF306
:102284006F8F00220023FEF74BFD00BFF40A0420E9
:10229400F0080420014910220A60704710ED00E0A4
:1022A40072B6404080F31188BFF36F8F01B500F020
:1022B400BBFA00280AD0BFF34F8F30BF00BF00BF66
:1022C40000BF00BF00BF00BF00BF00BFBDE80140AA
:1022D40062B6BFF36F8F704772B6494081F31188BD
:1022E40001B500F0A1FA00280AD0BFF34F8F20BF38
:1022F40000BF00BF00BF00BF00BF00BF00BF00BFE2
:10230400BDE8014080F3118862B6704700232021A4
:102314000348C2180133452B82F80013F9D17047E2
:1023240000E100E001B5EFF30580A0F110004FEAF1
:10233400C0000449014409C99847BDE80140024965
:102344000847000094930500311B05001FB5094C94
:10235400094A23460121094800F00AF9002303939E
:10236400074B0121E41A01A80193029400F00AF931
:1023740004B010BD00000720000004206899050087
:10238400A002042010B50C7A0B6804F01F0223F09D
:102394001F031A43CB68640923F01F03054943EA6A
:1023A400440343F00103C1F89800C1F89C20C1F82C
:1023B400A03010BD00ED00E0072810B508D90121B8
:1023C4000346054A054805F0A1FF6FF0150010BD4E
:1023D400FFF7D8FFFBE700BFDEA20500F495050078
:1023E4002DE9F04F8946144606464FF00008514D3A
:1023F40085B0C84527DAD6F804A0BAF1000F44D056
:10240400BAF11F0F17D91AF01F0F14D1D6F800B064
:102414001BF01F0F0FD1584606F000F807460AEBD1
:102424000B00013805F0FAFF874210D06FF0150752
:10243400414A3B4601E04346404A0121404805F0F9
:1024440065FF6FF01504204605B0BDE8F08F17F165
:10245400160FEDD0BC42EBDDC5F89870D5F89C1092
:10246400C5F89870D5F8A03021F01F0143F01F0B78
:10247400D6E900321A44994202F1FF3A1DD1D345FC
:1024840007D13146F8B205F0D2FF08F101080C3645
:10249400AFE73146C5F89870D5F89C3022F01F029A
:1024A40003F01F031343C5F89C30E0B205F0BFFFEF
:1024B40010F1160FC5D0441CE7E7C5F89870D5F89D
:1024C400A020013B23F01F0302F01F021343D34556
:1024D4003146E0B2C5F8A030E8D005F0A8FF10F10D
:1024E400160FAED0C5F89870D5F89C209DF808302A
:1024F4000BF1FF3B62F304038DF80830D5F8A030EC
:102504009DF808205B0863F347128DF80820D6E98C
:1025140000321344009323F01F035B44A3EB0A032C
:10252400013023F01F036946C0B20393FFF744FF51
:10253400BEE700BF00ED00E027A3050004A30500EB
:10254400F49505000522044BC3F89420BFF34F8F84
:10255400BFF36F8F704700BF00ED00E0BFF35F8FE4
:102564000022024BC3F89420704700BF00ED00E046
:1025740010B5034C2278FFF733FF207010BD00BF65
:10258400270B04202DE9F74F294D8A4606464FF0C4
:102594000008AB46274FD0451BDAD6F80490B9F1B2
:1025A400000F3FD031680846019105F037FF0199CB
:1025B400044609EB0100013805F030FF84424FF076
:1025C40014021D4B08D002FB08F36FF015024BF800
:1025D400032003B0BDE8F08F14F1160F2C60F8D07F
:1025E4001978A142F5DD02FB08B0C7F89840C7F896
:1025F4009840D7F89C4000F10801007B64F3040084
:102604000871D7F8A0000C79400860F347140C71E6
:10261400D7F89C1021F01F016960D7F8A01021F0B1
:102624001F01296108F1010814350C36B3E700BF16
:10263400F408042000ED00E0270B0420F0B53A4D27
:1026440087B02C68082C6CD80020FFF787FF374B25
:10265400374AC3F8C02084420DD1364D01A82C70EE
:10266400FFF7DCF900240646334FA6420AD1FFF7F0
:1026740069FF002053E0696801EB0011FFF782FE57
:102684000130E8E70199200101EB0413DA683A40CC
:10269400B2F5001F22D0B2F5800F2CD0B2F5801F06
:1026A40036D15A689B680958013B22F01F00034445
:1026B4000120844623F01F0340EA4C10CDE9022197
:1026C4008DF8100002A928780593FFF775FE0028FD
:1026D40023DB2B78013401332B70C6E75A689B68DF
:1026E4000958013B22F01F0003444FF0020C012063
:1026F40023F01F03E0E75A689B680958013B22F066
:102704001F0003444FF0000C062023F01F03D3E7FF
:1027140001210A4A0A4805F0F0FD6FF0150007B0E0
:10272400F0BD4FF0FF30FAE77499050000ED00E0CA
:10273400AAFF4400270B04200000F0FF4AA3050071
:10274400F495050008B5024B1B689847002008BDA6
:1027540008090420034B044A1860937843F00203E9
:10276400937070470809042028000420F0B587B04E
:1027740007460E4614460021102268461D4606F000
:10278400B2FB02238DF80230054B2A4621466846E7
:10279400CDE90476019304F06DF807B0F0BD00BFF5
:1027A4006584050008B50649064821F00701C1F112
:1027B400005202F5E02205F09DF9002008BD00BF9B
:1027C400971B04200C09042007B50DF1070006F03F
:1027D40095F8114B98421CD14FF480620F4B10496D
:1027E400C3F8B8254FF40062C3F83C259DF80700F0
:1027F40006F070F80B499DF8070006F066F8012012
:102804009DF80730984001F01DFE002003B05DF8EC
:1028140004FB6FF00B00F9E70000AD0B00A00240D1
:102824002CA0024028A10240052370B5144D154E7A
:102834002C780134B4FBF3F303EB8303E41A06F0BE
:102844003CF8114A137823B156F82430C01A0728EB
:1028540013D90E4BD3F8141141B10021C3F814114C
:10286400D3F814312C700CB9012313702C7806F0B2
:1028740024F846F82400012070BD0020FCE700BFC6
:10288400290B042018090420280B042000500040C0
:1028940048B1054B054A1B68B3FBF2F35843044B9C
:1028A40043F00103184770472C01042040420F00F5
:1028B4005096050070B5049CC4F30726304601F019
:1028C4008BFBE5B20146284606F010F800220120F1
:1028D400074BA40B04F0FC041A51A84001F0B8FD06
:1028E400304601F02DFD2846BDE8704001F052BF8E
:1028F40080A0024073B501A801F046FF264B984220
:1029040047D101F0FFFC041E0ADA9DF8040001F02F
:1029140041FF01212346214A214805F0F7FC35E017
:1029240040F607031F4D8DF80540AE68ADF806303C
:102934007468019B14B96FF05704EAE7082128462C
:10294400194AA047041EE4DB3369002BF3D00122AB
:10295400082128469847041EDBDB01209DF804303B
:10296400984001F06FFD9DF805009DF804509DF816
:10297400076005F08DFF0146284605F0ABFF0B4BC1
:10298400B60045F000459D51002CC2D1204602B04E
:1029940070BD6FF01204BCE70000AD0B7FA305000F
:1029A4001496050058930500B529050080A102403E
:1029B4002DE9F341144683681B690BB10022984743
:1029C400C4F30726304601F00FFB0546304605F0F8
:1029D4005FFF4FF00008E7B20146384605F08AFF72
:1029E400104B220E920043F80280304601F0F4FAB4
:1029F4000D4A4FEA943C0CF0FC0C47F0004342F8BB
:102A04000C300146384605F060FF084B05F13202F0
:102A14000093304643460194520005F042FF02B051
:102A2400BDE8F08180A1024080A00240B9280500E1
:102A340005F047BF084B70B5C31A0D4607499B10F4
:102A4400044659434022064805F03CFD2B46014606
:102A54002046BDE87040184740090420B76DDBB636
:102A640008930500402373B50B4C0093041B0B46DD
:102A74000D460A49A41061430646094A094805F06F
:102A84004DFD011E05DA30462B4602B0BDE870400C
:102A9400184702B070BD00BF40090420B76DDBB613
:102AA4008B850500089305002DE9F84300220121D8
:102AB40006460520FFF786FB114801F07BFD114B0C
:102AC400984219D101F086FD00244FF01C090C270F
:102AD400DFF834803569414609FB045005F097F866
:102AE400002807DB012307FB04551C44042CAB67B7
:102AF400F0D10020BDE8F8836FF00400FAE700BFCE
:102B0400452B05000000AD0BA099050001460C23E0
:102B140000224B4370B50848C41878331844D4E9EC
:102B24001C56226705F0BBFC2DB132462B46BDE88E
:102B340070400248184770BD4009042008930500FE
:102B4400062812D8DFE800F0040F1111110D0B0054
:102B5400064B986F10F0070007D1FFF7D7BF02208C
:102B6400FBE70320F9E70120F7E770474009042059
:102B740008B54FF02003EFF3118183F31288BFF3FC
:102B84006F8F114A136843F002001060DA0708D40B
:102B940081F31188BFF36F8FBDE80840012001F075
:102BA40031BD0A4BD3F80C24D3F80C34DB07EFD532
:102BB400074805F074FC81F31188BFF36F8FBDE8FB
:102BC40008400020FFF7A2BFE009042000500040A5
:102BD400B80904201FB500220123CDE902236B4666
:102BE400084ACDF800D0CDF804D005F0C5FC002883
:102BF40005DB4FF480420023684603F049F805B032
:102C04005DF804FBC185050010B54FF02003EFF318
:102C1400118483F31288BFF36F8F074A136823F07C
:102C24000201DB07116002D4012005F069FE84F380
:102C34001188BFF36F8F10BDE00904202DE9F04126
:102C4400012207463549D1E8EF3FC1E8E02F0028CB
:102C5400F9D133B9324933484B60CB608A6004F010
:102C6400E9FF7B1E012B28D8012F06D12E4BD3F868
:102C74001C3403F00303022B1FD005F0B8FF0546F4
:102C8400E8B92A4B1B78D3B102220646264BC3F877
:102C94000823254CDFF89880D4F81824D4F8183485
:102CA400D20316D503F00303022B01D0012F10D158
:102CB40075B386F31188BFF36F8FBDE8F0814FF0D1
:102CC4002003EFF3118683F31288BFF36F8F01257E
:102CD400DFE7C5B13046FFF7FFFAD4F81835DBB2A9
:102CE400012BD9D1D4F80421002AD5D00022C4F86C
:102CF4000421D4F804210222C4F818252022C8F89B
:102D04008021A360C8E70021212003F0A1FAE4E7B1
:102D14000222054BC3F80423CFE700BF3C0904207B
:102D24002C0904205C090420005000404C0B0420B2
:102D340000E100E008B5074805F041FF38B1064856
:102D4400FFF708FD0448FDF7E5FF002008BD6FF01C
:102D54001200FBE744930500612D05000A2838B5ED
:102D64000446074D04D1AB680D2128465B6898479B
:102D7400AB6803485B68E1B29847204638BD00BFA2
:102D840044930500F0B5406801F01F04057B87B04B
:102D940044EA45140569002D63D0B2F5001F00F123
:102DA400100506D12146284605F05CFE002007B038
:102DB400F0BD0027B2F5800F01AE0197776039D1DD
:102DC400B3F1007F14BF052304238DF804300023DE
:102DD400CDE904630393836823FA01F111F001013F
:102DE4001AD1B2F1A07F17D104F01F03620903F1D5
:102DF40080032AD0012A3AD11E4A52F82330DB0735
:102E04000AD40DF1030632462146284602F06AF838
:102E1400194B98421BD002962146284603AA01F07A
:102E2400C1FE164B98421FD101222146284602F0CA
:102E3400DDF8BBE7B3F1C06F05D0B3F1007F14BF79
:102E440001230223C1E70323BFE70D4AD5E7314637
:102E5400284602F0BFF8094B9842DCD06FF00B0013
:102E6400A5E76FF08500A2E76FF015009FE751F822
:102E74002330FFDE002884400400AD0B0000AD0BBE
:102E84000025844038B545682B69B3B11035284610
:102E940002F086F8044680B90146284602F040F85C
:102EA400084B98420BD122462846074902F00CF8F9
:102EB400224605212F20FFF785F9002038BD6FF049
:102EC4000400FBE70000AD0BD12E050042090346C8
:102ED40070B502D0012A17D070BD0D4E3269516809
:102EE4000029F9D0012503F01F030C689D40002937
:102EF400F2D08A682A4002D030464B6898472CB1F9
:102F0400236821461C46F2E7024EE7E72346F8E72A
:102F1400309305001C9305002DE9F04340F206357B
:102F24004668D00648BF0320337B02EA050558BF34
:102F3400C2F3401087B001F01F07B5F5837F144634
:102F440047EA43178DF8030043D00FD8062D18D055
:102F540007D8B5B1022D3ED06FF0150007B0BDE81B
:102F6400F083B5F5807FF7D101250AE040F2022213
:102F7400954232D0B5F5407F31D0B5F5007FEBD125
:102F8400022522032DD5012372688B409360326998
:102F940082BB07F01F037F092AD0012F77D13E4A55
:102FA40002EB830284F48033D2F80012C3F30043AB
:102FB400C4F3404444EA430421F4706144EA8004C5
:102FC40021F00F0144EA05230B43C2F8003200202C
:102FD400C4E70725D5E70425D3E70525D1E703256D
:102FE400CFE7630341BF012372688B40D360CEE710
:102FF4002A4AD5E71036394630460DF1020201F06F
:1030040071FF14F4403F80460CD13946304605F038
:1030140027FD234B9845DAD130469DF8021001F084
:10302400CDFFD4E74FF0000901AB3946304603AA7F
:10303400CDE90439CDE90199CDF80C9001F0B2FD48
:10304400174B984288D114F4003315D09DF80330FF
:1030540084F48034C4F300448DF80E3039464B4672
:10306400304603AA8DF80C508DF80D4001F090FE07
:103074000B4B9842CDD06FE7CDE9043339460DF1BF
:103084000303304603AA039301F08CFDF0E7803379
:1030940052F82330FFDE00BF00288440002584401E
:1030A4000000AD0B10B504460269A2B0C2F880005E
:1030B4001F49002001F0F2FF002201212A20FFF71E
:1030C40081F864688422002101A805F00CFF63687C
:1030D400B3F5803F04D30221164A174805F00DF9D1
:1030E4002368B3F5803F04D30221144A124805F043
:1030F40004F900230120219301AA61680432D94014
:10310400C90744BF00FA03F142F8041C2168D940FE
:10311400C90748BF00FA03F103F1010348BFD163B3
:10312400102BEAD101A801F0D1FF002022B010BD7C
:103134001D32050002A40500EC9505002EA405002F
:1031440038B50F290C4605693CD843681B68CB4049
:10315400DB0737D5D5F88430CB4003F001031AB927
:10316400EBB96FF077002CE0002BFAD155F8213041
:1031740023B90221154A164805F0BFF8D5F8843062
:1031840013B92A20FEF7EEFF0122D5F88430A240BD
:103194001343C5F88430E0B201F0B8FF0AE0C8B2C6
:1031A40001F0BCFF0122D5F88430A24023EA0203D7
:1031B400C5F88430D5F8843013B92A20FEF7E0FF2F
:1031C400002038BD6FF01500FBE700BF5AA40500CE
:1031D400EC95050038B505460C4622B102210C4A8F
:1031E4000C4805F08AF80F2C0ED86B685B68E34036
:1031F400DB0709D501230020A400E4B204F18044D4
:1032040004F52834236038BD6FF01500FBE700BFD8
:103214008AA40500EC95050070B5D1F880600F28EC
:1032240004460D46736803D81B68C340DA0704D408
:1032340002210E4A0E4805F060F8D5F88430E340C8
:10324400DB0704D402210B4A094805F056F805EBC4
:10325400840255F824503DB121463046AC46BDE8C1
:1032640070400023126C604770BD00BFA5A4050028
:10327400EC950500C1A40500036803F01F025B0977
:10328400026004D0012B034818BF00207047024895
:10329400704700BF00288440002584402DE9F04F8A
:1032A40015460646DFF87091DFF870A185B000EB93
:1032B4008101B14203D1002005B0BDE8F08F33682D
:1032C400C3F34322082A03F07F0400F29E807F2C7C
:1032D4004FEA134308BF4FF0FF3419F80280222B42
:1032E40000F29680DFE803F012214B644E5464949C
:1032F40094949494949494949494949494946771DA
:1033040074779494947A808386898C00C5F80C45EC
:10331400631C3BD0012703A80394FFF7ADFF039B75
:10332400BB4607FA03F3836006E0C5F81445621C44
:103334002CD000274FF0000B336803A803F400528D
:10334400002A1CBF01274FF0000B01930394FFF7E1
:1033540093FF039A019B00EB8200D0F80022C3F391
:10336400C1144FEA082343EA840343EA0B0302EA45
:103374000A02134343EA4703C0F8003206E0C5F8E3
:103384000845C5E7631CC5F808453CD1043690E7F9
:10339400671CC5F80C45F9D001274FF0010B03A8B1
:1033A4000394FFF769FF039B0BFA03F3C360C3E7BE
:1033B400C5F81045BBE7C5F86045601C3368E5D027
:1033C400C3F38033002BE7D0A4E7C5F86445F4E7E2
:1033D400C5F86845F1E7C5F86C45EEE7C5F824453E
:1033E400621CD3D00127A5E7C5F8284590E7C5F8A6
:1033F4003045F5E7C5F83445F2E7C5F83845EFE759
:10340400C5F83C4584E70027C7E76FF0150053E78C
:103414006FF0850050E700BFF7A40500F0F0FCFF53
:103424002DE9F74306464FF0000800220121082049
:10343400FEF7C8FE0820FEF795FE776835693C68FC
:103444004146C4F800852E60D7F80C9001AA48467E
:1034540005F016F900283FDB019BD9F80020197903
:103464001868FFF71BFF002836DB6B7AD6F810C00C
:10347400012B03D0032B2DD14FF01008AB7A032B73
:1034840028D195F80BE0BEF1000F02D0BEF1010F78
:1034940020D1297A012922D0022924D0D1B90A467F
:1034A4006B687068B3F5164F006800F0898037D8F0
:1034B400B3F5165F00F087801FD8B3F5966F00F060
:1034C400848012D8B3F5967F00F08280B3F5167F1E
:1034D40000F081806FF0850003B0BDE8F0834FF405
:1034E40080720E21DCE70022FBE7B3F5166F75D07E
:1034F400B3F5965FEED15E4B3EE0B3F5E14F70D08D
:1035040007D8B3F5615F6ED0B3F5964FE2D1594B4E
:1035140032E047F612294B45DCD14FF400032BE08F
:10352400B3F5613F61D013D8B3F5963F60D009D8A5
:103534004DF6C0294B455DD0B3F5614FCAD14FF468
:103544006B0319E0B3F5E13FC4D14FF0EB7313E023
:10355400B3F5612F51D009D8DFF81C914B454FD0FA
:10356400B3F5E12FB6D14FF0E86305E0DFF80C9135
:103574004B45AFD14FF08053C0F82435736848EA07
:1035840001081B6842EA0E0242EA0802C3F86C25ED
:103594000CF10403D5E9010183E803007B68990772
:1035A4003DD505F1180001F0EFF8354B98422AD0CB
:1035B40034480121344A04F0A0FE6FF004008BE784
:1035C4004FF41D03D8E7314BD6E74FF49E23D3E7DE
:1035D4004FF4A033D0E74FF41C33CDE74FF41D2351
:1035E400CAE72B4BC8E72B4BC6E74FF06C73C3E716
:1035F400294BC1E74FF46503BEE74FF07063BBE7A7
:103604004FF08063B8E7287E04F10C0204F5907152
:1036140005F065F901202B7E984000F013FF082384
:10362400C4F800353B7A53B9C4F81031D4F81031DA
:103634006B69C4F834350123C4F8383523607B68DA
:1036440000209A075CBF4FF48073C4F804337B688E
:10365400DB0644BF4FF48003C4F804332B69C4F879
:1036640044350123C4F84805A360E36034E700BF90
:1036740000B0130000A04E0090D0030040420F00A1
:103684000000AD0B1C96050000A5050000502700A6
:1036940000C0750000F03A0000903A01F8B5044605
:1036A4000D46076905F0A3FAB0B92E4B1B789BB100
:1036B4006426606805F012F800BB012005F003F9E8
:1036C400013EF6D10021212002F0C2FDF0E786F38D
:1036D4001188BFF36F8FF5E74FF02003EFF31186E6
:1036E40083F31288BFF36F8F6068314604F0F6FFEE
:1036F40090B986F31188BFF36F8FEDE74FF0200385
:10370400EFF3118683F31288BFF36F8F606831463D
:1037140004F0E4FF0028DAD03B691D706268386960
:103724001368C3F844050120C3F848050020C3F812
:103734002001D3F82051C3F858015268D3F8580136
:10374400D20608D5082062681268C2F800054FF452
:103754008002C3F8042301229A6081F31188BFF325
:103764006F8FF8BD4C0B04202DE9F04383B04568FE
:1037740000AFD5F83C800669002140463A1D04F0AC
:103784007FFF041E1ADB7B68D8F8002019791868BB
:10379400FFF784FD041E11DB296C481C1BD005F1C6
:1037A400440000F07FFB10F1130F04460BD10121FC
:1037B400304A314804F0DBFF6FF0120420460C3726
:1037C400BD46BDE8F083411D05D101212B4A2A489D
:1037D40004F0CDFFF2E74FF001086B6B9847B56832
:1037E400D6E9023203EBC2039D4204D3304604F00F
:1037F400F1FF0024E2E7286805F0E1F90346B0B9D7
:103804002A686C468AB0106829796A46D1614FF4F7
:1038140000711B4D11841B49C2E9055042F8101F69
:103824004FF411511448FDF731FEA546C4E728684A
:103834002979EB88D0F810C0DA07DCF8004054BFCF
:1038440043F4B01383F4D01323F4801208FA01FE76
:10385400DB07D0F808904CBF44EA0E0424EA0E04B7
:10386400CCF80040D9F800309847041EA6DB083590
:10387400B6E700BF39A505000C96050064A5050050
:1038840081A50500040000012DE9FF4105690746F3
:10389400D0F80480A86C2B6D00283AD16BB3B8F82B
:1038A40038406A6C9C4228BF1C46EE6CEB6C53B1EA
:1038B400296D41B106F06041B1F1005F03D0082CDD
:1038C40028BF08246E6E00926A6CAC651AB1AA6CAB
:1038D400002A18BF2246CDE901261BB12B6D002B0F
:1038E40018BF2346002269464046039301F0B6FE02
:1038F400184B98420AD06FF004033C69236304F127
:10390400200002F0A1F9002384F85C3004B0BDE883
:10391400F081696CEE6C0A46B8F83840ABB183426A
:1039240028BF03469C4228BF1C460029BED001F094
:103934006043B3F1005FB9D0082C28BF0824286E77
:10394400224605F0C3FA2A6EB0E7844228BF044633
:10395400EBE700BF0000AD0B38B5027803460C4618
:1039640062B98D6D5DB94B6D1C696FF07303236390
:1039740004F1200002F068F984F85C5038BDC86C8A
:1039840048B10A6D3AB1DB682BB1984203D02A469C
:10399400496E05F09BFAA36CA26D33B19A4213D918
:1039A4000121224A224804F0E2FE236DA26D33B1C4
:1039B4009A4222D901211D4A1D4804F0D8FE606DA7
:1039C400BDE83840FFF760BF9B1AA3647BB9636B03
:1039D40004F1480208336363A36B04F13801013B2B
:1039E400A36304F1340004F0CEFE6064DDE7636C8D
:1039F400002BDAD013446364D7E79B1A23657BB9A1
:103A0400E36B04F150020833E363236C04F14001D7
:103A1400013B236404F13C0004F0B5FEE064CEE70E
:103A2400E36C002BCBD01344E364C8E7A5A50500E1
:103A34000C9605002DE9F04F8FB000AFC7E90232B4
:103A4400436889467B608B8880469904046932D434
:103A54004FF0FF324FF0FF3304F1100002F018F979
:103A6400C4F80490D8F810A0D8F804B09AF85D30DF
:103A7400DBF808C023B1DAF80030994500F023815F
:103A8400B9F804E01EF400631CD001216F4A7048A9
:103A940004F06DFE6FF0850523689B8813F40053D2
:103AA40004D1636004F1100002F0CEF828463C37DC
:103AB400BD46BDE8F08FA369002BC9D16368994561
:103AC400C6D1CFE71EF0010F16D06D4688B0D8F8E6
:103AD40000106A465F48C2E905014FF40071918302
:103AE4005D4942F8101F4FF4E2515948FDF7CEFCEE
:103AF400AD466FF01505CFE71EF0080F05D0574A05
:103B04000121534804F033FEF3E7CEF34513082BA9
:103B140001D0534AF4E7D9F800303B603A68514B7E
:103B24009A4201D8504AEBE7504B9C4506D9504A7B
:103B3400D2F8582512F0030F18BF9C4607F1100560
:103B44000BF10C060FCE0FC50FCE0FC53B6896E8E0
:103B54000300634528BF63469C46464B85E8030043
:103B64009C4517D2414B9C4514D2434B9C4511D2E2
:103B7400424B9C4550D8424B9C454FD8414B9C45A9
:103B84004ED8414B9C454DD84049414B414A8C4508
:103B940088BF13461EF0020F7B620EF0040343D06D
:103BA400002B14BF0323022387F82830CEF300131D
:103BB40087F82930DBF800301EF0020FD3F80835FF
:103BC400CEF340014FEA531203F01F0332D17AB30C
:103BD400012A40F03B813049012202FA03F3CB6011
:103BE4009AF85D302BB1584601F0F0FC00238AF8B6
:103BF4005D305346294A584607F1100101F0B2FCE2
:103C0400274A0346904259D00121264A104804F01D
:103C14007DFB6FF004053FE7234BBBE7234BB9E77C
:103C2400234BB7E7234BB5E7003B18BF0123BBE7A2
:103C34002149D1E742B1012A40F00A811649012203
:103C440002FA03F38B60CBE71B49F8E7C3A5050031
:103C54000C960500DDA5050003000001FFA5050085
:103C64001EA6050047E801004DA605000024F40047
:103C7400005000400048E80100127A00FF083D00AF
:103C84007F841E003F420F001FA107008FD0030056
:103C940048E8010090D00300002884405D39050005
:103CA4000000AD0B7EA6050000093D0080841E00C7
:103CB40040420F0020A10700002584400123CAF8D8
:103CC40000908AF85D30012384F85C307B68196CBD
:103CD4004A1C0AD003F1440004F0A6FD743004D158
:103CE40002215D4A5D4804F042FDFB68002B75D15A
:103CF40063630023A36304F1480204F1380104F16F
:103D0400340004F040FDBB686064002B6ED1E363B3
:103D14000023236404F1500204F1400104F13C0047
:103D240004F031FD0023E0642068236348B1836814
:103D34003BB10121083004F039FD2368186904F00F
:103D440039FF4046FFF7A0FD00221346A06B8342D3
:103D540054D100231946256CA94256D1934238BF49
:103D6400134626464FF4FA5202FB03F556F8203B5D
:103D74004FF4004C1B6840F2E730B5FBF3F500212B
:103D8400C8354FF47A720023E5FB0C01FCF7E0F927
:103D940002460B46304601F07BFF00283CD001214F
:103DA4002F4A2E4804F0E3FC4FF000097868C4F869
:103DB400589001F00BFC84F85D90D8F810506FF027
:103DC4007308C5F8308005F1200001F03DFF85F847
:103DD4005C90304601F084FF454621E0FB681B6897
:103DE4006363002B85D0FB685B6883E7BB681B6853
:103DF400E363002B8CD0BB685B688AE7616B01EBE3
:103E0400C301496801330A44A1E7E06B00EBC10038
:103E14004068013103449FE7256B15F1740FC3D04B
:103E24002368002B3FF438AE9A68002A3FF434AE7E
:103E3400998811F480567FF42FAE186904F0BAFE05
:103E440020683146083004F0B1FC25E6C960FFDE85
:103E540000239B60FBE700BFA5A605000C960500A8
:103E6400CFA6050000F01F0240090DD001280DD196
:103E7400094B03EB8203D3F80002084A024042EAEA
:103E84008102C3F800227047054BF2E70023803219
:103E940053F82230FFDE00BF00288440F0F0FCFF1E
:103EA400002584400123F0B587B08DF80230022349
:103EB40000248DF804306B4403930F4601AB0DF1DD
:103EC4000301049305460291059401F083F80C4B19
:103ED400064698420FD13946284603AA00F062FEEE
:103EE400B0420BD028469DF8031001F067F86FF03C
:103EF400040007B0F0BD6FF01200FAE72046F8E7BF
:103F04000000AD0B0123834070B5DC430B4AD2E8BB
:103F1400EF1F01EA0405C2E8E65F002EF7D14FF473
:103F2400803282400648C0F80823BFF35F8FBFF396
:103F34006F8F0B4214BF0120002070BD8C0A042037
:103F44000050014070B40E4922F07F46D1E900349C
:103F5400D01AC31844F10004C1E90034A6F50013D3
:103F6400B3F5400F09D2074B1B681A0A1B069C19AC
:103F7400054B42F10005C3E9004570BC02F05EBA8E
:103F840080070420900A042088070420D9B1012363
:103F94000D4A8340D2E8EFCF4CEA030CC2E8E1CFEC
:103FA4000029F7D14FF48033084A8340C2F8043320
:103FB400074BD3E8AF3FC340DB0742BF4FF40012C7
:103FC400044BC3F8002170478C0A042000500140C0
:103FD400840A042000E100E0C3B202489B001844B4
:103FE400704700BF40510140024B00F5A87053F8E0
:103FF40020007047005001400D4B1868010A00066C
:10400400BFF35F8F0B4BD3F80435181841F100014F
:10401400B3F5801F0AD2084BD3E90023904271EB19
:10402400030303D210F1807041F10001704700BF17
:10403400900A042000500140880704202DE9F04F25
:1040440085B016461F4604469DF840A0FFF75AFF68
:104054000190FFF7D1FFB04271EB070352D23B4B03
:10406400301A67EB0101984271F100014DD2384BCF
:1040740003EB0413D3E902239F4208BF964258D0AE
:104084004FF48038334908FA04F8204626F07F4B71
:10409400C1F8488304F0F0FB4FF00309584604F1DB
:1040A4005005AD00ADB205F1804504F5A87305F5E2
:1040B400A8350293029A20F07F4341F82230C1F8D8
:1040C4004483D1F80435244AC01A033820F07F40D1
:1040D40090422ED9286868B1D1F80435A3EB0B00BF
:1040E40020F07F40B0F5000F039322D9204604F05E
:1040F400C3FB039BBAF1000F07D109EB030009F1DD
:104104000109D7E7BAF1000F09D06FF01505204671
:104114000199FFF73BFF284605B0BDE8F08F012366
:104124000E4AA340D2E8EF0F1843C2E8E10F00297A
:10413400F8D107490E982301C8500F9B01EB0412D4
:104144000025C2E902675360E1E700BF0100800077
:104154006007042000500140FDFF7F00840A042012
:104164007FB500254FF0FF304FF0FF314FF4803220
:104174001C4C1D4B0226C4F80833C4F848331B4BAF
:10418400C4F80855C3E90201C4F80423C3E90601CD
:104194004FF400334FF40012C4F80433144B0121DC
:1041A400C4F804631520C3F880212A46FEF70AF8F0
:1041B4001520FDF7D7FF01230322A36023600D4BD5
:1041C40028461A600C4B0D4A1E600D4BCDE9015573
:1041D40000930023FFF732FF3046FEF72FFD2846F9
:1041E40004B070BD0050014003000F0060070420BC
:1041F40000E100E08C0A0420880A0420FFFF7F000D
:10420400493F05002DE9F04F394B85B0D3F804231D
:1042140092070BD5D3F8042142B10022C3F804213C
:10422400344AD3F80431136801331360324D002447
:10423400A8464FF480362E4FD7F8043306FA04F913
:1042440019EA030F2ED00123A340DB432B49D1E805
:10425400EF2F02EA0300C1E8EC0FBCF1000FF6D126
:1042640022FA04F3DB0703D4254B53F82430CBB1F3
:10427400204604F001FBFFF7BFFE4FF02002EFF3EE
:10428400118382F31288BFF36F8F08EB041CDCE9FF
:1042940002AB504571EB0B0102930AD283F31188F0
:1042A400BFF36F8F103514B105B0BDE8F08F012452
:1042B400C2E70020D5E900134FF0FF3203934FF01B
:1042C400FF3328600A48CCE90223C0F8489320460B
:1042D40004F0D2FA029B83F31188BFF36F8F002995
:1042E400E0D0039B524600935B468847DAE700BF61
:1042F40000500140900A042060070420840A04202E
:104304004051014070B501240C4B186890B1B0FACB
:1043140080F0C0F11F0004FA00F1C943D3E8EF2F85
:1043240002EA0105C3E8E65F002EF7D1C240D207D6
:10433400EBD570BD6FF00B00FBE700BF880A0420CB
:104344000123054A8340D2E8EF0F1843C2E8E10F86
:104354000029F8D1704700BF880A042030B5431CF7
:10436400124C85B005D08442A8BF0446012CB8BFC6
:104374000124FFF741FE0E4B0C4DD3E90013401A04
:10438400B0F5000F0FD22218AA4228BF2A460020F7
:1043940052180849CDE90100009143F10003FFF7E9
:1043A4004DFE05B030BD2A46F1E700BFFFFF7F0098
:1043B40080070420493F050008B5FFF71DFE024BA6
:1043C4001B68C01A08BD00BF8007042030B504680C
:1043D400ACB1B4FA84F30122C3F11F03DBB29A40F7
:1043E40024EA0202D0E8EF5FA54204D1C0E8EC2F32
:1043F400BCF1000FF6D1EAD102480B7030BD02487F
:10440400FCE700BF0000AD0B0200AD0B10B5036864
:10441400CB40DB0710D401238B40026843EA02013E
:10442400D0E8EF4F944204D1C0E8EC1FBCF1000F78
:10443400F6D1F2D1014810BD0148FCE70000AD0BF4
:104444000400AD0B014BC3F8040570470070014034
:10445400014BC3F8080570470070014073B5032889
:1044640058D8DFE800F0021724310222504BC3F879
:1044740008230122DA600022C3F80421D3F80431AE
:10448400002401238DF80730032843D8DFE800F027
:104494002944607C0122464B0DF10704C3F808232C
:1044A4005A600022C3F80021D3F80031E9E74FF441
:1044B40000723F4BC3F8082301225A620022C3F85A
:1044C4002421D3F82431DBE74FF48072384BC3F84E
:1044D40008230122DA610022C3F82021D3F8203115
:1044E400CEE742F21075324ED6F8183403F4803316
:1044F40034B97BB1012004F0E6F9013DF4D109E0BF
:10450400D6F8182402F0030222701BB19DF80700AC
:104514000128F0D002B070BD42F21075244ED6F8D6
:104524000C3403F480333CB9002BF3D0012004F0A5
:10453400CAF9013DF3D1EDE7D6F80C2402F00102EB
:104544002270002BE6D09DF807000128EFD0E1E7A8
:1045540042F21075164ED6F85C3403F480333CB93D
:10456400002BD7D0012004F0AEF9013DF3D1D1E7FF
:10457400D6F85C2402F001022270002BCAD09DF808
:1045840007000128EFD0C5E742F21075084ED6F8AF
:104594005434DB03BED52CB9012004F094F9013D59
:1045A400F5D1B7E79DF807000128F6D0B2E700BFC0
:1045B40000500040044B1A7922B9012218601A7184
:1045C4000248704702487047940A04200000AD0B6B
:1045D4000C00AD0B08B5094B1B6833B10520FDF782
:1045E400E3FD10B90520FDF7BDFD0122044BC3F81E
:1045F4001825C3F81425C3F8802508BD940A04209F
:104604000050004010B5032846D8DFE800F01B0234
:10461400565000224FF480730121002003F180439F
:1046240003F5A04318601C68012402F1804202F5DE
:10463400A0421460274A1268002A44D0264BC3F8CB
:10464400041329E0244BD3F81814D3F81824C9030D
:1046540011D502F00303022B05D0012B02D0002058
:10466400FFF7FCFE01231C4A0221C2F81835082278
:104674004FF48273D1E7D3F81424D207F2D5D3F8D8
:104684001C2402F00302013A012AE8D8114A1268F4
:104694001AB10222C3F8042310BDD3F80421002A5E
:1046A400FBD00022C3F80421D3F80431F4E7182224
:1046B4004FF490734FF48071AFE720224FF492735C
:1046C4004FF40071A9E71A68002AFCD018601B682F
:1046D400E2E700BF940A04200050004010B5284BC4
:1046E400D3F8002152B10020C3F80001D3F800210F
:1046F4000122C3F80823234B1B689847204BD3F8A7
:10470400042182B10022C3F80421D3F80421D3F890
:104714001824D3F81824022102F00302012A26D116
:10472400C3F818159A60164BD3F8202162B1002201
:10473400C3F82021D3F820214FF48072C3F8082352
:10474400104B05201B6898470D4BD3F82421AAB1C0
:104754000022C3F82421D3F824214FF40072C3F8B3
:104764000823084B0620BDE810401B681847C3F80F
:104774000813044B01201B689847D4E710BD00BF01
:1047840000500040940A042001460148FFF71EBE71
:10479400300104200123044A83400146C2F808354D
:1047A4000248FFF733BE00BF00700140300104200F
:1047B400036803F01F025B09026004D0012B034865
:1047C40018BF002070470248704700BF002884408B
:1047D40000258440034A4309D35C00F01F001844B9
:1047E400C0B2704715A7050070B505460846FFF727
:1047F400F1FF42212A79174B01FB0202083233F8F8
:104804001200C10525D584240026C0F3432120F4D9
:10481400F85023F812002A7904FB02340E3434F8D9
:10482400020F10F4807F03D0C0F34320814210D0E4
:104834000136302EF3D184200024424302EBC1021E
:104844009C502A79BDE8704000FB02307830FFF7B5
:10485400DDBD70BD34010420034611F0010010B524
:10486400CCB20BD1A207C4F340000DD5074A106A9D
:1048740058601062003818BF012005E004490A6A34
:104884001A600A62002AEDD010BD00BF00288440DF
:104894000025844010B504460846FFF79BFF4223D9
:1048A40003FB0400024B083033F81000400B10BD2A
:1048B4003401042010B504460846FFF78BFF422359
:1048C40003FB0400034B083033F81000C0F340002E
:1048D40010BD00BF3401042010B504460846FFF79C
:1048E40079FF422303FB0400034B083033F8100024
:1048F400C0F3401010BD00BF34010420F0B50546DC
:1049040000200126044607468C420BD1114BD3F8F4
:104914007C2132B10022C3F87C21D3F87C3140F0F1
:104924000040F0BDE3B29B0003F580729B0806FAD9
:1049340003F31D420BD002F1804202F53C32D2F85F
:1049440000C0BCF1000F02D0176012681843013494
:10495400DAE700BF00F002402DE9F04F0546644B52
:10496400296FD3F8040387B0C0B240F00040FFF7CA
:10497400C5FF061E2CDA0023E96F04A8CDE9043331
:10498400FFF76AFFDFF86CA1DFF86CB10DF11009D5
:104994001AF8013B05EBD30292F87C2003F00703DD
:1049A40022FA03F3DA0769D4544B09F10409534595
:1049B4000BF1010BECD1296F4FF00040FFF79EFF84
:1049C400E96F04A8FFF748FF0028DBD126F0004672
:1049D4000124002E73D107B0BDE8F08F91FAA1F144
:1049E400B1FA81F19BF8004041EA44142046FFF7F4
:1049F400F1FE083035F81080C8084FEA9803019397
:104A0400012319F8002001F0070103FA01F122EA59
:104A1400010209F8002003A80394FFF7C9FE039AD2
:104A2400019B803250F82220C8F382075B07B84606
:104A3400C2F3014227D52846D7B22146424603F0A5
:104A4400B9FF03A80394FFF7B3FE039B803350F828
:104A54002330C3F301439F4207D10021204603F0D2
:104A64009AFF3946204603F096FF03A80394FFF704
:104A74009FFE0122039B02FA03F30362D9F800109C
:104A84000029ABD190E7022A0DD10321204603F07F
:104A940082FF07F00503012BE7D142462146284651
:104AA40003F088FFE1E702212046019203F073FF3F
:104AB400032FF2D0019A032AD7D1022FECE796FAFA
:104AC400A6F3B3FA83F304FA03F29B0003F18043E1
:104AD40003F53C33D3F8101526EA0206D3F8102563
:104AE4002846C2F30142C1F3052103F063FF70E7D6
:104AF40000F0024025A7050025A7050027A705000B
:104B04002DE9F74305460846FFF764FE42222B7958
:104B1400204F02FB0303083337F813300E46DB073C
:104B2400044635D5284603F076FF95F804903146BF
:104B34004846FFF7D1FE60B14846FFF7ABFE0022BE
:104B4400D5F8008000B208EB8003C3F81025C3F841
:104B5400102528463146FFF747FE42222B7901A84B
:104B640002FB03440023083427F814300196FFF7AE
:104B74001FFE019B00EB8300D0F80022064B13407C
:104B840043F00203C0F80032044803B0BDE8F083E8
:104B94000348FAE734010420F0F0FCFF0000AD0BF9
:104BA4000400AD0B2DE9FF47174604460846FFF7FE
:104BB40011FE3E688846054676B394F8049048464C
:104BC400FFF778FE18B14846FFF786FEA0BB002326
:104BD4004046CDE900338DF80E308DF80F300DF1DD
:104BE4000F0233460DF10E0103F08CFE42202379AF
:104BF400644A00FB0353083332F8131021F0020116
:104C040022F81310237900FB0353083332F81310EE
:104C140041F0010122F813107B68002B45D026795E
:104C24004146304693F80090D3F804A0FFF742FEC3
:104C340020B1BAF1000F22D0534839E04FF0420CB2
:104C44000CFB06564F49083631F8163023F46043FE
:104C540023F0200321F81630BAF1000F0FD0B9F178
:104C6400030FE9D87B6826685B68187806EB800632
:104C7400B9F1000F1FD1C6F81095C6F8109542205F
:104C84002379404A00FB0353083332F8131021F010
:104C94001C0122F81310237900FB0353083332F864
:104CA400131041EA890122F81310BB6863BB37482B
:104CB40004B0BDE8F087D6F8102522F00302C6F848
:104CC4001025226802EB8003D3F8102522F44F321A
:104CD40022F44072C3F810254FEA0822D3F8106575
:104CE40002F47C5242EA09423243C3F81025237984
:104CF4000CFB0353083331F8132042EA403242F0EC
:104D0400200221F81320BAE74146D3E90097204650
:104D1400FFF76AFDB9F1000FC9D084232079194E39
:104D24004343F218F358994504D153689F4201D183
:104D340000210CE0842303FB00600DF10F017830A7
:104D4400FFF744FB114B9842B2D19DF80F10842217
:104D54002379534303EBC10346F803902379534368
:104D6400422203EBC10333445F60237902FB035304
:104D7400083336F8132042EA412242F4807226F8BE
:104D8400132094E7340104200400AD0B0000AD0BA4
:104D94002DE9FF470646084690461F46FFF71AFDD1
:104DA4000C460546B8F1000F33D096F804904846F7
:104DB400FFF780FD18B94846FFF78EFD80BB4223FC
:104DC40003FB0959DFF8F4A009F108093AF819308E
:104DD40013F01C0F03D098F80130012B20D00123CD
:104DE4008DF80F30002308F10102CDE9008320463D
:104DF40008F102030DF10F0103F084FD422233791F
:104E040002FB035308333AF8132042F003022AF852
:104E14001320002F50D021463079FFF74BFD18B9ED
:104E2400274804B0BDE8F08700214FF0420E3878DF
:104E34003368820003EB8003C3F81015C3F8101520
:104E440033791E490EFB0353083331F813C02CF495
:104E5400604C2CF0200C21F813C097F801C0BCF171
:104E6400000F29D03368BF781A44D2F810354FEABE
:104E74000C4C23F4991323F4F853C2F8103523028D
:104E840003F47C530CF4403C3F05D2F8108543EA0C
:104E94000C0307F480173B4343EA0803C2F81035B8
:104EA40033790EFB0355083531F8153043EA4033A6
:104EB40043F0200321F815300248B2E734010420FE
:104EC4000400AD0B0000AD0B30B584250479044B10
:104ED40005FB0434A160017905FB0133DA6030BDC0
:104EE4003401042070B5067914463046FFF7F4FC0B
:104EF40068B10846FFF76EFC422303FB0600054B2E
:104F0400083033F8103004485B0B237070BD03483D
:104F1400FCE700BF340104200000AD0B0400AD0B1E
:104F24002DE9F0410646077984201A4D00FB075805
:104F340098F8804064BB404621466022103003F05C
:104F4400D2FF21463668D8F87000884216D1002373
:104F540046F30730C6F87C31D6F87C31FDF702F908
:104F64004FF00043C6F80433842303FB07550123A1
:104F7400094885F88030AB67BDE8F081CBB29B006F
:104F840003F580727C2B04BFB450B3580131DCE7C5
:104F94000248F1E7340104200000AD0B0C00AD0B16
:104FA40084210279044B01FB023393F8800000381A
:104FB40018BF0120704700BF3401042084237422E9
:104FC400007913FB002302481844FFF71FBA00BFFF
:104FD4003401042084237422007913FB0023024843
:104FE4001844FFF7F3B900BF340104202DE9F3415D
:104FF4000679044630460D461746FFF76DFC08B3A4
:105004003046FFF757FC8046E0B93046FFF742FCD4
:1050140005B22168AD0005F5807241F802808A5816
:1050240021682944D1F8102542F00102C1F8102565
:105034002FB10122216802FA00F3C1F8043302B04F
:10504400BDE8F0812846FFF7C5FB422303FB0600B9
:105054000E4B083033F81030C3F38203042B11D005
:10506400052B11D001A80195FFF7A2FB019B016953
:10507400D94001F001010231284602B0BDE8F041F7
:1050840003F089BC0321F7E70221F5E7340104208A
:105094000148FFF761BC00BFB801042070B5084C9B
:1050A4000E462379154643B92A20FDF75BF8012300
:1050B400044823712660A56070BD0348FCE700BF67
:1050C4009C0A04200000AD0B0C00AD0B002330B58E
:1050D4000D4A50F8234003F5A2710133102B42F816
:1050E4002140F6D10023084A00F13C0103F5B274D3
:1050F40051F8045F0133102B42F82450F6D1D0F854
:105104008030C2F8043330BD00A002400123024ABB
:105114008340C2F80433704700A002400123024ACE
:105124008340C2F80833704700A00240F8B5012656
:1051340000270B4B0B4DD3F80C4304B9F8BD94FA7C
:10514400A4F0B0FA80F006FA00F324EA0304064B54
:1051540082009F502B68002BEFD0A9689847ECE79A
:1051640000A002409C0A042000A10240036803F04E
:105174001F025B09026004D0012B034818BF002002
:1051840070470248704700BF0028844000258440CF
:105194004B69304A93424BD00DD82F4A934247D0A3
:1051A40007D82E4A934243D02D4A934240D02D48EB
:1051B40070472D4AF9E72D4A934208D004D82C4A67
:1051C400934235D02B4AF0E72B4A9342EFD1027930
:1051D400002A3CD091F823201AB191F82420002A07
:1051E40033D10068254A90422FD1234A93422CD1CF
:1051F4000B685A1C01D0082BD9D14B68581C01D01C
:10520400092BD4D18B685A1C01D00A2BCFD191F829
:10521400213023B1CB68581C01D00B2BC7D1CB69EB
:1052240017485A1C15D00F4A0C2B18BF104670474C
:1052340091F8212012B1CA680132C8D1CA69013279
:10524400C5D191F82320002AC7D10D4870470D48D5
:105254007047704780841E0020A1070048E80100C1
:1052640090D003000400AD0B40420F000024F40072
:1052740000093D0000127A000048E80100A0004047
:105284000000AD0B0300AD0B73B51646421C1C4663
:105294000546069B18D0012902D1BBB103F039FCA5
:1052A40001A80195FFF762FF019B240200EB830034
:1052B400D0F80022074B44EA86040C4313401C43F5
:1052C40044EA4101C0F8001202B070BD03F02DFCA5
:1052D400E6E700BFF0F0FCFF2DE9F04F8C4B4D6981
:1052E40006469D420C4690F8049087B000F0E88092
:1052F40000F2D880874B9D4200F0E58000F2CA801E
:10530400854B9D4200F0E280844B9D420CBF4FF0E0
:1053140080654FF080452422814F94F8230002FBDE
:105324000973997F60F3000199773379217C02FB3B
:105334000373D97794F82380B8F1000F34D16269EC
:10534400784B01219A420CBF4FF0030A4FF0000A38
:10535400237E4246012B94BF00230123009320683F
:105364005346FFF791FFCDF8008053464246012192
:105374006068FFF789FFCDF8008053464146A27E5E
:10538400A068FFF781FF237C424683F0010300936A
:1053940001215346E068FFF777FF0121009153464E
:1053A4004246E069FFF770FF317994F82130002913
:1053B40000F09580002B00F0928024224FF0FF3003
:1053C40002FB09721062627E94F8210094F8129034
:1053D40094F818E0D4F81CC00492002800F08980E6
:1053E400E06894F8108094F822B094F820A0CDF8E6
:1053F400148029B1002B7FD11CF1010118BF0121B8
:1054040094F824803368B8F1000F0CD1226802921A
:105414006268A4680392029AC3F80825039AC3F841
:105424000C25C3F81045049AC3F8C095003A18BF78
:105434000122BEF1020FC3F824555FD0BEF1030F61
:105444005FD0BEF1010F01D142F00202C3F854252E
:1054540091B1B8F1000F0DD1BCF1FF3F18BFC3F8F3
:105464006CC5421C1FBF059AC3F81405C3F8682510
:10547400C3F864B5C3F860A5242233795343FB58B9
:10548400002B41D0306840F3073007B0BDE8F04F3F
:10549400FCF768BE244B9D420CBF4FF080554FF083
:1054A400804538E7214B9D4213D01E4B9D4213D0BB
:1054B4001F4B9D420CBF4FF000454FF080452AE73B
:1054C4004FF0005527E74FF0006524E74FF00075D3
:1054D40021E74FF020651EE74FF0A0551BE724207D
:1054E40000FB0979E268C9F82020227C89F81F2092
:1054F40069E74FF0FF3074E7012181E742F00402CD
:10550400A4E742F00602A1E707B0BDE8F08F00BFB0
:1055140080841E0020A1070048E8010090D0030009
:10552400A80A04200048E80140420F000024F400C7
:1055340000127A00431C07B50ED0019001A8FFF7B2
:1055440015FE019B00EB8300D0F80022044B1340AE
:1055540043F00203C0F8003203B05DF804FB00BF5F
:10556400F0F0FCFF2DE9F047242590F80490144C4A
:1055740005FB09F504EB050A1F469AF81C3006469C
:105584009046D3B961B96251CAF80470242303FB6D
:1055940009440023637701230A482377BDE8F08791
:1055A400FFF7F6FD074B9842F8D1304644F80580E2
:1055B400CAF80470FFF790FEE8E70348EEE700BF7F
:1055C400A80A04200000AD0B0C00AD0B2DE9F0413E
:1055D4000446067900681F4D40F30730FCF7D0FD00
:1055E40024237343EB5853B123681B4A06EBC601CB
:1055F400C3F80823206805EB810103F0A2FA2421F3
:1056040001FB06512368D3F80805D3F80C75D3F8C9
:1056140010858B7FDB0716D4FFF78CFF4046FFF71E
:1056240089FF3846FFF786FF086AFFF783FF23796F
:105634004BB12368D3F86C05D3F81415FFF77AFF40
:105644000846FFF777FF242303FB065500232B7737
:10565400BDE8F081A80A04205201080024232DE9A2
:10566400F0430779524D7B439046EA180E46517F2A
:10567400814685B0002940F09880EB5823B118F09A
:10568400140F04BF01235377242496E80F0004FB6E
:10569400075404F10C0C8CE80F00206A431C03D05F
:1056A400E37FD3B103F035FA3368D9F8004023B16E
:1056B40003F06043B3F1005F06D1B36883B103F034
:1056C4006043B3F1005F0BD02423002203FB075394
:1056D40038485A7705B0BDE8F08303F026FAE3E7CB
:1056E40018F0010318BF0123C4F8503518F0020361
:1056F40018BF0123EC46C4F8403596E80F008CE847
:105704000F00039BC4F84405C4F84815C4F83425B5
:10571400C4F838350023C4F81831D4F818310723F5
:10572400C4F8003524237B4318F0080F05EB03026B
:105734001DD10121E858216158B9D4F81831002B42
:10574400FBD062464021204603F0A5F924237B4385
:10575400EA18EB5803BB106A411C12D107EBC707C8
:10576400204605EB870103F0ECF91348B2E7EB5848
:1057740093B9106A431CF8D0D37F53B103F0D5F921
:10578400F3E7D37F13B103F0D0F9E7E703F0C1F9EE
:10579400E4E703F0BEF9E8E7402318F0040F14BF70
:1057A400C4F80833C4F80433DFE7044892E700BFC1
:1057B400A80A04200A00AD0B0000AD0B0B00AD0BD2
:1057C4000149024803F0D3B9A80A0420009000401C
:1057D4000149024803F0CBB9CC0A042000A00040E0
:1057E40010B50446FBF76EFD03480121034A02F09D
:1057F40084FD204603F0EEF9FC95050027A705007B
:105804002DE9F84304460D4600AF4FF02003EFF3B3
:10581400118883F31288BFF36F8F0428294A98BF35
:10582400294BE9468AB09668117C98BF53F820301A
:105834006A4688BF254BC2E9073140F20133244848
:105844009384244BC2E9050442F8103F00234FF42B
:1058540031512148FBF71AFECD4645B1EB69C3F33C
:10586400080323B101211D4A1B4802F046FD2EB155
:10587400304603F0C5F908B1037803B91848E9467E
:105884008AB06A46174BD061C2E9053640F201334B
:105894001384154B42F8103F00234FF411510E4866
:1058A400FBF7F4FD2946CD462046FFF799FF88F320
:1058B4001188BFF36F8F3046FCF7E2FBBD46BDE8AD
:1058C400F88300BFF40A0420909B050036A7050066
:1058D4004CA7050005000001FC95050074A7050010
:1058E40044A7050095A7050004000001104B70B5FE
:1058F40053F82040013053F82060A64200D870BD10
:10590400D4E9003595B153B12846984738B10028F9
:10591400B8BF4042FF28A8BFFF20EB681870EA68B0
:10592400537843F0010353700834E6E79847FBE7E4
:10593400A49B0500012208B5094B03201A70FFF748
:10594400D5FF00F0ABFE0420FFF7D0FF00F030F9E4
:10595400FAF76EFD034A137B23F00103137308BDAA
:105964004C0B04201008042008B50348034A002106
:10597400121A03F038F908BDA0020420500B0420C9
:105984000023012270B586B0CDE904230F220193D0
:10599400CDE9023214234FF4A0720446114D124E85
:1059A40003FB0055114906EBC01602FB0011104B16
:1059B4003046009500F092F8737B2C7423F00403B6
:1059C40073730C4B013403EBC4236B600A4BEE601E
:1059D400D3E8EF1F0131C3E8E21F002AF8D106B073
:1059E40070BD00BFF40A0420900704205016042060
:1059F400098C0500500E0420F00A042080B5002014
:105A0400A6B0FFF773FF2E4B03F5006282F30888FC
:105A140083F30A880024E0232A4D2B4E85F8223094
:105A2400EC772C766C76AC7685F820406B6A274F41
:105A340043F4E0236B6285F82340FCF7A3FAFCF7F8
:105A440029FC4FF0FF33AB62EB62FCF7F7FDFCF788
:105A54007DFCFBF7A7FB40F20113ADF8243006AB45
:105A6400B360CDE91E44219403F0A8F80120FFF7A8
:105A74003DFF0220164DFFF739FF00F05FFB154B89
:105A840075610593012314494FF48062CDE9034302
:105A940028463B46CDE90144009400F01FF8064631
:105AA4006A7B284622F004026A7303F0FDF820465C
:105AB400FFF766FF3A4631462846FCF7D1FB00BFA4
:105AC400500E042000ED00E0F40A042039590500CA
