:020000025000AC
:1000000070120420890A0500754E0500750A050066
:10001000750A0500750A0500750A0500750A0500D0
:10002000000000000000000000000000410C05007E
:10003000750A050000000000D90B0500750A0500CF
:10004000210E0500210E0500210E0500210E0500E0
:10005000210E0500210E0500210E0500210E0500D0
:10006000210E0500210E0500210E0500210E0500C0
:10007000210E0500210E0500210E0500210E0500B0
:10008000210E0500210E0500210E0500210E0500A0
:10009000210E0500210E0500210E0500210E050090
:1000A000210E0500210E0500210E0500210E050080
:1000B000210E0500210E0500210E0500210E050070
:1000C000210E0500210E0500210E0500210E050060
:1000D000210E0500210E0500210E0500210E050050
:1000E000210E0500210E0500210E0500210E050040
:1000F000210E0500210E0500210E0500210E050030
:10010000210E0500210E0500210E0500210E05001F
:10011000210E0500210E0500210E0500210E05000F
:10012000210E0500210E0500210E0500210E0500FF
:10013000210E0500210E0500210E0500210E0500EF
:10014000210E0500210E0500210E0500210E0500DF
:04015000210E050077
:1001540053B94AB9002908BF00281CBF4FF0FF312A
:100164004FF0FF3000F00CB8ADF1080C6DE904CE8F
:1001740000F008F8DDF804E0DDE9022304B070477C
:10018400704700BF2DE9F04786468C460846089E16
:10019400154674461946002B40F0C1808542B2FAD8
:1001A40082F245D94AB1C2F1200300FA02FC95401B
:1001B40094402EFA03F343EA0C0C4FEA154EA8B20E
:1001C400230CBCFBFEF80EFB18CC08FB00F943EA39
:1001D4000C43994528D9EB1808F1FF3704D2994507
:1001E40002D9A8F102072B44A3EB0903A4B2B3FB81
:1001F400FEFC0EFB1C330CFB00F044EA0344A0425B
:1002040014D92C190CF1FF3304D2A04202D9ACF159
:1002140002032C44241A43EA07401EB1D4400023AD
:1002240034607360BDE8F0874746DDE76346F1E775
:1002340092BB431B01214FEA154EAFB2200CB3FB16
:10024400FEFC0EFB1C330CFB07F840EA0343984505
:1002540061D9EB180CF1FF3004D2984502D9ACF106
:1002640002002B44A3EB0803A4B2B3FBFEFC0EFB79
:100274001C330CFB07F744EA0344A7424DD92C195D
:100284000CF1FF3304D2A74202D9ACF102032C448F
:10029400E41B43EA0040C0E7C2F1200395409440C8
:1002A40020FA03F12EFA03F34FEA154E9040AFB251
:1002B4000343B1FBFEFC0EFB1C10190C0CFB07F8EE
:1002C40041EA0041884522D969180CF1FF3004D273
:1002D400884502D9ACF102002944A1EB08019BB284
:1002E400B1FBFEFC0EFB1C110CFB07F743EA0143B8
:1002F4009F420ED9EB180CF1FF3104D29F4202D970
:10030400ACF102012B44DB1B41EA004193E7604658
:10031400E3E76146F7E76046A4E76346B8E783424C
:1003240006D916B9002108467CE7C6E900E0F9E7DA
:10033400B3FA83F78FB9834201D3724508D8BEEB71
:10034400020460EB030301209C461EB9002169E707
:100354003846FAE7C6E9004CF8E7C7F1200CBB4081
:100364000EFA07F522FA0CF42EFA0CF1BA401C43EB
:1003740020FA0CF3B8404FEA144901431FFA84FEF3
:10038400B3FBF9F809FB18300B0C08FB0EFA43EA2F
:1003940000439A4540D9E31808F1FF3004D29A4546
:1003A40002D9A8F102002344A3EB0A0389B2B3FBE8
:1003B400F9F809FB183308FB0EFE41EA03418E45A8
:1003C4002CD9611808F1FF3304D28E4502D9A8F163
:1003D4000203214443EA0040A1EB0E01A0FB029872
:1003E4004145CE46434602D306D14D4504D2013899
:1003F400B9EB020E68EB0403002EA7D0B5EB0E0296
:1004040061EB030101FA0CFC22FA07F3F9404CEA10
:100414000303C6E9003199E74046C5E74346D9E7F7
:100424000C480D4B10B5186005F095F988B10B4CCC
:10043400204605F090F960B12269A168136820464E
:1004440043F4801313600B68054A1421BDE810407F
:10045400184710BD4C5B050068030420105B0500C1
:1004640001000A0010B5134B8AB01A889B78ADF8C6
:1004740000208DF80230104B01AA1B88CDF808D05B
:10048400ADF8043000238DF806300323CDE90423AE
:10049400039302AB0693012304AACDE9082307932F
:1004A400064B1868836806491C6806AA08ABA0476F
:1004B4000AB010BDE05F0500905D050068030420EC
:1004C400A85D0500014B1B68184700BF000004200D
:1004D400014B1860704700BF0000042030B585B0A0
:1004E40004460D4610220021684605F05AFA0223FC
:1004F4008DF80230044B2A4621466846019304F0E5
:10050400F9F805B030BD00BFC904050080B5054643
:100514000E461746984603F087FF034605F0ACFAEB
:100524000446DFF81890424649F800303946304610
:10053400A84754F8090000F01FFB00BF08000000A2
:100544002DE9F047058B04462807904611D402296B
:1005540005F0070540F0CD80204604F0A9FB78B1F2
:100564000138218B042811D8DFE800F0C3106D8511
:10057400950001290CBF45F0100545F020052583A1
:1005840088F31188BFF36F8FBDE8F08701F0070A85
:10059400AA4500F0A6800027B9463E46A368002B72
:1005A40000F0BD8041F00801218388F31188BFF376
:1005B4006F8FA168002900F0BB800D68002900F04E
:1005C400B780334652462046D1F80480C047002DF8
:1005D40076D02B6829461D46F0E701F007035A1F21
:1005E400012A1BD8002221F00701062B276889B2B3
:1005F400C4E9002209D13B4603E0628B01326283E5
:100604001B68002BF9D141F002012046218304F03C
:100614004FFB00287BD041F0200177E0042B0AD166
:1006240021F0070189B22046218304F041FB10B177
:1006340041F020012183218B01F0070AAA4550D003
:100644000027B946AAE7236921F0070141F0060112
:10065400062DD3F8009021832DD1B9F1000F40D09D
:1006640041F00801218388F31188BFF36F8F20467E
:100674003949C84729E021F00701236941F0040101
:1006840089B2042DD3F804902183E6D000274FF0DB
:10069400040A3E4682E721F00701236941F005017F
:1006A40089B2052DD3F808902183D6D000274FF0C6
:1006B400050A3E4672E700274FF0060A3E466DE7FC
:1006C4002B4687E7B9F1000FD1D14FF02003EFF3A8
:1006D400118883F31288BFF36F8F238B23F00803F1
:1006E4002383258BEA062ED525F01003238305F0FA
:1006F40007056669218B002EBFF66FAF00232768BC
:10070400C4E9003321F0070141F001012183218B69
:100714004FF0000901F0070AAA457FF43FAF002F0C
:100724009BD041F00801218388F31188BFF36F8FB8
:10073400002FC7D03D68394633465246204604F060
:10074400E3FA2F46F4E7AB067FF51AAF25F0200352
:10075400238305F00705FFE6394D0500014B0360CF
:1007640000207047C85D050030BFFFF7FDBF00BF24
:10077400114B124A2DE9F041D518013DB5FBF3F5B3
:10078400DFF83C805D430F4B074608EB0304013C54
:10079400B4FBF3F403FB04540E1B30460A4905F082
:1007A400F3F8701942460021083E05F0FAF83E6756
:1007B40004F10800BDE8F081010000000000000021
:1007C4000400000004000000885D0500044B9968E3
:1007D4005869884203D003494FF080520A60704739
:1007E400D804042004ED00E0154B9A6A12F0007F4F
:1007F4009A6A14BF1E201D2012F0807F9A6A18BFC7
:100804001F2012F4801F9A6A18BF022012F4002FCE
:100814009A6A18BF212012F4802F9A6A18BF2220E6
:1008240012F4003F9A6A18BF232012F4803F9A6A98
:1008340018BF24206FEA02426FEA12429A6270479C
:1008440000ED00E010B5194B0246986A9C6A10F45A
:10085400805F14BF1720162014F4006F9C6A18BF21
:100864001820A40509D5986B986A000404D51AB118
:100874009A6A22F400429A6219200C4B9A6A12F482
:10088400806F9A6A18BF1A20D2050CD49B6A13F49D
:10089400005F18BF1C20054A936A43F47F439362A8
:1008A40000230B7010BD1B20F5E700BF00ED00E036
:1008B40010B51C4B0246986A9C6A10F0100F14BFC6
:1008C4001120102014F0080F9C6A18BF1220A407EE
:1008D40009D5586B986A000604D51AB19A6A22F0B1
:1008E40080029A6213200F4B9A6A12F0010F9A6ADF
:1008F40018BF142012F0200F9A6A18BF1520D406CE
:1009040058BF9B6A074B9A6A920642BF5A6A22F4FE
:1009140000525A629A6A42F0FF029A6200230B70F4
:1009240010BD00BF00ED00E0F0B54A4B04465B6823
:1009340000258BB0C3F3080385F31188BFF36F8FD1
:1009440002F07F40B0F17F4F16D1D60714D455067C
:1009540003D4100704D4012504E012F0040200D0EB
:100964000C4600250022033B8DF80720032B05D8F5
:10097400DFE803F02462665F2C46F3E700239DF86A
:100984000720CAB902AE04F1200732462068616824
:10099400083403C2BC421646F7D1099A002D53D03D
:1009A400C2F3080121B96FEA52226FEA4222099286
:1009B400184602A904F056FA0BB0F0BD254BDA6ACA
:1009C4009107DBD4DA6A002AD8DBDA6A5200D5D57B
:1009D4005A69A16942F480725A61BFF34F8FBFF321
:1009E4006F8F5A6931F8021C22F480725A61BFF386
:1009F4004F8FBFF36F8F4DF60272914201D123687E
:100A0400BDE79A6AD2B232B101200DF10701FFF7B6
:100A14004FFF0346B3E79A6A12F47F4F05D00120D3
:100A24000DF10701FFF70EFFF3E79B6AB3F5803F73
:100A3400A4D3FFF7D9FEECE700200DF10701E6E7A8
:100A440000200DF10701EDE722F4FF7222F001020C
:100A5400ADE700BF00ED00E0044B5A6942F010021C
:100A64005A615A6942F480625A61704700ED00E0AD
:100A7400EFF30880EFF3098101B57246FFF754FFE5
:100A840001BD00BF002080F31488BFF36F8F0020E6
:100A940080F30A8880F30B8800F044FC00200E49A0
:100AA4000860BFF34F8F0D4880F3088800F03EF8CC
:100AB400202080F311880A484FF40061401880F325
:100AC4000988EFF314800221084380F31488BFF3EC
:100AD4006F8F00F009F9000094ED00E0701204201B
:100AE40030050420BFF34F8F0549064BCA6802F452
:100AF400E0621343CB60BFF34F8F00BFFDE700BF3D
:100B040000ED00E00400FA05002318460649D1F878
:100B14009020C2F30722934200DB7047C1F898305B
:100B2400C1F8A0000133F6E700ED00E010B572B69D
:100B3400002484F31388FFF7E7FF23464FF0FF30C8
:100B44000C4A03F120010133102B42F82100F8D1A3
:100B540000234FF0FF30074A03F160010133102BEB
:100B640042F82100F8D162B6BFF34F8FBFF36F8F05
:100B740010BD00BF00E100E0084B9B6883420BD12D
:100B8400EFF3058343B1064B5A6842F080525A6032
:100B94005A6A22F400425A6204F0BBBED80404200C
:100BA40000ED00E06FF00A01084A9368996708496C
:100BB40058674B6843F080534B60002383F31188DC
:100BC400BFF36F8F9368986F704700BFD8040420F9
:100BD40000ED00E016498A684FF030001044EFF34E
:100BE400098C80E8F01F202080F31288BFF36F8FF8
:100BF400104F4FF000664A698A603E604FF07004FF
:100C0400141920680C4C2060506F0023536780F344
:100C1400118802F1300090E8F01F8CF3098802F18A
:100C2400000004B504F02FF9BDE80440704700004B
:100C3400D804042004ED00E06C0304201EF0040F2B
:100C44000CBFEFF30880EFF30980816911F8021CEF
:100C54000229FFD001B504F007F901BD40B2002814
:100C640007DB01234109034A00F01F00834042F8D7
:100C74002130704700E100E040B200280CDB012283
:100C84000649430900F01F008240203341F8232025
:100C9400BFF34F8FBFF36F8F704700BF00E100E0D9
:100CA400054B420953F82220012300F01F0003FAE8
:100CB40000F01040704700BF00E100E040B200289F
:100CC40001F10101ACBF00F16040064B4FEA411154
:100CD400C9B2ABBF00F5614000F00F0080F800130B
:100CE4001954704714ED00E00B4A08B50B4B22F081
:100CF4007F029A60BFF34F8FBFF36F8FD3F88820C2
:100D040022F47002C3F8882002F02EFF03F092FB55
:100D140000F078F802F072FF0000050000ED00E03A
:100D240042F8203C009B0B4942F81C3C019B21F0FB
:100D3400010142F8183C029B42F8081C42F8143C9A
:100D44004FF0807342F8043C0023203A0265436765
:100D5400704700BF110505000A4B046F98600A4BE9
:100D64001C60036E83F30B88104681F3098800210D
:100D740063B681F31188BFF36F8F00220023FFF75E
:100D8400C5FB00BFD80404206C03042001491022D1
:100D94000A60704710ED00E072B6404080F311889D
:100DA400BFF36F8F01B500F077FA00280AD0BFF3C4
:100DB4004F8F30BF00BF00BF00BF00BF00BF00BFE8
:100DC40000BF00BFBDE8014062B6BFF36F8F70473C
:100DD40072B6494081F3118801B500F05DFA00282C
:100DE4000AD0BFF34F8F20BF00BF00BF00BF00BFBA
:100DF40000BF00BF00BF00BFBDE8014080F3118801
:100E040062B67047002320210348C2180133452BE2
:100E140082F80013F9D1704700E100E001B5EFF367
:100E24000580A0F110004FEAC0000449014409C93B
:100E34009847BDE80140024908470000605B05008F
:100E4400D10705001FB5094C094A23460121094869
:100E540000F0EAF800230393074B0121E41A01A8E8
:100E64000193029400F0EAF804B010BD00000720DA
:100E740000000420C85D05002802042010B50C7A87
:100E84000B6804F01F0223F01F031A43CB686409A4
:100E940023F01F03054943EA440343F00103C1F867
:100EA4009800C1F89C20C1F8A03010BD00ED00E00E
:100EB4002DE9F04F0F46144606464FF000084E4DFC
:100EC40085B0B84580F29480D6F80490B9F1000F4B
:100ED40036D0B9F11F0F40F2898019F01F0F40F08E
:100EE4008580D6F800A01AF01F0F7FD1504603F07A
:100EF400CEFF834609EB0A00013803F0C8FF83459F
:100F040074D11BF1160F71D05C456FDDC5F898B034
:100F1400D5F89C10C5F898B0D5F8A03021F01F0181
:100F240043F01F0AD6E900321A44994202F1FF390C
:100F34001ED1CA4508D131465FFA8BF003F0B0FFE9
:100F440008F101080C36BCE73146C5F898B0D5F86D
:100F54009C3022F01F0203F01F031343C5F89C309A
:100F6400E0B203F09DFF10F1160F3FD0441CE7E7F9
:100F7400C5F898B0D5F8A020013B23F01F0302F078
:100F84001F021343CA453146E0B2C5F8A030E8D089
:100F940003F086FF10F1160F28D0C5F898B0D5F8E5
:100FA4009C209DF808300AF1FF3A62F304038DF89F
:100FB4000830D5F8A0309DF808205B0863F3471289
:100FC4008DF80820D6E900321344009323F01F0360
:100FD400411C5344A3EB0903C8B223F01F030728A1
:100FE400039303D86946FFF749FFBFE76FF0150481
:100FF400204605B0BDE8F08F00ED00E00522044B6B
:10100400C3F89420BFF34F8FBFF36F8F704700BFB7
:1010140000ED00E0BFF35F8F0022024BC3F8942081
:10102400704700BF00ED00E010B5034C2278FFF7D5
:101034003FFF207010BD00BF080504202DE9F74FC5
:10104400294D8A4606464FF00008AB46274FD04547
:101054001BDAD6F80490B9F1000F3FD03168084686
:10106400019103F014FF0199044609EB01000138D2
:1010740003F00DFF84424FF014021D4B08D002FB15
:1010840008F36FF015024BF8032003B0BDE8F08FAE
:1010940014F1160F2C60F8D01978A142F5DD02FB8B
:1010A40008B0C7F89840C7F89840D7F89C4000F1BA
:1010B4000801007B64F304000871D7F8A0000C79E0
:1010C400400860F347140C71D7F89C1021F01F01FD
:1010D4006960D7F8A01021F01F01296108F1010807
:1010E40014350C36B3E700BF7003042000ED00E0B4
:1010F40008050420F0B5384D87B02C68082C67D853
:101104000020FFF787FF354B354AC3F8C0208442DF
:101114000DD1344D01A82C70FFF720FB00240646A6
:10112400314FA6420AD1FFF769FF00204EE06968FB
:1011340001EB0011FFF7A2FE0130E8E7019920015D
:1011440001EB0413DA683A40B2F5001F22D0B2F57D
:10115400800F2CD0B2F5801F36D15A689B6809588D
:10116400013B22F01F0003440120844623F01F03A7
:1011740040EA4C108DF810002878CDE902210728A8
:10118400059321D802A9FFF779FE2B7801340133A6
:101194002B70C6E75A689B680958013B22F01F0070
:1011A40003444FF0020C012023F01F03E0E75A68C8
:1011B4009B680958013B22F01F0003444FF0000CC8
:1011C400062023F01F03D3E76FF0150007B0F0BD2E
:1011D4004FF0FF30FAE700BFD45D050000ED00E0FA
:1011E400AAFF4400080504200000F0FF08B5024BE4
:1011F4001B689847002008BD84030420034B044A5D
:101204001860937843F002039370704784030420BA
:101214000400042008B50649064821F00701C1F17D
:10122400005202F5E02203F006FD002008BD00BFD5
:10123400771204208803042007B50DF1070004F099
:1012440029F9114B98421CD14FF480620F4B10497D
:10125400C3F8B8254FF40062C3F83C259DF8070095
:1012640004F00CF90B499DF8070004F002F9012081
:101274009DF80730984001F0CFFA002003B05DF8E4
:1012840004FB6FF00B00F9E70000AD0B00A0024077
:101294002CA0024028A10240052370B5144D154E20
:1012A4002C780134B4FBF3F303EB8303E41A04F066
:1012B400D4F8114A137823B156F82430C01A0728F9
:1012C40013D90E4BD3F8141141B10021C3F81411F2
:1012D400D3F814312C700CB9012313702C7804F05A
:1012E400BCF846F82400012070BD0020FCE700BFD4
:1012F4000A0504209403042009050420005000403A
:1013040048B1054B054A1B68B3FBF2F35843044B41
:1013140043F00103184770470001042040420F00C6
:10132400A05D050004F0A1B8084B70B5C31A0D46C2
:1013340007499B10044659434022064803F0F9FD2F
:101344002B4601462046BDE870401847BC030420E4
:10135400B76DDBB6E85A0500402373B50B4C009318
:10136400041B0B460D460A49A41061430646094A6C
:10137400094803F00BFE011E05DA30462B4602B085
:10138400BDE87040184702B070BD00BFBC03042024
:10139400B76DDBB6FD4F0500E85A05002DE9F843AB
:1013A4000022012106460520FFF788FC114801F0C0
:1013B400E5FA114B984219D101F0F0FA00244FF0EC
:1013C4001C090C27DFF834803569414609FB0450B9
:1013D40003F0BEFC002807DB012307FB04551C4473
:1013E400042CAB67F0D10020BDE8F8836FF0040053
:1013F400FAE700BF391405000000AD0BFC5D0500E1
:1014040001460C2300224B4370B50848C4187833B6
:101414001844D4E91C56226703F078FD2DB13246F6
:101424002B46BDE870400248184770BDBC03042039
:10143400E85A0500062812D8DFE800F0040F11115D
:10144400110D0B00064B986F10F0070007D1FFF742
:10145400D7BF0220FBE70320F9E70120F7E7704735
:10146400BC03042008B54FF02003EFF3118183F38C
:101474001288BFF36F8F114A136843F002001060A3
:10148400DA0708D481F31188BFF36F8FBDE80840F1
:10149400012001F09BBA0A4BD3F80C24D3F80C3486
:1014A400DB07EFD5074803F031FD81F31188BFF363
:1014B4006F8FBDE808400020FFF7A2BF5C04042042
:1014C40000500040340404201FB500220123CDE95C
:1014D40002236B46084ACDF800D0CDF804D003F0BF
:1014E40084FD002805DB4FF480420023684602F0A7
:1014F400A1FC05B05DF804FB3350050010B54FF0B6
:101504002003EFF3118483F31288BFF36F8F074A2C
:10151400136823F00201DB07116002D4012003F0F9
:10152400BBFF84F31188BFF36F8F10BD5C040420EC
:101534002DE9F041012207463549D1E8EF3FC1E8E2
:10154400E02F0028F9D133B9324933484B60CB60DE
:101554008A6003F010FC7B1E012B28D8012F06D1D2
:101564002E4BD3F81C3403F00303022B1FD004F0DA
:1015740001F90546E8B92A4B1B78D3B10222064685
:10158400264BC3F80823254CDFF89880D4F8182498
:10159400D4F81834D20316D503F00303022B01D078
:1015A400012F10D175B386F31188BFF36F8FBDE897
:1015B400F0814FF02003EFF3118683F31288BFF319
:1015C4006F8F0125DFE7C5B13046FFF701FCD4F882
:1015D4001835DBB2012BD9D1D4F80421002AD5D097
:1015E4000022C4F80421D4F804210222C4F81825E6
:1015F4002022C8F88021A360C8E70021212002F03E
:10160400F9FEE4E70222054BC3F80423CFE700BF49
:10161400B8030420A8030420D80304200050004089
:101624002D05042000E100E008B5074804F093F814
:1016340038B10648FFF7E2FD0448FEF749FF0020F1
:1016440008BD6FF01200FBE7245B0500551605008A
:101654000A2838B50446074D04D1AB680D21284645
:101664005B689847AB6803485B68E1B298472046DB
:1016740038BD00BF245B0500F0B5406801F01F04CD
:10168400057B87B044EA45140569002D63D0B2F5A3
:10169400001F00F1100506D12146284603F0AEFFD5
:1016A400002007B0F0BD0027B2F5800F01AE01970E
:1016B400776039D1B3F1007F14BF052304238DF87B
:1016C40004300023CDE904630393836823FA01F112
:1016D40011F001011AD1B2F1A07F17D104F01F0358
:1016E400620903F180032AD0012A3AD11E4A52F832
:1016F4002330DB070AD40DF103063246214628467F
:1017040001F0C6FD194B98421BD00296214628468B
:1017140003AA01F01DFC164B98421FD10122214659
:10172400284601F039FEBBE7B3F1C06F05D0B3F131
:10173400007F14BF01230223C1E70323BFE70D4A3F
:10174400D5E73146284601F01BFE094B9842DCD010
:101754006FF00B00A5E76FF08500A2E76FF01500AE
:101764009FE751F82330FFDE002884400400AD0BCE
:101774000000AD0B0025844038B545682B69B3B132
:101784001035284601F0E2FD044680B9014628469A
:1017940001F09CFD084B98420BD12246284607498C
:1017A40001F068FD224605212F20FFF787FA00206B
:1017B40038BD6FF00400FBE70000AD0BC517050052
:1017C4004209034670B502D0012A17D070BD0D4EF0
:1017D400326951680029F9D0012503F01F030C6810
:1017E4009D400029F2D08A682A4002D030464B68D6
:1017F40098472CB1236821461C46F2E7024EE7E7DE
:101804002346F8E7105B0500FC5A05002DE9F04378
:1018140040F206354668D00648BF0320337B02EA0F
:10182400050558BFC2F3401087B001F01F07B5F596
:10183400837F144647EA43178DF8030043D00FD83B
:10184400062D18D007D8B5B1022D3ED06FF0150083
:1018540007B0BDE8F083B5F5807FF7D101250AE034
:1018640040F20222954232D0B5F5407F31D0B5F531
:10187400007FEBD1022522032DD5012372688B4012
:101884009360326982BB07F01F037F092AD0012FBE
:1018940077D13E4A02EB830284F48033D2F80012FB
:1018A400C3F30043C4F3404444EA430421F47061A5
:1018B40044EA800421F00F0144EA05230B43C2F8F3
:1018C40000320020C4E70725D5E70425D3E7052522
:1018D400D1E70325CFE7630341BF012372688B403F
:1018E400D360CEE72A4AD5E71036394630460DF1A3
:1018F400020201F0CDFC14F4403F80460CD139467D
:10190400304603F079FE234B9845DAD130469DF8F2
:10191400021001F029FDD4E74FF0000901AB39466C
:10192400304603AACDE90439CDE90199CDF80C90EC
:1019340001F00EFB174B984288D114F4003315D0F4
:101944009DF8033084F48034C4F300448DF80E30E1
:1019540039464B46304603AA8DF80C508DF80D409D
:1019640001F0ECFB0B4B9842CDD06FE7CDE904338B
:1019740039460DF10303304603AA039301F0E8FA54
:10198400F0E7803352F82330FFDE00BF00288440A4
:10199400002584400000AD0B036803F01F025B09BF
:1019A400026004D0012B034818BF0020704702488E
:1019B400704700BF00288440002584402DE9F04F83
:1019C40015460646DFF87091DFF870A185B000EB8C
:1019D4008101B14203D1002005B0BDE8F08F336826
:1019E400C3F34322082A03F07F0400F29E807F2C75
:1019F4004FEA134308BF4FF0FF3419F80280222B3B
:101A040000F29680DFE803F012214B644E54649494
:101A140094949494949494949494949494946771D2
:101A240074779494947A808386898C00C5F80C45E5
:101A3400631C3BD0012703A80394FFF7ADFF039B6E
:101A4400BB4607FA03F3836006E0C5F81445621C3D
:101A54002CD000274FF0000B336803A803F4005286
:101A6400002A1CBF01274FF0000B01930394FFF7DA
:101A740093FF039A019B00EB8200D0F80022C3F38A
:101A8400C1144FEA082343EA840343EA0B0302EA3E
:101A94000A02134343EA4703C0F8003206E0C5F8DC
:101AA4000845C5E7631CC5F808453CD1043690E7F2
:101AB400671CC5F80C45F9D001274FF0010B03A8AA
:101AC4000394FFF769FF039B0BFA03F3C360C3E7B7
:101AD400C5F81045BBE7C5F86045601C3368E5D020
:101AE400C3F38033002BE7D0A4E7C5F86445F4E7DB
:101AF400C5F86845F1E7C5F86C45EEE7C5F8244537
:101B0400621CD3D00127A5E7C5F8284590E7C5F89E
:101B14003045F5E7C5F83445F2E7C5F83845EFE751
:101B2400C5F83C4584E70027C7E76FF0150053E785
:101B34006FF0850050E700BF16600500F0F0FCFF71
:101B44002DE9F74306464FF0000800220121082042
:101B5400FFF7B4F80820FFF781F8776835693C6827
:101B64004146C4F800852E60D7F80C9001AA484677
:101B740003F0ADFA00283FDB019BD9F80020197966
:101B84001868FFF71BFF002836DB6B7AD6F810C005
:101B9400012B03D0032B2DD14FF01008AB7A032B6C
:101BA40028D195F80BE0BEF1000F02D0BEF1010F71
:101BB40020D12A7A012A22D0022A24D0D2B910466E
:101BC4006B687168B3F5164F096800F0BA803AD8AB
:101BD400B3F5165F00F0B88020D8B3F5966F00F027
:101BE400B58012D8B3F5967F00F0B380B3F5167FB5
:101BF40000F0B2806FF0850003B0BDE8F0834FF4CD
:101C040080700E22DCE70020FBE7B3F5166F00F0CE
:101C1400A680B3F5965FEDD15D4B43E0B3F5E14F9C
:101C240000F0A08008D8B3F5615F00F09D80B3F5A3
:101C3400964FDFD1574B35E047F612294B45D9D1A2
:101C44004FF400032EE0B3F5613F00F08F8015D808
:101C5400B3F5963F00F08D800AD84DF6C0294B4568
:101C640000F08980B3F5614FC4D14FF46B0319E0E0
:101C7400B3F5E13FBED14FF0EB7313E0B3F5612F41
:101C84007CD009D8DFF810914B457AD0B3F5E12F19
:101C9400B0D14FF0E86305E0DFF800914B45A9D1DE
:101CA4004FF08053C1F82435736840EA0E001B6876
:101CB40042EA08021043C3F86C050CF10403D5E9A9
:101CC400010183E803007B68990712D505F1180028
:101CD40000F03EFF324B984256D1287E04F10C02AC
:101CE40004F5907103F0CFFB01202B7E984000F0A7
:101CF40093FD0823C4F800353B7A53B9C4F8103176
:101D0400D4F810316B69C4F834350123C4F838357C
:101D140023607B6800209A075CBF4FF48073C4F88B
:101D240004337B68DB0644BF4FF48003C4F80433F8
:101D34002B69C4F844350123C4F84805A360E36063
:101D44005AE74FF41D03ADE7164BABE74FF49E2360
:101D5400A8E74FF4A033A5E74FF41C33A2E74FF4F0
:101D64001D239FE7104B9DE7104B9BE74FF06C73CF
:101D740098E70F4B96E74FF4650393E74FF07063D2
:101D840090E74FF080638DE76FF0040034E700BF05
:101D940000B0130000A04E0090D0030040420F009A
:101DA4000000AD0B0050270000C0750000F03A00A1
:101DB40000903A01F8B504460D46076903F0DAFCD1
:101DC400B0B92E4B1B789BB16426606803F0ADF963
:101DD40000BB012003F04BFB013EF6D10021212082
:101DE40002F008FBF0E786F31188BFF36F8FF5E785
:101DF4004FF02003EFF3118683F31288BFF36F8F44
:101E04006068314603F091F990B986F31188BFF305
:101E14006F8FEDE74FF02003EFF3118683F3128801
:101E2400BFF36F8F6068314603F07FF90028DAD082
:101E34003B691D70626838691368C3F84405012062
:101E4400C3F848050020C3F82001D3F82051C3F893
:101E540058015268D3F85801D20608D508206268A0
:101E64001268C2F800054FF48002C3F8042301226B
:101E74009A6081F31188BFF36F8FF8BD2D0504209C
:101E84002DE9FF4105690746D0F80480A86C2B6D45
:101E940000283AD16BB3B8F838406A6C9C4228BF2A
:101EA4001C46EE6CEB6C53B1296D41B106F06041F8
:101EB400B1F1005F03D0082C28BF08246E6E009295
:101EC4006A6CAC651AB1AA6C002A18BF2246CDE927
:101ED40001261BB12B6D002B18BF23460022694637
:101EE4004046039301F028FD184B98420AD06FF046
:101EF40004033C69236304F1200001F077FF00230D
:101F040084F85C3004B0BDE8F081696CEE6C0A467C
:101F1400B8F83840ABB1834228BF03469C4228BF7F
:101F24001C460029BED001F06043B3F1005FB9D074
:101F3400082C28BF0824286E224603F025FD2A6EAB
:101F4400B0E7844228BF0446EBE700BF0000AD0BB6
:101F54002DE9F04F8FB0019343680F4602938B88AD
:101F6400804699049246046900F13F814FF0FF32A4
:101F74004FF0FF3304F1100001F05CFF6760D8F804
:101F84001090D8F804B099F85D30DBF808C023B19C
:101F9400D9F800309F4200F09180B7F804E01EF4B5
:101FA400006F40F057811EF0090F40F05081CEF3CE
:101FB4004513082B40F04B813B680393039AB34BC2
:101FC4009A4240F24481B24B9C4506D9B14AD2F8B8
:101FD400582512F0030F18BF9C4604AD0BF10C06F4
:101FE4000FCE0FC50FCE0FC5039B96E803006345C4
:101FF40028BF63469C46A84B85E803009C451BD23A
:10200400A34B9C4518D2A54B9C4515D2A44B9C458B
:1020140000F2F480A34B9C4500F2F280A24B9C4555
:1020240000F2F080A14B9C4500F2EE80A049A14B48
:10203400A14A8C4588BF13461EF0020F09930EF087
:10204400040300F0E380002B14BF032302238DF864
:102054002830CEF300138DF82930DBF800301EF061
:10206400020FD3F80835CEF340014FEA531203F0C0
:102074001F0340F0D180002A00F0CC80012A40F0F8
:1020840034818E49012202FA03F3CB6099F85D3062
:102094002BB1584601F008FC002389F85D304B460B
:1020A4005846874A04A901F0CBFB864B984240F07E
:1020B400BE800123C9F8007089F85D30012384F8DB
:1020C4005C30029B196C4A1C03D003F1440003F0FA
:1020D40090F9BAF1000F40F0C080C4F834A0002396
:1020E400A36304F1480204F1380104F1340003F05D
:1020F4006FF8019B6064002B40F0B880E363002319
:10210400236404F1500204F1400104F13C0003F0A3
:102114005FF80023E0642068236348B183683BB11F
:102124000121083003F067F82368186903F00EFBF7
:102134004046FFF7A5FE00221346A06B834240F001
:102144009E8000231946256CA94240F0C780934223
:1021540038BF134626464FF4FA52002702FB03F514
:1021640056F8203B4FF4004C1B683946B5FBF3F599
:1021740040F2E730C8354FF47A720023E5FB0C01D6
:10218400FDF7E6FF02460B46304601F053FE18B950
:10219400256B15F1740F15D10298A76501F084FB26
:1021A40084F85D70D8F810506FF07308C5F830806B
:1021B40005F1200001F01AFE85F85C70304601F04C
:1021C40061FE45462368002B33D09A68002A30D03C
:1021D400998811F480562CD1186903F0B7FA206855
:1021E4003146083003F007F823E0A369002B7FF49D
:1021F400BDAE63689F427FF4B9AEC0E6324B1BE7C5
:10220400324B19E7324B17E7324B15E7003B18BF47
:1022140001231CE7304935E73AB1012A67D1274940
:10222400012202FA03F38B6030E72B49F8E76FF0E1
:10223400040523689B8813F4005304D1636004F1FC
:10224400100001F0D3FD28460FB0BDE8F08F6FF009
:102254001505EEE76FF08505EBE7DAF80030636308
:10226400002B3FF43CAFDAF8043039E7019B1B68DC
:10227400E363002B3FF443AF019B5B6840E7616B72
:1022840001EBC301496801330A4457E747E80100F9
:102294000024F400005000400048E80100127A00D5
:1022A400FF083D007F841E003F420F001FA107006E
:1022B4008FD0030048E8010090D003000028844038
:1022C4003D5305000000AD0B00093D0080841E0055
:1022D40040420F0020A1070000258440E06B00EB82
:1022E400C1004068013103442EE7C960FFDE0023CA
:1022F4009B60FBE700F01F0240090DD001280DD1BF
:10230400094B03EB8203D3F80002084A024042EA75
:102314008102C3F800227047054BF2E700238032A4
:1023240053F82230FFDE00BF00288440F0F0FCFFA9
:10233400002584400123F0B587B08DF802300223D4
:1023440000248DF804306B4403930F4601AB0DF168
:102354000301049305460291059401F011F80C4B16
:10236400064698420FD13946284603AA00F0F0FDEC
:10237400B0420BD028469DF8031000F0F5FF6FF033
:10238400040007B0F0BD6FF01200FAE72046F8E74A
:102394000000AD0B0123834070B5DC430B4AD2E847
:1023A400EF1F01EA0405C2E8E65F002EF7D14FF4FF
:1023B400803282400648C0F80823BFF35F8FBFF322
:1023C4006F8F0B4214BF0120002070BD7C040420D9
:1023D4000050014070B40E4922F07F46D1E9003428
:1023E400D01AC31844F10004C1E90034A6F500135F
:1023F400B3F5400F09D2074B1B681A0A1B069C1938
:10240400054B42F10005C3E9004570BC02F0E8B891
:10241400380204208004042040020420D9B101239E
:102424000D4A8340D2E8EFCF4CEA030CC2E8E1CF77
:102434000029F7D14FF48033084A8340C2F80433AB
:10244400074BD3E8AF3FC340DB0742BF4FF4001252
:10245400044BC3F8002170477C0404200050014061
:102464007804042000E100E00D4B1868010A00061E
:10247400BFF35F8F0B4BD3F80435181841F10001FB
:10248400B3F5801F0AD2084BD3E90023904271EBC5
:10249400030303D210F1807041F10001704700BFC3
:1024A4008004042000500140400204202DE9F04F34
:1024B40085B016461F4604469DF840A0FFF76AFF04
:1024C4000190FFF7D1FFB04271EB070352D23B4BAF
:1024D400301A67EB0101984271F100014DD2384B7B
:1024E40003EB0413D3E902239F4208BF964258D05A
:1024F4004FF48038334908FA04F8204626F07F4B1D
:10250400C1F8488302F09DFF4FF00309584604F1D7
:102514005005AD00ADB205F1804504F5A87305F58D
:10252400A8350293029A20F07F4341F82230C1F883
:102534004483D1F80435244AC01A033820F07F407C
:1025440090422ED9286868B1D1F80435A3EB0B006A
:1025540020F07F40B0F5000F039322D9204602F00B
:1025640070FF039BBAF1000F07D109EB030009F1D7
:102574000109D7E7BAF1000F09D06FF0150520461D
:102584000199FFF74BFF284605B0BDE8F08F012302
:102594000E4AA340D2E8EF0F1843C2E8E10F002926
:1025A400F8D107490E982301C8500F9B01EB041280
:1025B4000025C2E902675360E1E700BF0100800023
:1025C4002802042000500140FDFF7F00780404200D
:1025D4007FB500254FF0FF304FF0FF31194C1A4BF7
:1025E4000226C4F80833C4F84833184BC4F8085515
:1025F400C3E902014FF480334FF40012C4F80433EA
:10260400134B0121C4F804631520C3F880212A4622
:10261400FEF754FB1520FEF721FB01230D4AA360AE
:10262400236013600C4B0D4A009328460023CDE928
:102634000155FFF73BFF3046FEF77AFF284604B00A
:1026440070BD00BF0050014003000F0028020420A9
:1026540000E100E07C040420D9230500FFFF7F0093
:102664002DE9F7432E4BD3F8042390070BD5D3F869
:10267400042142B10022C3F804212A4AD3F80431C8
:10268400136801331360264AD2F80433D90327D5DB
:10269400254BD3E8EF1F21F00100C3E8E40F002C21
:1026A400F7D1CB0702D4D2F84031CBB100251C4C72
:1026B400C4F84051D4F84031FFF7D6FE4FF0200360
:1026C400EFF3118283F31288BFF36F8F174BD3E9B3
:1026D4000267B042B94106D282F31188BFF36F8F0B
:1026E40003B0BDE8F0834FF0FF38D3E900104FF09A
:1026F400FF391D60C3E902894FF48033C4F84833BD
:10270400C4F84051D4F8403182F31188BFF36F8F7D
:102714000029E5D0009032463B4628468847DFE74B
:10272400005001408004042078040420280204207E
:1027340030B5431C124C85B005D08442A8BF044672
:10274400012CB8BF0124FFF78FFE0E4B0C4DD3E9CB
:102754000013401AB0F5000F0FD22218AA4228BF66
:102764002A46002052180849CDE90100009143F19E
:102774000003FFF79BFE05B030BD2A46F1E700BF1A
:10278400FFFF7F0038020420D923050008B5FFF7B6
:102794006BFE024B1B68C01A08BD00BF3802042040
:1027A40030B50468ACB1B4FA84F30122C3F11F0359
:1027B400DBB29A4024EA0202D0E8EF5FA54204D1DA
:1027C400C0E8EC2FBCF1000FF6D1EAD102480B703F
:1027D40030BD0248FCE700BF0000AD0B0200AD0BAA
:1027E40010B50368CB40DB0710D401238B4002688B
:1027F40043EA0201D0E8EF4F944204D1C0E8EC1F51
:10280400BCF1000FF6D1F2D1014810BD0148FCE73C
:102814000000AD0B0400AD0B014BC3F80405704779
:102824000070014073B5032858D8DFE800F00217A0
:1028340024310222504BC3F808230122DA6000221B
:10284400C3F80421D3F80431002401238DF80730A0
:10285400032843D8DFE800F02944607C0122464B7A
:102864000DF10704C3F808235A600022C3F80021BD
:10287400D3F80031E9E74FF400723F4BC3F8082363
:1028840001225A620022C3F82421D3F82431DBE761
:102894004FF48072384BC3F808230122DA61002216
:1028A400C3F82021D3F82031CEE742F21075324E1E
:1028B400D6F8183403F4803334B97BB1012002F024
:1028C400D6FD013DF4D109E0D6F8182402F0030244
:1028D40022701BB19DF807000128F0D002B070BD32
:1028E40042F21075244ED6F80C3403F480333CB90C
:1028F400002BF3D0012002F0BAFD013DF3D1EDE746
:10290400D6F80C2402F001022270002BE6D09DF8C8
:1029140007000128EFD0E1E742F21075164ED6F811
:102924005C3403F480333CB9002BD7D0012002F08F
:102934009EFD013DF3D1D1E7D6F85C2402F00102FB
:102944002270002BCAD09DF807000128EFD0C5E7FC
:1029540042F21075084ED6F85434DB03BED52CB9B8
:10296400012002F084FD013DF5D1B7E79DF8070091
:102974000128F6D0B2E700BF00500040044B1A799A
:1029840022B9012218601A71024870470248704740
:10299400840404200000AD0B0C00AD0B08B5094BFA
:1029A4001B6833B10520FEF77BF910B90520FEF74B
:1029B40055F90122044BC3F81825C3F81425C3F8AC
:1029C400802508BD840404200050004010B503286D
:1029D40046D8DFE800F01B02565000224FF4807303
:1029E4000121002003F1804303F5A04318601C6813
:1029F400012402F1804202F5A0421460274A1268C1
:102A0400002A44D0264BC3F8041329E0244BD3F8FE
:102A14001814D3F81824C90311D502F00303022BA8
:102A240005D0012B02D00020FFF7FCFE01231C4A35
:102A34000221C2F8183508224FF48273D1E7D3F883
:102A44001424D207F2D5D3F81C2402F00302013A6D
:102A5400012AE8D8114A12681AB10222C3F80423E1
:102A640010BDD3F80421002AFBD00022C3F80421AE
:102A7400D3F80431F4E718224FF490734FF48071C3
:102A8400AFE720224FF492734FF40071A9E71A685C
:102A9400002AFCD018601B68E2E700BF840404200D
:102AA4000050004010B5284BD3F8002152B100204B
:102AB400C3F80001D3F800210122C3F80823234BF3
:102AC4001B689847204BD3F8042182B10022C3F835
:102AD4000421D3F80421D3F81824D3F818240221AC
:102AE40002F00302012A26D1C3F818159A60164B86
:102AF400D3F8202162B10022C3F82021D3F8202189
:102B04004FF48072C3F80823104B05201B689847C4
:102B14000D4BD3F82421AAB10022C3F82421D3F801
:102B240024214FF40072C3F80823084B0620BDE8A3
:102B340010401B681847C3F80813044B01201B6896
:102B44009847D4E710BD00BF00500040840404201F
:102B540001460148FFF724BE04010420036803F082
:102B64001F025B09026004D0012B034818BF002038
:102B740070470248704700BF002884400025844005
:102B8400034A4309D35C00F01F001844C0B27047E5
:102B94003B60050070B505460846FFF7F1FF42218A
:102BA4002A79174B01FB0202083233F81200C105DF
:102BB40025D584240026C0F3432120F4F85023F8BB
:102BC40012002A7904FB02340E3434F8020F10F494
:102BD400807F03D0C0F34320814210D00136302ED1
:102BE400F3D184200024424302EBC1029C502A7991
:102BF400BDE8704000FB02307830FFF7F1BD70BDD6
:102C040008010420034611F0010010B5CCB20BD129
:102C1400A207C4F340000DD5074A106A5860106239
:102C2400003818BF012005E004490A6A1A600A62E4
:102C3400002AEDD010BD00BF002884400025844048
:102C440010B504460846FFF79BFF422303FB04002C
:102C5400024B083033F81000400B10BD080104206B
:102C640010B504460846FFF78BFF422303FB04001C
:102C7400034B083033F81000C0F3400010BD00BF10
:102C84000801042010B504460846FFF779FF4223E3
:102C940003FB0400034B083033F81000C0F340106A
:102CA40010BD00BF08010420F0B505460020012630
:102CB400044607468C420BD1114BD3F87C2132B128
:102CC4000022C3F87C21D3F87C3140F00040F0BDF1
:102CD400E3B29B0003F580729B0806FA03F31D42DE
:102CE4000BD002F1804202F53C32D2F800C0BCF1B4
:102CF400000F02D01760126818430134DAE700BFEE
:102D040000F002402DE9F04F0546644B296FD3F8DB
:102D1400040387B0C0B240F00040FFF7C5FF061EB1
:102D24002CDA0023E96F04A8CDE90433FFF76AFF26
:102D3400DFF86CA1DFF86CB10DF110091AF8013B52
:102D440005EBD30292F87C2003F0070322FA03F385
:102D5400DA0769D4544B09F1040953450BF1010B0B
:102D6400ECD1296F4FF00040FFF79EFFE96F04A8F4
:102D7400FFF748FF0028DBD126F000460124002E8F
:102D840073D107B0BDE8F08F91FAA1F1B1FA81F1E6
:102D94009BF8004041EA44142046FFF7F1FE083056
:102DA40035F81080C8084FEA98030193012319F8F5
:102DB400002001F0070103FA01F122EA010209F8F7
:102DC400002003A80394FFF7C9FE039A019B8032F5
:102DD40050F82220C8F382075B07B846C2F30142C9
:102DE40027D52846D7B22146424602F0AFFB03A8B6
:102DF4000394FFF7B3FE039B803350F82330C3F3EF
:102E040001439F4207D10021204602F090FB39463E
:102E1400204602F08CFB03A80394FFF79FFE0122D7
:102E2400039B02FA03F30362D9F800100029ABD123
:102E340090E7022A0DD10321204602F078FB07F027
:102E44000503012BE7D142462146284602F07EFBCA
:102E5400E1E702212046019202F069FB032FF2D040
:102E6400019A032AD7D1022FECE796FAA6F3B3FA14
:102E740083F304FA03F29B0003F1804303F53C332C
:102E8400D3F8101526EA0206D3F810252846C2F313
:102E94000142C1F3052102F059FB70E700F0024042
:102EA4004B6005004B6005004D6005002DE9F743BC
:102EB40005460846FFF764FE42222B79204F02FBA9
:102EC4000303083337F813300E46DB07044635D5C1
:102ED400284602F06CFB95F8049031464846FFF70B
:102EE400D1FE60B14846FFF7ABFE0022D5F8008062
:102EF40000B208EB8003C3F81025C3F81025284658
:102F04003146FFF747FE42222B7901A802FB034416
:102F14000023083427F814300196FFF71FFE019BA5
:102F240000EB8300D0F80022064B134043F0020369
:102F3400C0F80032044803B0BDE8F0830348FAE760
:102F440008010420F0F0FCFF0000AD0B0400AD0B01
:102F54002DE9FF47174604460846FFF711FE3E6871
:102F64008846054676B394F804904846FFF778FE01
:102F740018B14846FFF786FEA0BB00234046CDE9C2
:102F840000338DF80E308DF80F300DF10F023346FB
:102F94000DF10E0102F082FA42202379644A00FB0B
:102FA4000353083332F8131021F0020122F81310EE
:102FB400237900FB0353083332F8131041F0010165
:102FC40022F813107B68002B45D026794146304601
:102FD40093F80090D3F804A0FFF742FE20B1BAF1B1
:102FE400000F22D0534839E04FF0420C0CFB065638
:102FF4004F49083631F8163023F4604323F0200398
:1030040021F81630BAF1000F0FD0B9F1030FE9D847
:103014007B6826685B68187806EB8006B9F1000FB8
:103024001FD1C6F81095C6F8109542202379404A5E
:1030340000FB0353083332F8131021F01C0122F86B
:103044001310237900FB0353083332F8131041EAB9
:10305400890122F81310BB6863BB374804B0BDE88C
:10306400F087D6F8102522F00302C6F8102522684E
:1030740002EB8003D3F8102522F44F3222F440727D
:10308400C3F810254FEA0822D3F8106502F47C52E5
:1030940042EA09423243C3F8102523790CFB035357
:1030A400083331F8132042EA403242F0200221F87A
:1030B4001320BAE74146D3E900972046FFF76AFD9B
:1030C400B9F1000FC9D084232079194E4343F21873
:1030D400F358994504D153689F4201D100210CE073
:1030E400842303FB00600DF10F017830FFF758FBD8
:1030F400114B9842B2D19DF80F1084222379534387
:1031040003EBC10346F8039023795343422203EBB4
:10311400C10333445F60237902FB0353083336F859
:10312400132042EA412242F4807226F8132094E7E5
:10313400080104200400AD0B0000AD0B2DE9FF478E
:103144000646084690461F46FFF71AFD0C460546FC
:10315400B8F1000F33D096F804904846FFF780FD8D
:1031640018B94846FFF78EFD80BB422303FB09597B
:10317400DFF8F4A009F108093AF8193013F01C0F2C
:1031840003D098F80130012B20D001238DF80F30A3
:10319400002308F10102CDE90083204608F102036F
:1031A4000DF10F0102F07AF94222337902FB035345
:1031B40008333AF8132042F003022AF81320002FB0
:1031C40050D021463079FFF74BFD18B9274804B099
:1031D400BDE8F08700214FF0420E38783368820052
:1031E40003EB8003C3F81015C3F8101533791E4997
:1031F4000EFB0353083331F813C02CF4604C2CF04D
:10320400200C21F813C097F801C0BCF1000F29D09D
:103214003368BF781A44D2F810354FEA0C4C23F4C3
:10322400991323F4F853C2F81035230203F47C53A2
:103234000CF4403C3F05D2F8108543EA0C0307F434
:1032440080173B4343EA0803C2F8103533790EFB79
:103254000355083531F8153043EA403343F0200371
:1032640021F815300248B2E7080104200400AD0B30
:103274000000AD0B30B584250479044B05FB043400
:10328400A160017905FB0133DA6030BD0801042037
:1032940070B5067914463046FFF7F4FC68B1084669
:1032A400FFF76EFC422303FB0600054B083033F89E
:1032B400103004485B0B237070BD0348FCE700BF6B
:1032C400080104200000AD0B0400AD0B2DE9F04112
:1032D4000646077984201A4D00FB075898F8804069
:1032E40064BB404621466022103002F05AFB21465E
:1032F4003668D8F87000884216D1002346F30730A8
:10330400C6F87C31D6F87C31FDF7A8FC4FF00043B9
:10331400C6F80433842303FB07550123094885F8C1
:103324008030AB67BDE8F081CBB29B0003F58072BF
:103334007C2B04BFB450B3580131DCE70248F1E7F9
:10334400080104200000AD0B0C00AD0B84210279B0
:10335400044B01FB023393F88000003818BF0120AE
:10336400704700BF0801042084237422007913FBF2
:10337400002302481844FFF733BA00BF08010420B1
:1033840084237422007913FB002302481844FFF7B6
:1033940007BA00BF080104202DE9F3410679044669
:1033A40030460D461746FFF76DFC08B33046FFF76D
:1033B40057FC8046E0B93046FFF742FC05B221686D
:1033C400AD0005F5807241F802808A5821682944CD
:1033D400D1F8102542F00102C1F810252FB10122C5
:1033E400216802FA00F3C1F8043302B0BDE8F081A9
:1033F4002846FFF7C5FB422303FB06000E4B0830AB
:1034040033F81030C3F38203042B11D0052B11D0F1
:1034140001A80195FFF7A2FB019B0169D94001F0C6
:1034240001010231284602B0BDE8F04102F07FB844
:103434000321F7E70221F5E7080104200148FFF71B
:1034440061BC00BF8C010420036803F01F025B0908
:10345400026004D0012B034818BF002070470248C3
:10346400704700BF00288440002584404B69304ADF
:1034740093424BD00DD82F4A934247D007D82E4AB7
:10348400934243D02D4A934240D02D4870472D4A51
:10349400F9E72D4A934208D004D82C4A934235D0F8
:1034A4002B4AF0E72B4A9342EFD10279002A3CD011
:1034B40091F823201AB191F82420002A33D100680E
:1034C400254A90422FD1234A93422CD10B685A1C8F
:1034D40001D0082BD9D14B68581C01D0092BD4D169
:1034E4008B685A1C01D00A2BCFD191F8213023B11B
:1034F400CB68581C01D00B2BC7D1CB6917485A1C79
:1035040015D00F4A0C2B18BF1046704791F8212094
:1035140012B1CA680132C8D1CA690132C5D191F861
:103524002320002AC7D10D4870470D4870477047C3
:1035340080841E0020A1070048E8010090D0030009
:103544000400AD0B40420F000024F40000093D00CC
:1035540000127A000048E80100A000400000AD0B12
:103564000300AD0B73B51646421C1C460546069B6C
:1035740018D0012902D1BBB102F097F801A8019536
:10358400FFF762FF019B240200EB8300D0F80022C6
:10359400074B44EA86040C4313401C4344EA4101AC
:1035A400C0F8001202B070BD02F08BF8E6E700BF6D
:1035B400F0F0FCFF2DE9F04F8C4B4D6906469D421F
:1035C4000C4690F8049087B000F0E88000F2D880B0
:1035D400874B9D4200F0E58000F2CA80854B9D42F6
:1035E40000F0E280844B9D420CBF4FF080654FF0A9
:1035F40080452422814F94F8230002FB0973997FAC
:1036040060F3000199773379217C02FB0373D97746
:1036140094F82380B8F1000F34D16269784B01210A
:103624009A420CBF4FF0030A4FF0000A237E424631
:10363400012B94BF00230123009320685346FFF716
:1036440091FFCDF800805346424601216068FFF7A0
:1036540089FFCDF8008053464146A27EA068FFF75B
:1036640081FF237C424683F00103009301215346EA
:10367400E068FFF777FF0121009153464246E06975
:10368400FFF770FF317994F82130002900F095801C
:10369400002B00F0928024224FF0FF3002FB0972CD
:1036A4001062627E94F8210094F8129094F818E065
:1036B400D4F81CC00492002800F08980E06894F8D3
:1036C400108094F822B094F820A0CDF8148029B189
:1036D400002B7FD11CF1010118BF012194F8248033
:1036E4003368B8F1000F0CD1226802926268A468B2
:1036F4000392029AC3F80825039AC3F80C25C3F869
:103704001045049AC3F8C095003A18BF0122BEF1CF
:10371400020FC3F824555FD0BEF1030F5FD0BEF192
:10372400010F01D142F00202C3F8542591B1B8F15E
:10373400000F0DD1BCF1FF3F18BFC3F86CC5421C8C
:103744001FBF059AC3F81405C3F86825C3F864B508
:10375400C3F860A5242233795343FB58002B41D08E
:10376400306840F3073007B0BDE8F04FFDF776BA94
:10377400244B9D420CBF4FF080554FF0804538E7F5
:10378400214B9D4213D01E4B9D4213D01F4B9D4293
:103794000CBF4FF000454FF080452AE74FF000552D
:1037A40027E74FF0006524E74FF0007521E74FF05D
:1037B40020651EE74FF0A0551BE7242000FB097984
:1037C400E268C9F82020227C89F81F2069E74FF0BD
:1037D400FF3074E7012181E742F00402A4E742F0DC
:1037E4000602A1E707B0BDE8F08F00BF80841E0089
:1037F40020A1070048E8010090D003008C040420B5
:103804000048E80140420F000024F40000127A004E
:10381400431C07B50ED0019001A8FFF715FE019BCC
:1038240000EB8300D0F80022044B134043F0020362
:10383400C0F8003203B05DF804FB00BFF0F0FCFFF9
:103844002DE9F047242590F80490144C05FB09F564
:1038540004EB050A1F469AF81C3006469046D3B975
:1038640061B96251CAF80470242303FB094400239C
:10387400637701230A482377BDE8F087FFF7F6FD55
:10388400074B9842F8D1304644F80580CAF80470D2
:10389400FFF790FEE8E70348EEE700BF8C0404203E
:1038A4000000AD0B0C00AD0B2DE9F0410446067988
:1038B40000681F4D40F30730FDF7DEF924237343FE
:1038C400EB5853B123681B4A06EBC601C3F808231F
:1038D400206805EB810101F000FF242101FB065162
:1038E4002368D3F80805D3F80C75D3F810858B7FBB
:1038F400DB0716D4FFF78CFF4046FFF789FF3846F5
:10390400FFF786FF086AFFF783FF23794BB123682B
:10391400D3F86C05D3F81415FFF77AFF0846FFF7C0
:1039240077FF242303FB065500232B77BDE8F081A2
:103934008C0404205201080024232DE9F043077964
:10394400524D7B439046EA180E46517F814685B01E
:10395400002940F09880EB5823B118F0140F04BFED
:1039640001235377242496E80F0004FB075404F141
:103974000C0C8CE80F00206A431C03D0E37FD3B106
:1039840001F093FE3368D9F8004023B103F060439B
:10399400B3F1005F06D1B36883B103F06043B3F1C0
:1039A400005F0BD02423002203FB075338485A77C7
:1039B40005B0BDE8F08301F084FEE3E718F00103ED
:1039C40018BF0123C4F8503518F0020318BF0123AF
:1039D400EC46C4F8403596E80F008CE80F00039BD2
:1039E400C4F84405C4F84815C4F83425C4F8383577
:1039F4000023C4F81831D4F818310723C4F800356B
:103A040024237B4318F0080F05EB03021DD1012189
:103A1400E858216158B9D4F81831002BFBD062461C
:103A24004021204601F003FE24237B43EA18EB588F
:103A340003BB106A411C12D107EBC707204605EBF4
:103A4400870101F04AFE1348B2E7EB5893B9106AB4
:103A5400431CF8D0D37F53B101F033FEF3E7D37F97
:103A640013B101F02EFEE7E701F01FFEE4E701F0D9
:103A74001CFEE8E7402318F0040F14BFC4F8083311
:103A8400C4F80433DFE7044892E700BF8C04042041
:103A94000A00AD0B0000AD0B0B00AD0B0149024851
:103AA40001F031BE8C04042000C0004001490248EA
:103AB40001F029BEB004042000A0004038B54FF046
:103AC4002003EFF3118583F31288BFF36F8F064B46
:103AD4009C6801F0C6FC85F31188BFF36F8F204604
:103AE400BDE83840FDF748B8D8040420104B70B541
:103AF40053F82040013053F82060A64200D870BD2E
:103B0400D4E9003595B153B12846984738B1002817
:103B1400B8BF4042FF28A8BFFF20EB681870EA68CE
:103B2400537843F0010353700834E6E79847FBE702
:103B3400C85F0500012208B5094B03201A70FFF77E
:103B4400D5FF00F0D1FD0420FFF7D0FF00F002F90B
:103B540001F02BF8034A137B23F00103137308BD10
:103B64002D050420C802042008B50348034A002197
:103B7400121A01F0FBFD08BD2802042030050420C0
:103B84000023012270B586B0CDE904230F220193EE
:103B9400CDE9023214234FF4A0720446114D124EA3
:103BA40003FB0055114906EBC01602FB0011104B34
:103BB4003046009500F090F8737B2C7423F00403D6
:103BC40073730C4B013403EBC4236B600A4BEE603C
:103BD400D3E8EF1F0131C3E8E21F002AF8D106B091
:103BE40070BD00BFD804042048020420300D042016
:103BF4008557050030050420D404042080B5002036
:103C0400A6B0FFF773FF2D4B03F5006282F308881B
:103C140083F30A880024E023294D2A4E85F82230B4
:103C2400EC772C766C76AC7685F820406B6A264F60
:103C340043F4E0236B6285F82340FCF70DFFFDF7A6
:103C4400A5F84FF0FF33AB62EB62FDF753FAFDF7D3
:103C5400F9F840F20113ADF8243006ABB360CDE9B6
:103C64001E44219401F076FD0120FFF73FFF02205E
:103C7400164DFFF73BFF00F033FB154B75610593C1
:103C8400012314494FF48062CDE9034328463B469F
:103C9400CDE90144009400F01FF806466A7B2846EB
:103CA40022F004026A7301F0B1FD2046FFF768FFB9
:103CB4003A4631462846FDF74FF800BF3005042048
:103CC40000ED00E0D8040420393B0500C8020420BC
:103CD4004D600500700E04202DE9F043984685B030
:103CE40000F15803C0E91633109B00260373042324
:103CF400073222F0070543730F9B01EB05090F46BA
:103D040083734946C0E906668660C6730446FCF7B9
:103D14002FFD0E9B073020F00700A066C4E918753C
:103D240002930D9BA9EB000901930C9B4A46009357
:103D3400394643462046FCF7F3FF054B66659B680E
:103D440003B1DB6E4846E36605B0BDE8F08300BF0F
:103D5400D804042070B5224C224D86B02646AE42CB
:103D640004F130040AD300F08BFA1D4C1E4EAC4211
:103D740020D306B0BDE8704000F096BA54F80C3C6D
:103D8400059354F8103C049354F8143C039354F8EA
:103D9400183C029354F81C3C019354F8203C0093C3
:103DA40054E90A2354E90C01FFF796FF54F8303C18
:103DB4005E65D3E7D4E90A23B3F1FF3F08BFB2F14C
:103DC400FF3F05D052EA0301206803D100F03AFA1C
:103DD4003034CCE73146183000F08CFBF8E700BFF4
:103DE400885D0500885D0500AB58050038B50446BC
:103DF4004FF02003EFF3118583F31288BFF36F8F25
:103E040001F055FD48B10022826701F0FFFC29460C
:103E1400BDE83840064800F003BAD4E902329A42B9
:103E240018BF0133A36085F31188BFF36F8F38BDCA
:103E34002E05042013B54FF02004EFF3118184F311
:103E44001288BFF36F8F846844B1013C846081F3AE
:103E54001188BFF36F8F002002B010BD52EA030433
:103E640006D181F31188BFF36F8F6FF00F00F3E772
:103E7400CDE900230246024800F0B4F9ECE700BFA4
:103E84002E05042070B504464FF02003EFF311858E
:103E940083F31288BFF36F8F6FF00A06204601F098
:103EA40006FD18B1866701F0B1FCF7E7A06029466A
:103EB400BDE87040014800F0B3B900BF2E050420EE
:103EC400C3897F2B12D80A4B1B6863B1094B90F945
:103ED4000E201B689A4209DB437BDB0606D1064BA6
:103EE400C31A18BF012303F0010070470023FAE747
:103EF40000050420FC040420480204200122044B91
:103F0400C01A044BC0105843034B1A54704700BFE7
:103F140048030420ABAAAAAA2E05042070B50E4BB0
:103F24000E4C1E7C054606EB460304EBC3042046F8
:103F340001F010FD00220A4B28469A55FFF7C0FFF6
:103F440048B1084B2046BDE870401A680649013A5A
:103F5400D31700F0CFBA70BDD8040420480304205E
:103F64002E05042000050420013F050038B50D4D41
:103F74002B4653F8184F9C4200D004B9EC68AB6848
:103F840038B95A7BD20604D1A26912B9DA897F2AD8
:103F940005D89C4202D02046FFF7C0FF23466B6140
:103FA40038BD00BFD804042070B590F90D20014637
:103FB400002A437B04DA03F07F03437301F0ECFB34
:103FC400154A4B7B104663F07F034B7350F8183F40
:103FD400D469834208BF002323B9C1E900042160E6
:103FE400D1610CE091F90E5093F90E60B5420ED0F8
:103FF400AE420CDD5868C1E9003001605960906838
:10400400BDE87040431A58425841FFF7AFBF9C4285
:10401400E3D01B68E0E700BFD804042070B490F933
:104024000D30427B002B29DBD30627D183692BBBC0
:10403400134962F07F0242730A4652F8184F9442C1
:1040440018BF2346CC6923B9C0E900242060C861A5
:104054000CE090F90E5093F90E60B5420AD0AE42CE
:1040640008DD5A68C0E9003210605860002070BC56
:10407400FFF77CBFA342E7D01B68E4E770BC70473E
:10408400D804042008B590F90D200146002A437B8A
:1040940004DA03F07F03437301F07EFB044B98685A
:1040A400431A58425841BDE80840FFF75FBF00BFBC
:1040B400D804042070B515461C46064601F07EFB64
:1040C400B4F1FF3F08BFB5F1FF3F08D02A462346AD
:1040D40006F118000249BDE8704000F00BBA70BD4B
:1040E400AB580500002A2DE9F0410E460CBF102103
:1040F4000821437B044619420AD10B43DD0903F02E
:104104009F0211D14273082914D00120FFF72EFF1A
:104114001B4B9B68A3422CD1EFF305834BBB30466A
:10412400BDE8F041FCF73EBD03F01F03437301F00B
:1041340033FBE8E7A36813B1204601F035FB04F133
:10414400180001F007FC4FF0000804F15807A56DB2
:10415400BD42DAD0002DD8D0284601F025FB05F168
:10416400180001F0F7FB2846C5F87880FFF756FFE2
:10417400EDE786F31188BFF36F8FBDE8F08100BFD0
:10418400D804042038B54FF02003EFF3118583F3EE
:104194001288BFF36F8F104B104A9C681068A042BE
:1041A40006D1FFF7BBFE85F31188BFF36F8F38BDCF
:1041B40000211B7C11600A4AD35C002BF3D02046FB
:1041C400FFF77EFE0028EED0637BDB0602D120469B
:1041D400FFF7EAFE2046E4E7D8040420F8040420AC
:1041E4002E05042070B50C480C4D86680C462E60D4
:1041F4001146DDE904234FF02006EFF3118586F321
:104204001288BFF36F8F8068FFF754FF2046BDE824
:104214007040FCF7C7BC00BFD8040420F804042095
:1042240049B9EFF3058030B9054B5A699B689A4246
:1042340001D0FCF7B7BC81F31188BFF36F8F7047CF
:10424400D804042010B54FF02002EFF3118482F358
:104254001288BFF36F8F427B510704D484F3118813
:10426400BFF36F8F10BD22F004024273FFF7D6FE36
:104274002146BDE810400148FFF7D2BF2F050420B6
:104284004FF02003EFF3118183F31288BFF36F8F94
:10429400044B9A68D37B013BD37381F31188BFF33A
:1042A4006F8F7047D804042010B54FF02003EFF34C
:1042B400118483F31288BFF36F8F084B00209A6830
:1042C400D37B0133D373FFF751FE84F31188BFF31B
:1042D4006F8FBDE8104001F012BB00BFD80404206A
:1042E400024B03F11802C3E906227047D8040420E4
:1042F400F8B54FF02003EFF3118583F31288BFF371
:104304006F8F19498868437B03F07F03437301F07F
:1043140043FA08468B685A7B62F07F025A7350F85E
:10432400182FCC69824208BF002222B9C3E90004D5
:104334002360CB610CE093F90E6092F90E70BE42DB
:104344000ED0B7420CDD5168C3E900210B60536005
:104354000120FFF70BFE2846BDE8F840FCF722BC1D
:10436400A242E3D01268E0E7D804042050EA010333
:104374002DE9F04105460E4603D1FFF7B9FF0020B1
:104384002CE0831C71F1FF332ADB01F0F9FA2C18BD
:104394004FF02003EFF3118883F31288BFF36F8F7C
:1043A400114F124BB8681860FFF76CFEB8681049DB
:1043B4002A463346183000F09DF8BA684046537BCD
:1043C40043F010035373FCF7EDFB01F0D9FA201A04
:1043D40063EB0303012873F10003D0DBBDE8F08134
:1043E4006FF00104241AD3E7D8040420F80404204D
:1043F400AB580500B1F1FF3F08BFB0F1FF3F08B56E
:1044040006D1084B986801F011FA4FF0FF3008BD4F
:10441400FFF7ACFF4FF47A7380FB0303C00B40EA51
:104424004340F4E7D8040420014B9868704700BF68
:10443400D804042008B50648064A0749121A01F0B0
:1044440097F9BDE80840054A0549064801F090B9C6
:1044540000000420240204209460050000000000F1
:104464009460050000000420034B1B680BB9FEF7A1
:104474008DB90020704700BF0405042010B50E4B11
:104484001C689C4204D1FFF7EFFF6FF0004010BDA1
:10449400FFF7EAFF002CF8D0D4E904321B1A62EBD0
:1044A400E072B3F1004F72F10001EEDA002AACBF02
:1044B40018460020EBE700BF1002042030B570B1AD
:1044C4000B4B5B6898420AD0036843B1D3E90421DB
:1044D400D0E90445121941EB0501C3E90421D0E9EF
:1044E400003213605A600023C0E9003330BD00BFBE
:1044F40010020420B3F1FF3F08BFB2F1FF3FF8B54B
:1045040004461D4616465CD081604FF02003EFF34D
:10451400118783F31288BFF36F8F013275F1FF3374
:1045240024DA6FF001032C49D1E900209B1A4FF0E3
:10453400FF3262EB00009E1B60EB0500012E70F160
:10454400000301DA01260020C4E90460234ED6F8F2
:1045540000C07568B44508BF4FF0000CBCF1000FF3
:104564000DD1C4E900652C6074601CE0FFF77CFF8A
:10457400013645F10005361845EBE070E4E7DCE967
:104584000420D4E90431934271EB000E1ADAD21AF2
:10459400DCF8043060EB0100CCE90420C4E900C37A
:1045A4001C60CCF804403368B34206D09C4204D16A
:1045B400FFF764FF0021FEF7BBF887F31188BFF310
:1045C4006F8FF8BD9B1A61EB0001AC45C4E904315F
:1045D400C7D0DCF800C0C1E7600304201002042047
:1045E4002DE9F84F4FF02003EFF3118C83F3128879
:1045F400BFF36F8FDFF8B0A0DFF8B0900024C9F8E4
:104604000000DAF800000025504508BF0020284FBC
:10461400E046D7E90021D9F8003080B3D0E9046C32
:104624004FEAE37EB3427EEB0C0B05DAF61A6CEB31
:104634000E04C0E9046422E0B21841EBE671C0E95B
:104644000445C7E90021FFF739FF88F31188BFF358
:104654006F8F836898474FF02003EFF3118883F33B
:104664001288BFF36F8FD9F80030DAF800009B1B73
:104674005045C446C9F80030CAD1D7E90021002406
:104684009A1841EBE373C7E90023C9F80040FFF728
:10469400F5FE2146FEF74CF888F31188BFF36F8FBF
:1046A400BDE8F84FFFF76EBD100204200405042096
:1046B4006003042010B54FF02003EFF3118483F35B
:1046C4001288BFF36F8FFFF7CFFE0346054AD2E986
:1046D4000001181841EBE37184F31188BFF36F8F65
:1046E40010BD00BF60030420014800F06BBA00BF96
:1046F400526005002DE9F04F43688DB015468046A1
:10470400029383789A0740F10D8100240E78002EDD
:1047140000F00A81252E0BD04B1C03930134414633
:104724003046029B98470028C0F2F6800399EDE7D3
:104734004E788B1C252E0393F0D00027B946BB4638
:10474400BBF11F0F38D8A6F12003102B0AD8DFE8DD
:1047540003F02A0909300909092109090928092D41
:1047640009091F00A6F13003092B33D92A2E37D1AA
:104774001BF0400F55F8043B40F08280002BA7BF8C
:104784004BF0200B9946C3F100094BF0280B01E0D4
:104794004BF0010B039B13F8016B0393002ECFD155
:1047A40030E04BF0020B4BF0040BF3E74BF0080B3B
:1047B400F0E74BF0100BEDE7BBF17F0F19D8A6F132
:1047C4003003092BD2D81BF0400F03D00A2101FB80
:1047D4000737DFE70A214BF0200B01FB0939D9E742
:1047E4002E2E06D11BF0400F40F09E804BF0400B64
:1047F400D0E76C2E31D02BD8682E36D06A2E3CD020
:104804004C2E3AD0002F46F02003B8BF2BF04002C4
:10481400A3F16501BCBF00271FFA82FB022901D95D
:10482400612B2FD107350727DFF8ACA225F0070548
:1048340008351BF0080F66D00AEB070B56465E4599
:1048440063D1A4EB0A0AA9EB070906EB0A026FE19C
:10485400742E9FD07A2E9DD0D4E71BF0800F18BF02
:104864004BF4007B4BF0800B94E71BF4807F18BF64
:104874004BF4007B4BF4807B8CE74BF4207B89E783
:104884001F4687E7A6F16301122900F2F080DFE8F2
:1048940011F013004F00EE00EE00EE00EE004F00AA
:1048A400EE00EE00EE00EE00EE00FE00E900EE0089
:1048B400EE001B00EE00AF0055F8043B01270DF19C
:1048C400180A8DF81830B4E755F804AB834BBAF1E5
:1048D400000F08BF9A461BF0400F504614BF3946DC
:1048E4004FF0FF3101F065F80746A2E7414620206A
:1048F400029B984700280FDB013EB742F6D34C4495
:10490400B146A41B98E74E46F7E7414616F8010B5B
:10491400029B9847002892DA98F8023043F0040387
:1049240088F802304FF0FF3420460DB0BDE8F08F18
:104934001BF0800F34D01BF4007F2CD0073525F0FA
:104944000705AA4669685AF8080B2BF010050029D8
:10495400ADB237DA404245F4806561EB41010DF1B7
:10496400180B0A235A4601F030F8A0EB0B0301930D
:104974006B0662D5019B25F001019F4289B240F389
:10498400A180002E00F0998015F0100240F09C8068
:10499400BB460D4623E0AA465AF8040BC117D4E7D8
:1049A400AA461BF4807F5AF8041B01D10846F5E798
:1049B4001BF4007F19BF48B241F3C01108B241F3A0
:1049C400C031C2E750EA0103C9D11BF0400FC6D081
:1049D400002FC4D12BF01102BB46019795B240F2CF
:1049E400064115EA01021CBF0BF1010B00222CE069
:1049F4002BF010020A231FFA82FB1BF0800C49D013
:104A04001BF4007115BF0735AA4625F007055AF8AF
:104A1400040B1EBFAA4669685AF8080B50EA010540
:104A240045D12BF016051BF0400FADB242D0002F3C
:104A340040D12BF01702019795B215F0100248D01F
:104A4400019B002E42D103F1010B29075AD4EB0735
:104A540006D5D9456FDDA9EB0B030199CB465F1849
:104A64005B4649E04BF0100B10237826C5E7782B02
:104A740004D1C6F1780343F01003BEE74146252074
:104A8400029B98470028FFF647AF023447E6082305
:104A94000026B2E7AA461BF480715AF8040BBDD075
:104AA4001BF400711ABFC0B2614680B2B6E72BF0A6
:104AB400060295B20DF1180B54E725F01105BB461B
:104AC400ADB28CE70D46B8E73B460D4603F1020B49
:104AD400BBE7DDF804B082E7896005008260050069
:104AE400CDE9043241462020029B98470028FFF676
:104AF40013AF049B059A01339945F1DCA4EB0B0138
:104B04009B46CC180AB341463020029B98470028A4
:104B1400FFF602AF8EB901342744391B019B994239
:104B240024DC1D4655BB019AA9EB0B0955462244CA
:104B34001446914433E0019F92E7023441463046E3
:104B4400029B98470028E7DAE6E640F206410D4268
:104B5400E2D015F0020F04F10104414614BF2B20EA
:104B6400202015F4806F18BF2D20E9E7414630203E
:104B7400029B013498470028CFDACDE606AB013D0D
:104B84004146585D029B98470028CBDAC4E641466B
:104B94002020029B013498470028FFF6BDAEA9EB04
:104BA4000403002BF3DCC1E5704708B5FBF738FCC0
:104BB400FBF758FC00214FF40040FFF71BFCF7E71C
:104BC400002070470FB407B504A951F8040B0191F4
:104BD400FBF784FC03B05DF804EB04B0704700EB12
:104BE400C100408840087047F8B50346FFF7F7FF57
:104BF400B0FA80F0C0F11F0003EB800CDCF8106009
:104C0400CA00171D0C4606328DB256B9012101FAAD
:104C140000F0D9680143D960CCF81040DD539D52AF
:104C2400F8BDF1000431585AD85303EBC0009E522A
:104C3400C5805D52F4E7043A2DE9F041CC1D1144DE
:104C440024F0070421F007010E1BF708B7FA87F2D6
:104C54004FF00008C2F12405AD000735C2F120026F
:104C6400ED0804604146A760C4F80C80920004F18A
:104C7400100000F096FE6B0043F0010363807B1B81
:104C840004EBC5025900A4F800805180A21924F84D
:104C94003550A2F80280A35304EBC7035A8829466F
:104CA40042F001025A802046BDE8F041FFF79CBF64
:104CB400038B13F0070305D10368002B0CBF0020FE
:104CC40003207047022B05D1408BB0FA80F04009D5
:104CD40080007047012B05D10368002B0CBF002016
:104CE400052070470020704710B50C4600B111B97B
:104CF4006FF0150010BD081D00F095F80028F9D1DB
:104D0400A368032BF6D9F3E72DE9F0410D460746D6
:104D14001946281D90461E4600F096F8044638B100
:104D24003346424629463846A446BDE8F04160472A
:104D3400BDE8F08110B44FF02004EFF3118284F346
:104D44001288BFF36F8F416110BC0121FBF7F8BBE0
:104D540038B50C46054658B151B10B6843B14B68A0
:104D640033B11C22002100F01CFE00202C6138BD50
:104D74006FF01500FBE770B505460E46FFF7B4FF6C
:104D8400041E15DB4FF02003EFF3118283F3128826
:104D9400BFF36F8F4FF6FF716B8B2C8B8B4204F03C
:104DA400070407D182F31188BFF36F8F6FF00A04F1
:104DB400204670BD022C0CD101336B8382F3118821
:104DC400BFF36F8F0023224631462846FFF79CFF2E
:104DD400EEE7062C14D8DFE804F004131313041AC6
:104DE4000400002333606B683BB9C5E90066ACB9C5
:104DF40002212846FBF7A4FBDAE71E606E60F6E7A3
:104E040082F31188BFF36F8F6FF00404D0E782F34D
:104E14001188BFF36F8F6FF08504C9E782F311889F
:104E2400BFF36F8FC4E7034658B1426802F0030230
:104E3400012A03D0032A04D1026812B10020986029
:104E440070476FF0150070474268034602F0030292
:104E5400032A4FF00002816014BF104600685A60B4
:104E640070477047FEF72ABE01460068FEF726BE6B
:104E740008B5FBF779FCBDE80840FBF7A7BC0021A7
:104E84000120FFF7EFBF036E83F30B88704740E800
:104E940000F313F4803FD8B208BF6FF015007047D9
:104EA4007FB50A894E890B684D6802F01F0242EAF9
:104EB400461200938DF8082023F01F036A1E134442
:104EC40023F01F030728039304D86946FBF7D6FF92
:104ED40004B070BD6FF01500FAE708B5FCF786F969
:104EE400002008BD4FF0402301220020C3F804270E
:104EF400C3F80429C3F8002B70470C220369C9B214
:104F040001FB0233986F00F0070070474FF0200355
:104F1400EFF3118283F31288BFF36F8F036803F0FA
:104F2400C00343F00203036082F31188BFF36F8F61
:104F3400704770B5C9B203694FF02004EFF31185CF
:104F440084F31288BFF36F8F0C2606FB0134A46F21
:104F540014F0C00408D0A24206D085F31188BFF330
:104F64006F8F4FF0FF3070BD012206FB01339A674B
:104F740085F31188BFF36F8F436803EBC1035B684C
:104F840098470020EFE78022FFF7D3BFF8B5069FCC
:104F94000469C9B24FF02005EFF3118685F3128836
:104FA400BFF36F8F0C2505FB0144A56F05F0070CBB
:104FB400BCF1010F0CD1A76786F31188BFF36F8F83
:104FC400C4E91C23436853F8313098470020F8BDE6
:104FD40005F0C005AF4286F31188BFF36F8F0CBF95
:104FE4006FF077004FF0FF30F1E713B580240094A1
:104FF400FFF7CCFF02B010BD10B41C240069CBB283
:1050040003FB0400002110BC10470320FDF7DEBCA5
:105014000220FDF7DBBC0020FDF7D8BC032000F024
:105024003BBA022000F038BA002000F035BA10462E
:10503400FEF7DCBE436800205B681B690B607047A9
:10504400436802EA01005B6821EA020198600020DB
:10505400D9607047436800205B6899607047436873
:1050640000205B68D960704743685A68536821EA36
:1050740003000B4090600020D360704710B50369B3
:105084005868F8B1884219D19C680868A1425860F0
:1050940000D19860002008602AB15A680A609A68B2
:1050A400596002B99960002010E0814206D1086875
:1050B400206098688142EDD19C60EBE7044600686B
:1050C4000028F2D1002AE8D16FF0150010BD30B5E8
:1050D40043681360057A446804EBC504A34202D311
:1050E4006FF0010030BD5C798C4201D00833F0E7E9
:1050F4000020F7E743681B68D3F88004C3F88004F2
:105104007047436802691B68D3F8100150B100204E
:10511400526912780A70C3F81001D3F810210122E1
:105124001A6070474FF0FF30704702680346D2F8A8
:10513400580140B95B689B0706D4D2F820010038B7
:1051440018BF012070470120704742681368D3F8E4
:105154000413C90518D5D3F82011A9B14FF02000C4
:10516400EFF3118180F31288BFF36F8FD3F820011E
:1051740030B10020C3F82001D3F820010120D86009
:1051840081F31188BFF36F8F5268D20615D54FF0A3
:105194002001EFF3118281F31288BFF36F8FD3F8EC
:1051A400581111B10021C3F800154FF48001C3F860
:1051B400081382F31188BFF36F8F70470022012117
:1051C4000C20FBF77BBD002201210A20FBF776BDF2
:1051D40010B50B6813B91846136005E003685C68E2
:1051E4001CB114600368186810BD083303600B68B1
:1051F400013B0B60EDE703460A4619790123006879
:1052040003FA01F103691B68194218BF82F0010215
:1052140012B18368DB68184783681B69FBE710B524
:10522400036804464BB19A683AB1186900F08EFAE3
:10523400206800210830FFF7DEFFA36933B96360FB
:1052440004F11000BDE81040FEF7D0BD10BD10B54C
:10525400006903688B4206D190F85C4034B9FFF7CB
:10526400DEFF204610BD6FF01500FBE76FF00F0066
:10527400F8E72DE9F34144680569E66B00213046FF
:1052840001AAFFF724FF002825DB019B3268197966
:105294001868FCF793FB00281DDB216C481C11D116
:1052A4000126636B9847AC680834D5E9023203EBF6
:1052B400C203A4F10802934210D82846FFF7AFFFB7
:1052C400002008E004F14400FDF734F810F1130F56
:1052D40001D0411DE4D102B0BDE8F08154F8080CBE
:1052E40000F039FA28B354F8080C14F8041C34F804
:1052F400023CD0F810C0DA07DCF8007054BF43F465
:10530400B01383F4D01323F4801206FA01FEDB07F2
:10531400D0F808804CBF4EEA070727EA0E07CCF8FE
:105324000070D8F800309847002804F10804BCDA6B
:10533400D1E76FF01200CEE738B5027803460C4689
:1053440062B98D6D5DB94B6D1C696FF07303236396
:1053540004F12000FEF74AFD84F85C5038BDC86CA7
:1053640048B10A6D3AB1DB682BB1984203D02A46A2
:10537400496E00F009FBA36CA56D9BB19D4211D849
:105384005B1BA3644BBB636B04F148020833636388
:10539400A36B04F13801013BA36304F13400FFF76C
:1053A40017FF6064236D9BB19D4211D85B1B23657D
:1053B400CBB9E36B04F150020833E363236C04F1CB
:1053C4004001013B236404F13C00FFF701FFE0646A
:1053D400606DBDE83840FCF753BD636C002BE1D031
:1053E4002B446364DEE7E36C002BF1D02B44E364CD
:1053F400EEE7F8B50C46054600F002F90022214616
:1054040006462846FDF7C8FF03212046FCF772FF35
:1054140000F023F807462B689B5953B10026214618
:10542400284600F0EBF820460121FCF763FF3046E4
:10543400F8BD00F012F8C01B0628ECD96FF0730613
:10544400EDE7002200F150039B009BB203F180437F
:1054540003F5A8331A601B68704708B5FDF704F814
:1054640008BD002008B5FBF73DFB7047004700F07E
:105474006DB940F00040C1F88000704740F0004032
:10548400C1F88000704740F00040C1F88000C2F8C5
:1054940080007047FDF75CBBFDF7C4B9F7B516464D
:1054A400DDE90847019001A81D46FDF757FB019B64
:1054B400B6F1000C18BF4FF0010C00EB83000B1E7B
:1054C40018BF0123002D43EA4C0314BF4FF00C0C0A
:1054D4004FF0000C002C43EA0C0314BF4FF4706C23
:1054E4004FF0000C002F43EA0C0314BF4FF4403C70
:1054F4004FF0000CD0F8002243EA0C0322EA030325
:1055040001B109780EB13678760019430DB12D78C2
:10551400AD0031430CB12478240229430FB13F7804
:105524003F040C433C43C0F8004203B0F0BD1FB538
:105534000DF10F03019300238DF80F101A4619463D
:105544000093FFF7ABFF05B05DF804FB70B50446AC
:1055540008461646FDF714FB083034F810300D46A3
:10556400DA0509D5C3F3432304EBC30231462846C5
:1055740054F8333052689847A3682BB13146284613
:10558400E268BDE87040184770BD10B50479204644
:10559400FDF778FB40B12046FDF752FB00B28000D6
:1055A40000F5807080B210BD4FF4BE70FBE770B59B
:1055B4000679044630460D46FDF764FBB0B130462B
:1055C400FDF74EFB90B93046FDF73AFB0123226804
:1055D4008340C2F80833226803B202EB8303D3F892
:1055E400102522F00302C3F8102570BD2846BDE83B
:1055F40070400021FFF79BBFFDF758BCFFF7D7BFF2
:10560400FFF7C3BF70B50126A2F58074A40806FA9B
:1056140004F4054614EA010008D0A85830B100216A
:105624003046A950AA581A6822431A6070BD002354
:105634002DE9F34104460D460193904601AB4FF426
:10564400A672FFF7DFFF4FF4827229462046FFF768
:10565400D9FF4FF48C72074629462046FFF7D2FF44
:10566400064630B1B8F1000F1DD017B13E46D4F84C
:105674003C354FF488722946204601ABFFF7C2FF40
:1056840030B1B8F1000F03D016B90FB1D4F83C35DE
:105694004FF490722946204601ABFFF7B3FF0198FF
:1056A40002B0BDE8F0814646E3E707B5019001A8E2
:1056B400FDF7CAFE0123019A9340836003B05DF8AD
:1056C40004FB07B5019001A8FDF7BEFE0123019A72
:1056D4009340C36003B05DF804FB012370B5044636
:1056E4000D4664264361002202212046FFF79FFFF6
:1056F40020B90120FFF7BBFE013EF4D100236B77F4
:10570400C4F8003570BD70B501F10C020C4640219F
:105714000546FFF78CFFC0B1206A431C03D0E37F2A
:1057240083B1FFF7CEFF637F1BB121462846FFF705
:10573400D4FF002320462372616850F8083BBDE87B
:1057440070401847FFF7B1FFEDE770BD08B1FBF7F4
:10575400D7BD7047704740B1C368587810F0010056
:105764001EBF1878B0FA80F04009704700F019B9EC
:1057740000F00AB9EFF30580003818BF0120704724
:1057840008B54FF02002EFF3118382F31288BFF3C0
:105794006F8FFBF701FBF4E7D0E9003213605A6026
:1057A4000023C0E90033704708B5FFF7F5FF437BDA
:1057B40023F0020343730023836008BD38B5044615
:1057C4000D46FEF75FFC637B43F002036373E5B1B0
:1057D400A5602B689D4209D16B68C4E900531C6025
:1057E4006C6012E06A689342F6D01B68002BF3D019
:1057F40094F90E2093F90E108A42F3D09142F1DD10
:105804005A68C4E9003214605C6038BD10B54FF0CA
:105814002003EFF3118483F31288BFF36F8FFEF735
:10582400FDFB84F31188BFF36F8F10BD10B50446E0
:10583400183000F08FF84FF02003EFF3118183F359
:105844001288BFF36F8F627B12F0100204D081F3D1
:105854001188BFF36F8F10BD2046BDE81040FEF7DE
:1058640041BC38B504464FF02003EFF3118583F3B0
:105874001288BFF36F8F437B13F0280F0BD183681B
:105884000BB1FFF791FF637B51B903F0FB03204693
:105894006373FEF7C3FB85F31188BFF36F8F38BDC5
:1058A40003F0EB03F3E701211838FFF7DABF38B54B
:1058B4004FF02003EFF3118583F31288BFF36F8F4A
:1058C4000468A0420DD034B12046FFF76DFF04F107
:1058D400180000F03FF885F31188BFF36F8F20465E
:1058E40038BD0024F7E7034620B9EFF305820AB96F
:1058F400FBF758B983F31188BFF36F8F70474FF0EC
:105904002003EFF3118083F31288BFF36F8FFFF747
:10591400EABF4FF02002EFF3118182F31288BFF344
:105924006F8F027BD2070AD581F31188BFF36F8F83
:10593400404080F311884FF0040002DF7047437B3E
:105944001B0704D581F31188BFF36F8F70470122C1
:10595400FEF7C8BB10B54FF02002EFF3118482F3B9
:105964001288BFF36F8F03683BB1FEF7A7FD0020D9
:1059740084F31188BFF36F8F10BD6FF01500F7E744
:1059840008B5FEF797FE08BD0A44431E914200D1B4
:10599400704710B511F8014B914203F8014FF9D14A
:1059A40010BD02440346934200D1704703F8011B23
:1059B400F9E70246014410B58A42134603D01C7825
:1059C4000132002CF8D1181A10BDF0B5C3F1370715
:1059D400044603F01F031046FFB2082BE6B232D090
:1059E400102B3DD06508A40845EAC17544EA8174CA
:1059F4008A082D1942EB5102290941EA02716D18F6
:105A040042EB1212290A41EA02616D1842EB12229A
:105A1400290C41EA02416D1842EB1242AD1842F1E1
:105A24000002EC0844EA4274D10804EB8402A6EBB9
:105A34004205EDB2092D0CD90134A5F10A0541F155
:105A44000001EDB212E0E40806F0070544EA4174EF
:105A5400C908303554EA010200F8015BBDD1F0BD3C
:105A6400240906F00F0544EA01740909092D84BFCD
:105A7400ED19EDB2EDE70000014800687047000041
:045A84006C0304208B
:085A880000A7FF7F01000000F0
:105A9000E94E050000000000A1130500E85A0500CA
:105AA0007D170500105B05007D170500FC5A0500F9
:105AB000451B0500245B05002D16050000000000B5
:105AC000D5250500000000003D1205000000000083
